:1000000041C065C064C063C062C07BC760C05FC0E0
:100010005EC05DC0CFC65BC05CC659C058C00000A2
:10002000000037000000000038000000000036002B
:100030000202020202020102040810200102000072
:100040000400A902D102FC0229035A038D03C30351
:10005000FC0338047904BD04060552059505F9052D
:100060005406B4061A078607F9077208F3087B09D5
:100070000B0AA40A460BF20BA80C680D340E0A0FEB
:10008000F00FF20D11241FBECFE5D2E0DEBFCDBFD1
:1000900021E0A4E5B1E001C01D92A839B207E1F763
:1000A00011E0A0E6B0E0E8EFFEE102C005900D929D
:1000B000A435B107D9F710E0C2E4D0E003C021971E
:1000C000FE0102DEC134D107D1F787D713CF98CF15
:1000D000813031F48AB58F778ABD8AB58F7B07C0AE
:1000E000823039F48AB58F7D8ABD8AB58F7E8ABD0C
:1000F0000895833039F480B78F7D80BF80B78F7EBD
:1001000080BF0895843031F48CB58F7D8CBD8CB563
:100110008F7E8CBD0895CF93DF93282F30E0F901B7
:10012000E45CFF4F8491F901EA5CFF4FD491F9013F
:10013000E05DFF4FC491CC2389F08111C9DFEC2F22
:10014000F0E0EE0FFF1FE65DFF4FA591B491EC913B
:10015000ED2381E090E021F480E002C080E090E0B7
:10016000DF91CF9108951F93CF93DF93282F30E035
:10017000F901E45CFF4F8491F901EA5CFF4FD491EF
:10018000F901E05DFF4FC491CC23C9F0162F811116
:100190009FDFEC2FF0E0EE0FFF1FEC5DFF4FA5910E
:1001A000B4918FB7111106C0F8949C91ED2FE09592
:1001B000E92303C0F894EC91ED2BEC938FBFDF9112
:1001C000CF911F910895CF93DF9390E0FC01EA5CFB
:1001D000FF4F2491FC01E05DFF4F8491882361F182
:1001E00090E0880F991FFC01E25EFF4FC591D4910A
:1001F000FC01EC5DFF4FA591B491611109C09FB75F
:10020000F8948881209582238883EC912E230BC05B
:10021000623061F49FB7F8943881822F80958323F0
:100220008883EC912E2B2C939FBF06C08FB7F89438
:10023000E8812E2B28838FBFDF91CF910895EDE6C3
:10024000F0E01192119280E0ED3AF807D1F70895AD
:100250008091350181FF0DC080915C018B3018F0D9
:1002600085E595E502C089E492E990937101809358
:1002700070010895CF92DF92EF92FF92CF93DF93B8
:100280008091350181FF29C010926A0010926900A7
:10029000CFE0D0E0C12CD12C7601C39466E070E0B1
:1002A00080E090E078D6672B682B692BA1F4209131
:1002B000690030916A00D701C6010C2E04C0880F76
:1002C000991FAA1FBB1F0A94D2F7822B932B9093DE
:1002D0006A0080936900219708F7DF91CF91FF9022
:1002E000EF90DF90CF90089538DD22E030E040E0DD
:1002F00050E040DD672B682B692B19F082E292E217
:1003000002C082E994EA90936C0080936B00089598
:1003100086E080932E0163E170E080E090E03BD6C0
:10032000DC01CB010196A11DB11D80935C0163E14D
:1003300070E080E090E02FD6DC01CB010196A11D9A
:10034000B11D809355016AE170E080E090E023D612
:10035000DC01CB010596A11DB11D80935401FDDC8C
:1003600025E030E040E050E005DD60932F016AEFCA
:1003700070E080E090E00FD6DC01CB01C296A11DB9
:10038000B11D90936200809361006CE070E080E0AA
:1003900090E001D660932D0168E070E080E090E08D
:1003A000FAD5DC01CB010496A11DB11D880F991F60
:1003B000AA1FBB1F90933E0180933D0164E070E053
:1003C00080E090E0E8D56093300163E070E080E089
:1003D00090E0E1D56093720166E070E080E090E02B
:1003E000DAD560933C016EE070E080E090E0D3D518
:1003F000AB01BC0147505109610971098091370176
:1004000085FB882780F990E0BA011ADC90938E0171
:1004100080938D01A2DC22E030E040E050E0AADCD5
:1004200021E0672B682B692B09F420E080913401CF
:1004300020FB82F98093340190DC23E030E040E03F
:1004400050E098DC21E0672B682B692B09F020E055
:100450008091380120FB87F9809338017EDC22E00F
:1004600030E040E050E086DC21E0672B682B692B10
:1004700009F420E08091390120FB80F98093390153
:100480008091380184FD03C02FDFF4DEE1DE10929D
:100490008C0110928B0108958091360187FF3EC038
:1004A0008091370183FD0BC0EDEAF0E011921192CB
:1004B0001192119281E0ED32F807C1F7C0DE10927F
:1004C0003201209136012F7B8091380190913701C4
:1004D000996028602F7D2093360120913501286195
:1004E0002460209335019F7D9061909337018F7E2A
:1004F000806480628093380110926C0010926B00CF
:1005000010926A00109269001092710110927001AD
:10051000EBDE809136018F77809336018091360132
:100520008860809336018091350185FF04C08091F9
:10053000370184600CC086FF06C0109232018091A2
:100540003701826004C0809137018B7F8D7F80935B
:1005500037010895CF92DF92EF92FF920F931F938E
:100560009C01562FBC01990F880B990B40915C019F
:100570006B017C015230E1F05330B9F1513009F098
:100580004BC00090550104C0F594E794D794C794EC
:100590000A94D2F7DC01CB0104C0B595A7959795D5
:1005A00087954A95D2F78C29622F41DB682F4DC081
:1005B0000090550104C0F594E794D794C7940A9429
:1005C000D2F7DC01CB0104C0B595A7959795879527
:1005D0004A95D2F78C29622F2ADB982F80915401FB
:1005E00063E025DB692F682330C004C0F594E794ED
:1005F000D794C7944A95D2F72C213091550136955E
:10060000DC01CB0104C0B595A795979587953A95E0
:10061000D2F7622F682B19C00090540104C0F594E2
:10062000E794D794C7940A94D2F78B019C0104C035
:1006300035952795179507954A95D2F7A901980101
:100640002C213D214E215F2195DB98B380916000E4
:10065000682380958923682B68BB1F910F91FF90B9
:10066000EF90DF90CF9008952F923F924F925F923C
:100670006F927F928F929F92AF92BF92CF92DF92B2
:10068000EF92FF920F931F93CF93DF93CDB7DEB717
:1006900029970FB6F894DEBF0FBECDBF809134010D
:1006A00086FF03C08062809334018091360183FF0E
:1006B000F7C28091370181FF90C04091580150915D
:1006C0005901E091790120918B0130918C01411504
:1006D00004E05007D4F06E2F6F7081E090E0A0E04E
:1006E000B0E004C0880F991FAA1FBB1F6A95D2F7FC
:1006F000822B932B90938C0180938B014058514017
:10070000509359014093580115C04E2F4F7081E00E
:1007100090E0A0E0B0E004C0880F991FAA1FBB1FA3
:100720004A95D2F7809590958223932390938C01DC
:1007300080938B012091340180915801909159014F
:10074000F0E021FF27C0EE0FFF1FEE0FFF1FE35564
:10075000FF4F55E0959587955A95E1F741E050E0B8
:1007600060E070E07A018B0104C0EE0CFF1C001FFA
:10077000111F8A95D2F7D801C7014081518162814A
:100780007381842B952BA62BB72B80839183A28317
:10079000B3831EC0EE0FFF1FE359FF4F36E0959560
:1007A00087953A95E1F741E050E060E070E08A011A
:1007B0009B0104C0000F111F221F331F8A95D2F71F
:1007C000D901C80120813181822B932B91838083B1
:1007D000809137018D7F809337018091370182FFAF
:1007E0001BC090913401E0917901F0E091FF0BC0C2
:1007F000EE0FFF1FEE0FFF1FE355FF4F1082118218
:100800001282138209C0EE0FFF1FE359FF4F1182BE
:1008100010828B7F809337012091380122FF5EC0C8
:1008200040917401509175018091790190E0019699
:100830008F7099274C3211E05107D4F441E050E019
:1008400060E070E07A018B0104C0EE0CFF1C001F19
:10085000111F8A95D2F7D801C70140916B005091C2
:100860006C00842B952B90936C0080936B0036C0AA
:1008700040395140D4F441E050E060E070E07A014A
:100880008B0104C0EE0CFF1C001F111F8A95D2F7CC
:10089000D801C7014091700150917101842B952BB3
:1008A000909371018093700119C041E050E060E0C5
:1008B00070E07A018B0104C0EE0CFF1C001F111FB9
:1008C0008A95D2F7D801C7014091690050916A001A
:1008D000842B952B90936A008093690023FF32C08C
:1008E0002091790130E02F5F3F4F2F70332781E057
:1008F00090E0A0E0B0E004C0880F991FAA1FBB1FC2
:100900002A95D2F78095909520916B0030916C00DC
:100910002823392330936C0020936B0020916900C9
:1009200030916A002823392330936A0020936900AC
:100930002091700130917101822393239093710172
:100940008093700178948090380186FAFF24F0F843
:10095000F98286FC0BC085FC09C0809179018F5F0C
:1009600080937901803208F018C137C180917801F5
:10097000843099F350917901052F10E01F830E8385
:10098000E0908D01F0908E01C0903A01D0903B0133
:1009900000913C0110E04091370145FB442740F9AC
:1009A000912C252F2F7080918B0190918C0102C08A
:1009B000959587952A95E2F781709927A1E0B0E097
:1009C0009D0102C0220F331F8A95E2F73B832A83E1
:1009D00060912E0170E09B012B5F3F4F809156018B
:1009E0009091570102C0959587955A95E2F78170CD
:1009F0009927820F931F2D0102C0440C551C8A9524
:100A0000E2F785FA882480F820916D018091390100
:100A100080FB222420F8312C33E0230E311C6A5F46
:100A20007F4F3D0102C0660C771C6A95E2F719867C
:100A300018868E819F81880F991F880F991FBC018E
:100A400063557F4F7D836C83A0E2AA2EB12CEE818B
:100A5000FF81EE0FFF1FCF0183599F4F9F838E832E
:100A60003981332309F449C0EC81FD818081918172
:100A7000A281B381088404C0B695A7959795879500
:100A80000A94D2F780FF39C0C601B801F6D8BC017C
:100A9000C701D6D8642F792DD3D8BC01A885B985D4
:100AA0006A1B7B0BCB014F968032910514F00C979B
:100AB00004C097FF02C0CB018B9630E0B501DDD8B2
:100AC000FC01EE0FFF1FEE5BFF4F65917491C901B2
:100AD000880F991FFC01EB59FE4F0A8002C07695E2
:100AE00067950A94E2F771836083FC01E35AFE4F35
:100AF000518240822F5F3F4F2370882009F442C00B
:100B0000EE81FF8180819181088402C0969587954E
:100B10000A94E2F780FF36C0C601B801AED8BC0126
:100B2000C7018ED8642F792D8BD868857985861B6F
:100B3000970BBC01615E7F4F77FF02C0645F7F4F00
:100B400030E0CB010397B50198D8FC01EE0FFF1FF1
:100B5000EE5BFF4F65917491C901880F991FFC01ED
:100B6000EB59FE4F022C02C0769567950A94E2F786
:100B700071836083FC01E35AFE4F718260822F5FB4
:100B80003F4F23708885998501969987888780973C
:100B900009F066CF20936D01E0CE80913A019091EB
:100BA0003B01019690933B0180933A0180FD0BC07D
:100BB000D4D822E030E040E050E0DCD8613071056C
:100BC0008105910521F08091350183FD53DB109261
:100BD0007701109276011092790180913A019091FB
:100BE0003B0104970CF450C010923B0110923A0163
:100BF0008091370180FD44C084FF42C060E270E014
:100C000080E090E0C8D170E0660F771F660F771F15
:100C1000FB01E355FF4FC080D180E280F38080E08C
:100C200090E097018601082E04C036952795179508
:100C300007950A94D2F700FF1FC0FB01E355FF4F51
:100C400001E010E020E030E0B901A80104C0440F49
:100C5000551F661F771F8A95D2F7DB01CA01809561
:100C60009095A095B0958C219D21AE21BF218083C8
:100C70009183A283B38304C001968032910589F6E3
:100C80008091350182FD30DB81E090E09093770127
:100C90008093760184E090E090936F0180936E01E1
:100CA00029960FB6F894DEBF0FBECDBFDF91CF916E
:100CB0001F910F91FF90EF90DF90CF90BF90AF907A
:100CC0009F908F907F906F905F904F903F902F906C
:100CD00008951F920F920FB60F921124CF92DF92B8
:100CE000EF92FF920F931F932F933F934F935F9336
:100CF0006F937F938F939F93AF93BF93EF93FF93E4
:100D00008091870190918801A0918901B0918A0119
:100D10008C019D010E5F1F4F2F4F3F4F8091790136
:100D20004091340142FB662760F9817090E070E0E9
:100D300087D7092E000CAA0BBB0B68017901C81AD2
:100D4000D90AEA0AFB0AC0928701D0928801E09290
:100D50008901F0928A0147FD16C040913D015091F2
:100D60003E01052E000C660B770BC416D506E60671
:100D7000F70648F0109287011092880110928901BD
:100D800010928A0171DCFF91EF91BF91AF919F9119
:100D90008F917F916F915F914F913F912F911F9113
:100DA0000F91FF90EF90DF90CF900F900FBE0F90BC
:100DB0001F9018951F920F920FB60F9211249F92B9
:100DC000AF92BF92CF92DF92EF92FF920F931F9359
:100DD0002F933F934F935F936F937F938F939F9343
:100DE000AF93BF93CF93DF93EF93FF938091350140
:100DF00080FF4DC0C0905A01D0905B0140913101FD
:100E00006091730170E0A0902E0105E611E0EFE71C
:100E1000F1E0ADE5B1E0912CE801299139918E0125
:100E20002C0D3D1D042E02C0220F331F0A94E2F741
:100E300080819181280F391F21933193ED90FC908F
:100E40001197C701860F971FC1E0D0E0EF2811F47A
:100E5000C0E0D0E08C1B9D0B8D939D93232F330F0F
:100E6000330B220F232F221F330B322F3170930E9F
:100E70000A2C02C0969587950A94E2F78227980E6D
:100E8000D1E0E738FD0741F680E8890D8BBD809100
:100E90006E0190916F01019690936F0180936E01A6
:100EA000809167009091680001969093680080930C
:100EB0006700FF91EF91DF91CF91BF91AF919F912B
:100EC0008F917F916F915F914F913F912F911F91E2
:100ED0000F91FF90EF90DF90CF90BF90AF909F90D9
:100EE0000F900FBE0F901F90189581E087B987B1C2
:100EF00087B9369A3699FECF84B125B190E0922B0E
:100F000008951F920F920FB60F9211242F933F93C3
:100F10008F939F93AF93BF9380919401909195018C
:100F2000A0919601B09197013091930126E0230F93
:100F30002D3730F029E8230F0396A11DB11D03C002
:100F40000296A11DB11D209393018093940190936B
:100F50009501A0939601B093970180918F01909194
:100F60009001A0919101B09192010196A11DB11D36
:100F700080938F0190939001A0939101B09392017F
:100F8000BF91AF919F918F913F912F910F900FBE85
:100F90000F901F901895CF93DF9300D000D0CDB75E
:100FA000DEB7611571058105910569F09B01AC0102
:100FB00069833A834B835C83D0D629813A814B8104
:100FC0005C81D8D603C060E070E0CB010F900F9039
:100FD0000F900F90DF91CF910895CF93DF93CDB70E
:100FE000DEB728970FB6F894DEBF0FBECDBF81B72E
:100FF00081BF8AB582608ABD8AB581608ABD83B7A8
:10100000887F836083BF789489B7826089BF80B707
:10101000807F80BF80B7806880BF8CB580648CBDC6
:101020008FEF8DBD80B7876080BF86B18877866877
:1010300086B9379A61E084E0C6D861E081E0C3D820
:1010400062E080E0C0D862E083E0BDD862E082E088
:10105000BAD880E060D8892B29F483E05CD8892B4A
:1010600009F47BC580E057D8892B89F4809135013C
:101070008D7F8160809335018091340180648093FD
:10108000340181E080937801109260001BC083E0FE
:1010900042D8892B91F48091350182608E7F8093B4
:1010A00035018091340180648093340184E0809321
:1010B000780182E08093600005C0809137018062F2
:1010C0008093370112DF8C0161E081E04CD80DDFA5
:1010D000800F911FBC01665F734819F080E090E0BB
:1010E00040D686E087BD19BE81E080BF80E68CBD1A
:1010F00080E88BBD8AE083BF83E689BD80E189BF3C
:1011000081B78E5F81BF80E481BD7894B3D8A0D8C9
:10111000FFD823D622E030E040E050E02BD6672B0A
:10112000682B692BE1F100E010E022E0822E912C87
:10113000A12CB12CC12CD12C7601C3940ED6A501C3
:10114000940118D62091560130915701672B682BD6
:10115000692B69F0D701C601002E04C0880F991FC2
:10116000AA1FBB1F0A94D2F7822B932B0EC0D70164
:10117000C601002E04C0880F991FAA1FBB1F0A9426
:10118000D2F7809590958223932390935701809373
:1011900056010F5F1F4F0031110581F604C01092F8
:1011A00057011092560182E0882E912CA12CB12C6F
:1011B000C12CD12C7601C3948091350181FFB2C03E
:1011C0006091360166FDAEC020916E0130916F01D5
:1011D000C90195958795959587959093770180930B
:1011E00076014091610050916200841795070CF0E0
:1011F00093C060FF91C0609179016F7040916B0066
:1012000050916C0002C0569547956A95E2F740FFF1
:1012100019C048B3E0916000B901B5E075956795D4
:10122000BA95E1F70DD516E0359527951A95E1F7B2
:1012300002C0959587952A95E2F78E23E0954E2377
:10124000482B48BB209179012F70809169009091C3
:101250006A0002C0969587952A95E2F780FF2BC019
:101260002091760130917701809161009091620028
:101270009595879528173907F4F4C9018056994741
:1012800048B3E0916000BC01F3E075956795FA956D
:10129000E1F7D6D40090740102C0359527950A94E1
:1012A000E2F702C0959587952A95E2F78E23E0959F
:1012B0004E23482B48BB209179012F7080917001FB
:1012C0009091710102C0969587952A95E2F780FF6B
:1012D00029C068B37091600080916E0190916F0198
:1012E000AC010090740102C0559547950A94E2F74D
:1012F000452F550F550B4595292F332727FD3A9537
:10130000242B352B02C0959587952A95E2F78723E4
:1013100070956723862B05C098B3809160008095F7
:10132000892388BBE2DD90937B0180937A0120E7DB
:1013300032E0281B390B30937501209374014091E2
:10134000360145FF05C030935B0120935A0104C06C
:1013500010925B0110925A01813825E0920714F037
:1013600080E895E097FF02C080E090E090935901FB
:101370008093580126B3322F317091E03927809144
:10138000350130FB85F923FB222720F9922790FBBA
:1013900086F9809335018091340187FF44C08091A4
:1013A0007801B9D621E0892B09F420E0809134013D
:1013B00020FB83F9809334012223D9F084FD19C0E6
:1013C00080618093340180916700909168009695C8
:1013D0008795A0E0B0E08093630090936400A093B1
:1013E0006500B093660010926800109267003CD9C7
:1013F0001AC08091340184FF16C04091670050915B
:10140000680060E070E0009163001091640020913A
:10141000650030916600041715072607370718F492
:101420008F7E80933401909135018091360195FF34
:101430000BC081FD12C02091370120642093370139
:101440008260809336010FC081FF07C08D7F80933B
:10145000360180913701806804C0809137018F7B0D
:101460008F77809337018091360196FB332730F9CF
:1014700096FF0BC082FD12C020913801216020939D
:1014800038018460809336010FC082FF07C08B7FD4
:101490008093360180913801826004C080913801C8
:1014A0008E7F8D7F8093380195FF2FC0332369F1A4
:1014B0008091360184FD29C0789481B5806481BD16
:1014C00080916D0190E09C01220F331FF901EB59CF
:1014D000FE4F48EE53E051834083F901E35AFE4F3B
:1014E00040E058E151834083019663E070E0C5D34A
:1014F00080936D0180913601877B806180933601F6
:10150000809134018160809334018091360184FFA1
:1015100049C09091350195FD45C096FD43C08F7E31
:1015200080933601809134018E7F8093340190FD49
:101530000AC080913301813021F483E0809333012C
:1015400002C010923301809133018F5F20913001EE
:1015500030E02F5F3F4F237033272093300169E045
:1015600080D3909333018091370183FFD1D61092BD
:101570003201809136011092770110927601877DB9
:10158000909137019C7F9B7F9093370180688F7B80
:1015900080933601809138018B7F877F809338015B
:1015A000109273018091340185FF11C0609179011F
:1015B00070E06F5F7F4F6170772731E06327809124
:1015C0007801D1D5809134018F7D80933401809151
:1015D000340180FF08C08091360180648860809368
:1015E000360161E0C4C0909133019430E1F038F4E9
:1015F000923079F0933009F0C0C08D7F0BC09730E6
:1016000009F466C0983009F4D7CD963009F0B5C01A
:101610003AC08260809334013FD780913801806264
:1016200080933801C9CD8091360187FF1DC090910C
:1016300038019061909338019091370198609093B0
:101640003701909135019B7E977F9093350188609B
:101650008F7B8F778093360110926C0010926B0015
:1016600010926A00109269009091350180913801C2
:1016700096FF02C08460D4CF95FF02C08860D0CFAF
:10168000877F8B7FCDCF809136018064877F809369
:1016900036019091350196FF0CC010923201809175
:1016A0007401909175016AE070E0E7D260935C018B
:1016B000E9C195FF04C010923201806241C228D670
:1016C00064E070E080E090E066DC60937C0174CDC3
:1016D000809136018064809336018091380180FFCB
:1016E00008C080917D018F5F65E0BBD290937D0142
:1016F00037C08091350185FF24C00AD6409174011E
:1017000050917501789481B5806481BD80916D019F
:1017100090E09C01220F331FF901EB59FE4F5595C4
:10172000479551834083F901E35AFE4F40E054E16D
:1017300051834083019663E070E09FD280936D01F6
:101740000FC080916E0190916F0100907D0102C0E9
:10175000959587950A94E2F79093770180937601A7
:1017600080913601806280933601609130018091D2
:10177000760190917701EED61FCD8091360187FFDB
:101780006EC1109232018F7B88608F778093360113
:10179000909135018091370198619B7F909335013D
:1017A000806280618093370183FD59C110926C0083
:1017B00010926B0010926A001092690010927101F1
:1017C000109270014DEA50E05E834D83FA01119250
:1017D00011921192119251E0ED32F507C1F72FD518
:1017E00068E070E080E090E0D6DBB7D2A50194011C
:1017F000C1D2672B682B692B39F068E070E080E07C
:1018000090E0C9DB262E01C0212C80912D01E82F0C
:10181000F0E0FA83E9838091720190E065E070E086
:101820000FD22091380127FB222720F930E029012F
:10183000440C551C440C551C5C824B8220E030E06B
:10184000312C15E08C5B9E4F98878F83C901820DE8
:10185000931D63E070E011D2892B81F12F5F3F4F20
:101860004D815E814C5F5F4F5E834D832032310539
:1018700069F7E5D464E070E080E090E08CDBDC01A7
:10188000CB010196A11DB11D282F30E08901000F69
:10189000111F8091720190E065E070E0D1D140911C
:1018A0002D01EDE6F0E0FC83EB83E0E0F0E08C5B03
:1018B0009E4F9A838983612C712C37C0AD81BE8184
:1018C00000E0802F612FCDD14F815885490F511DE8
:1018D000FA01808149815A81480F511DFFE14F2E45
:1018E000512C441A550AA2012601370104C0440CA8
:1018F000551C661C771C4A95D2F7B301A2014D9086
:101900005D906D907C90139744295529662977291D
:101910004D935D936D937C9313970F5F6B807C80E9
:10192000A60DB71D033069F699CFCF01B901A5D136
:10193000CB01B801A2D1880F991F65E070E09DD15D
:1019400049805A80480E511CD2018C91840F70E15D
:10195000472E512C481A5108C2011601270104C014
:10196000220C331C441C551C8A95D2F7AB81BC81D8
:101970008D919C9111978229932911969C938E9316
:10198000E20FF31FA00FB11FBC83AB83C3018E0F07
:101990009F1F809754F2212C312CDFD18101000F41
:1019A000111F000F111F03551F4F25E030E040E0CD
:1019B00050E0E0D12B013C018091720190E065E0A4
:1019C00070E03ED1092E000CAA0BBB0B840D951DB7
:1019D000A61DB71DFC01EC5BFE4F208180912D01FF
:1019E00090E0820F911DEFE1F0E0E81BF90BB701E9
:1019F000A60104C0440F551F661F771FEA95D2F752
:101A0000F80180819181A281B381842B952BA62B33
:101A1000B72B80839183A283B38365E070E080E07D
:101A200090E0B9DADC01CB010196A11DB11D280EB1
:101A3000391EF0E22F1631040CF4AFCF55D41AD46E
:101A40008CD1A501940196D1672B682B692B09F0E5
:101A5000FFD38091380180648F7D8093380180911D
:101A6000350185FF1EC0809136018062809336016A
:101A70008091740190917501880F892F881F990BAF
:101A800080933101009176011091770160913001CE
:101A9000C80160D50F5F1F4F109377010093760147
:101AA0008BCB1092320186FF17C020912F018091BD
:101AB000740190917501233038F4880F892F881FA5
:101AC000990B8093310178CB26E0959587952A95DF
:101AD000E1F780932E0170CB809136018F7D80934A
:101AE0003601109273018091370187FF15C082E0A3
:101AF000809331018091380184FD03C0F5D3BAD3BE
:101B0000A7D38091360186FB222720F991E0922706
:101B100090FB86F9809336012091380121FF4CCB50
:101B200080917E018F5F80937E0163E09AD0911156
:101B30000AC02062206420933801809136018F7D95
:101B40008093360139CB913019F420642F7D02C087
:101B50002F7B2062209338012FCB60E084E033D3C9
:101B600060E081E030D3809178018111ABCA81E0DF
:101B7000D2D2892B99F0809135018D7F80933501E8
:101B80008091340180688093340181E080937801F2
:101B900061E084E018D3109260001BC084E0BBD2E7
:101BA000892BB9F0809135018E7F8093350114E047
:101BB0001093780161E081E006D380913401806860
:101BC00080933401809135018260809335011093B8
:101BD000330180E0A0D2892BE1F383E09CD2892BF2
:101BE000C1F3C1CF63E170E080E090E0D4D9DC01C3
:101BF000CB010196A11DB11D80935C0163E170E0F2
:101C000080E090E0C8D9DC01CB010196A11DB11D97
:101C1000809355016AE170E080E090E0BCD9DC017E
:101C2000CB010596A11DB11D809354010895002498
:101C300080FD060E660F11F08695D1F7802D089570
:101C40000024552704C0080E591F880F991F0097BC
:101C500029F076956795B8F37105B9F7802D952F22
:101C60000895991B79E004C0991F961708F0961BF8
:101C7000881F7A95C9F78095089597FB072E16F46B
:101C8000009406D077FD08D00BD007FC05D03EF4B9
:101C9000909581959F4F0895709561957F4F089518
:101CA000AA1BBB1B51E107C0AA1FBB1FA617B70782
:101CB00010F0A61BB70B881F991F5A95A9F780959E
:101CC0009095BC01CD010895EE0FFF1F0590F49192
:101CD000E02D0994A0E0B0E0EFE6FEE08AC0EC0160
:101CE000688179818A819B816115710581059105E2
:101CF00021F464E279ED8BE597E02DE133EF41E0EB
:101D000050E038D049015A0127EA31E440E050E080
:101D10004DD069017A01C501B4012CEE34EF4FEFCB
:101D20005FEF44D0022F132F9A01D701C601800F15
:101D3000911FA21FB31FB7FF03C00197A109B048AD
:101D400088839983AA83BB83BC01CD019F77CDB7DC
:101D5000DEB7ECE06AC0BEDF08958FE391E0BADF42
:101D6000089560933F0170934001809341019093E7
:101D700042010895052E97FB16F400940FD057FDED
:101D800005D068D007FC02D046F408C050954095B5
:101D9000309521953F4F4F4F5F4F08959095809517
:101DA000709561957F4F8F4F9F4F089568940013F2
:101DB000E894A0E0B0E0EEEDFEE01DC0EFEFE7F943
:101DC00059016A015E23550FEE08FE2C87019B0125
:101DD000AC019E23990F660B762FCB015DD0CDB75A
:101DE000DEB7EAE024C02F923F924F925F926F924B
:101DF0007F928F929F92AF92BF92CF92DF92EF929B
:101E0000FF920F931F93CF93DF93CDB7DEB7CA1B1B
:101E1000DB0B0FB6F894DEBF0FBECDBF09942A8846
:101E2000398848885F846E847D848C849B84AA84EE
:101E3000B984C884DF80EE80FD800C811B81AA817B
:101E4000B981CE0FD11D0FB6F894DEBF0FBECDBF46
:101E5000ED010895A1E21A2EAA1BBB1BFD010DC0C6
:101E6000AA1FBB1FEE1FFF1FA217B307E407F5074A
:101E700020F0A21BB30BE40BF50B661F771F881F26
:101E8000991F1A9469F760957095809590959B01BC
:101E9000AC01BD01CF010895DF93CF939F92A0E4E1
:101EA0009A2E0024D001E001F00116950795F794D1
:101EB000E794D794C794B794A79448F41068A20FF6
:101EC000B31FC41FD51FE61FF71F081E191E220FC0
:101ED000331F441F551F661F771F881F991F9A9431
:101EE00021F79D01AE01BF01C00111249F90CF9148
:081EF000DF910895F894FFCF83
:101EF80002F401010000000A00FFFF8080080000D2
:101F080000000008000000000008000000000000B9
:101F180000000000000000000000000000000000B9
:101F280000000000000000000000000000000000A9
:101F38000000000000000000000000000000000198
:101F48000000000000000000000000000000000188
:101F58000000000000000000000000000000000178
:101F68000000000000000000000000000000000168
:101F78000000000000100000000000000000000148
:101F88000000000000100000000000000000000138
:101F98000000000000100000000000000000000128
:101FA8000000000000100000000000000000000118
:101FB800000000000010000000000000000C0A04EF
:101FC80004020101121F8100E00101000408000160
:101FD800000000200003070A0C0004070B0C000295
:041FE80005070900E0
:0200000002C03C
:00000001FF