:1000000041C065C064C063C062C0FFC060C05FC063
:100010005EC05DC0BFC75BC097C759C058C0A902CA
:10002000D102FC0229035A038D03C303FC033804E5
:100030007904BD04060552059505F9055406B40674
:100040001A078607F9077208F3087B090B0AA40A46
:10005000460BF20BA80C680D340E0A0FF00F0000CF
:1000600000003700000000003800000000003600EB
:100070000202020202020102040810200102000032
:1000800004003F0911241FBECFE5D2E0DEBFCDBF83
:1000900021E0A4E7B1E001C01D92AD3AB207E1F75B
:1000A00011E0A0E6B0E0E2E7FEE102C005900D92AB
:1000B000A437B107D9F710E0C2E4D0E003C021971C
:1000C000FE01BFDDC134D107D1F7FED8D0CE98CF25
:1000D0008F929F92AF92BF92CF92DF92EF92FF9258
:1000E0000F931F93CF93DF93F5DD4B015C01F2DD9E
:1000F0006B017C01C501B40122E030E040E050E03A
:10010000F6DDCB0164EF7FEF58DDEC01A096C7016F
:10011000B60125E030E040E050E0E9DD8B019C01D4
:100120008091A50190E065E070E047DDAC01990F9A
:10013000660B770BD901C801840F951FA61FB71F47
:10014000FC01ED59FE4F20818091C40090E0820FA8
:10015000911DC81BD90B81E090E0A0E0B0E06C01DC
:100160007D0104C0CC0CDD1CEE1CFF1CCA95D2F72F
:100170006FE170E080E090E060D8660F771F660F57
:10018000771FFB01EB53FF4F0081118122813381E7
:10019000D701C601802B912BA22BB32B8083918397
:1001A000A283B383DF91CF911F910F91FF90EF90C6
:1001B000DF90CF90BF90AF909F908F9008953FB702
:1001C000F8948091990190919A01A0919B01B0912E
:1001D0009C0122B708B601FE05C02F3F19F0019619
:1001E000A11DB11D3FBFBA2FA92F982F8827820FBD
:1001F000911DA11DB11DBC01CD0143E0660F771F0C
:10020000881F991F4A95D1F708951F920F920FB634
:100210000F9211242F933F938F939F93AF93BF938C
:100220008091950190919601A0919701B0919801CC
:100230003091940126E0230F2D3730F029E8230F69
:100240000396A11DB11D03C00296A11DB11D2093EF
:1002500094018093950190939601A0939701B09398
:1002600098018091990190919A01A0919B01B09180
:100270009C010196A11DB11D8093990190939A0153
:10028000A0939B01B0939C01BF91AF919F918F91DF
:100290003F912F910F900FBE0F901F9018952F92A6
:1002A0003F924F925F926F927F928F929F92AF9206
:1002B000BF92CF92DF92EF92FF920F931F93CF9353
:1002C000DF936AE070E080E090E0B7D7C0E0D0E074
:1002D00035E0432E512C612C712C40E2242E312C20
:1002E000C12CD12C7601C394F5DC8E01000F111FB7
:1002F000000F111F0B531F4FA3019201F8DC4B019C
:100300005C018091A50190E065E070E056DC092E6B
:10031000000CAA0BBB0B880D991DAA1DBB1DFC016F
:10032000ED59FE4F20818091C40090E0820F911D15
:100330009101281B390BB701A60104C0440F551FBA
:10034000661F771F2A95D2F7F80180819181A281DB
:10035000B381842B952BA62BB72B80839183A2830B
:10036000B38366E070E080E090E067D7C60FD71FE8
:10037000C032D1050CF4B8CFDF91CF911F910F910E
:10038000FF90EF90DF90CF90BF90AF909F908F90B5
:100390007F906F905F904F903F902F900895CF92F5
:1003A000DF92EF92FF92CF93DF931092A70110920A
:1003B000A601CFE0D0E0C12CD12C7601C39464E03B
:1003C00070E080E090E039D7672B682B692BA1F4AF
:1003D0002091A6013091A701D701C6010C2E04C0BF
:1003E000880F991FAA1FBB1F0A94D2F7822B932B49
:1003F0009093A7018093A601219708F7DF91CF91F1
:10040000FF90EF90DF90CF900895CF92DF92EF9220
:10041000FF92CF93DF931092460110924501CFE0F7
:10042000D0E0C12CD12C7601C39464E070E080E070
:1004300090E003D7672B682B692BA1F4209145012D
:1004400030914601D701C6010C2E04C0880F991FB8
:10045000AA1FBB1F0A94D2F7822B932B90934601BD
:1004600080934501219708F7DF91CF91FF90EF909E
:10047000DF90CF9008958F929F92AF92BF92CF92CC
:10048000DF92EF92FF92CF93DF9310924801109288
:100490004701CFE0D0E085E0C82ED12CE12CF12C33
:1004A000812C912C54018394CE0183709927892B40
:1004B000E9F410DCA70196011ADC643071058105AE
:1004C0009105A1F02091470130914801D501C40167
:1004D0000C2E04C0880F991FAA1FBB1F0A94D2F7C5
:1004E000822B932B90934801809347012197E0F64C
:1004F000DF91CF91FF90EF90DF90CF90BF90AF90C2
:100500009F908F9008954F925F926F927F928F92FB
:100510009F92AF92BF92CF92DF92EF92FF920F9392
:100520001F93CF93DF9380914D01886080934D019D
:1005300063E170E080E090E080D6DC01CB010196C1
:10054000A11DB11D8093930163E170E080E090E014
:1005500074D6DC01CB010196A11DB11D80939201DF
:100560006AE170E080E090E068D6DC01CB0105969E
:10057000A11DB11D8093910162EC71E080E090E0DB
:100580005CD6DC01CB01C296A11DB11D90937B000E
:1005900080937A006CE070E080E090E04ED660934B
:1005A000C40063E070E080E090E047D6DC01CB015E
:1005B0000396A11DB11D809378006CE070E080E08F
:1005C00090E03BD66093770066E070E080E090E0DA
:1005D00034D6DC01CB010196A11DB11D80937600BC
:1005E00082E08093A50163E070E080E090E025D692
:1005F0006093A50164E070E080E090E01ED6DC012D
:10060000CB010296A11DB11D809375006EE070E0D4
:1006100080E090E012D6AB01BC014750510961095E
:10062000710980914D0183FB882780F990E0BA0120
:10063000C4DA9093900180938F0162E070E080E0D3
:1006400090E0FBD521E0672B682B692B09F420E0B3
:1006500080914A0120FB80F980934A013BDB22E034
:1006600030E040E050E043DB21E0672B682B692B52
:1006700009F420E080914E0120FB85F980934E0122
:1006800029DB22E030E040E050E031DB21E0672B65
:10069000682B692B09F420E080914E0120FB86F93C
:1006A00080934E0162E070E080E090E0C6D5F62EC7
:1006B000FF0C05E610E0C0E0D0E0CE018370992782
:1006C000892B59F464E070E080E090E0B6D5DC015D
:1006D000CB010496A11DB11D0AC062E070E080E06C
:1006E00090E0ABD5DC01CB010696A11DB11D682FB2
:1006F0006F19F801608321960F5F1F4FC031D1053C
:10070000E1F6CDDD80914E0182FD03C0B4DE7DDED9
:1007100046DEC12CD12C760180E1882E912CA12CB3
:10072000B12C412C512C32014394D4DAA50194010F
:10073000DEDAC616D706E806F906C4F4CBDAA50158
:100740009401D5DAD301C20104C0880F991FAA1FF2
:10075000BB1F6A95D2F720918E01822B80938E0168
:10076000FFEFCF1ADF0AEF0AFF0ADFCFDF91CF9149
:100770001F910F91FF90EF90DF90CF90BF90AF90BF
:100780009F908F907F906F905F904F900895809191
:100790004C0185FF04C082608F7D80934C01909155
:1007A0004B0193FF5AC084E0809383002091A10104
:1007B0003091A201A901330F660B770B809177006E
:1007C000813001F18230B1F5DB01CA010090920164
:1007D00004C0B595A795979587950A94D2F7009090
:1007E000930104C075956795579547950A94D2F77C
:1007F000842B622FD9D9982F8091910163E0D4D9AD
:10080000892319C0DB01CA010090920104C0B5958B
:10081000A795979587950A94D2F70090930104C005
:1008200075956795579547950A94D2F7842B622F53
:10083000BBD901C080E028B39091820089239095B4
:100840009223892B88BB8091A1019091A2010196EE
:100850009093A2018093A101089580914C0194FF8F
:1008600013C0886080934C011092AA018091A3016B
:100870009091A401880F892F881F990B80936400A1
:1008800081E08093A00108951092AA01877F809350
:100890004C0187E0809383001092A00180914D016C
:1008A00085FF15C082E08093640080914E0182FD37
:1008B00003C0E1DDAADD73DD80914C0184FB2227BA
:1008C00020F991E0922790FB84F980934C0180916C
:1008D0004D0187FF17C080918D018F5F80938D013F
:1008E00063E07CD980914E01911103C088608061E2
:1008F00007C0913019F48061877F02C08F7E8860C5
:1009000080934E0108952F923F924F925F926F9283
:100910007F928F929F92AF92BF92CF92DF92EF928F
:10092000FF920F931F93CF93DF93CDB7DEB72E9730
:100930000FB6F894DEBF0FBECDBF80914A0184FF91
:1009400003C0886080934A0180914C0181FFE3C21B
:1009500087FF3BC02091A3013091A40188E592E07C
:10096000821B930B6AE070E045D96032710514F088
:100970006FE170E08091A9018F7090E0880F991F5E
:10098000880F991FFC01EB53FF4F77FF02C060E017
:1009900070E001E010E020E030E004C0000F111F23
:1009A000221F331F6A95D2F7DC01AB53BF4F4D9125
:1009B0005D916D917C91D901C801842B952BA62B5B
:1009C000B72B80839183A283B38380914D0180FFF5
:1009D0000DC0E091A901F0E0EE0FFF1FEE0FFF1F29
:1009E000EB53FF4F108211821282138240914E010D
:1009F00040FF55C080919D0190E0019760E170E05B
:100A0000F9D86091A3017091A4019C0133276C3245
:100A100051E07507B4F481E090E0A0E0B0E004C0DC
:100A2000880F991FAA1FBB1F2A95D2F72091470153
:100A300030914801822B932B90934801809347017A
:100A40002EC060397140B4F481E090E0A0E0B0E0E5
:100A500004C0880F991FAA1FBB1F2A95D2F72091A7
:100A6000A6013091A701822B932B9093A70180932D
:100A7000A60115C081E090E0A0E0B0E004C0880FBE
:100A8000991FAA1FBB1F2A95D2F7209145013091CB
:100A90004601822B932B909346018093450141FFA1
:100AA00033C080919D0190E0019760E170E0A2D891
:100AB000282F81E090E0A0E0B0E004C0880F991FEB
:100AC000AA1FBB1F2A95D2F78095909520914701C8
:100AD000309148012823392330934801209347015E
:100AE0002091450130914601282339233093460156
:100AF000209345012091A6013091A70182239323E1
:100B00009093A7018093A60180914A0180FF09C0BC
:100B10008091A901809590914B0180FB95F990936C
:100B20004B0180914B0185FB992790F980917800CA
:100B3000890F80937900806481BD789481B5806449
:100B400081BD40914E012091A9012983209162002D
:100B5000309163003D832C8344FD03C043FDA6C058
:100B60002AC18091A8018430C9F3E981EF71F0E0D6
:100B7000EE0FFF1FEE0FFF1FEB53FF4F80809180A2
:100B8000A280B38020918F01309190013F832E830A
:100B900020907500312C59815F70852F90E0209155
:100BA0008E0130E002C0359527955A95E2F7217005
:100BB000332761E070E0DB0102C0AA0FBB1F2A955A
:100BC000E2F7B987A887E0918300EE8770908C01E7
:100BD00020E030E0BC016B597F4F7B876A87DC01E6
:100BE000AD5ABE4FBD87AC87C12CD12C7601C394C2
:100BF00003E010E0D501C401022E04C0B695A7950C
:100C0000979587950A94D2F780FF44C08C819D8187
:100C1000B101F0D7BC018E819F81CFD7EFE1F0E029
:100C2000E21BF30BE81BF90BE132F10514F03C97E2
:100C300002C0F7FD3C96872D90E0EE0FFF1FE25EAD
:100C4000FF4F65917491FC01EE0FFF1FDF01AC5760
:100C5000BE4F088402C0769567950A94E2F76D93BB
:100C60007C93AA85BB85BC91BE87E458FE4FAC85BA
:100C7000BD855C915A5F2601370104C0440C551CA8
:100C8000661C771C5A95D2F7518240820196B801B2
:100C9000B1D7782E2F5F3F4F2032310509F0AACF10
:100CA00070928C01EE85E093830058CF8091A8016B
:100CB000843009F480C0E981EF71F0E0EE0FFF1F8E
:100CC000EC57FF4F20803180C0908F01D090900171
:100CD0000091750010E046FB442740F94A831B82CF
:100CE0006A807B80F3E06F0E711C29812F7030E0E9
:100CF00080918C011F821E82E0E24E2E512CA901B0
:100D00004D5A5E4F5B834A83F2E08F2E912CA12CCB
:100D1000B12CA3E0EA2EF12CA1010E8002C0569561
:100D200047950A94E2F740FF3AC0282F30E08C81C3
:100D30009D81B8015FD7BC01C6013FD7F2014E814A
:100D40005F81E41BF50BE81BF90BEE0FFF1FEC5F57
:100D5000FF4F45915491C901880F991FFC01EC5731
:100D6000FE4F062C02C0569547950A94E2F7518330
:100D70004083FC01E458FE4FAA81BB814C914A5F3D
:100D8000D501C40104C0880F991FAA1FBB1F4A9533
:100D9000D2F791838083C9010196B7012BD72E81A9
:100DA0003F812F5F3F4F3F832E832032310509F073
:100DB000B3CF80938C0189818F5F8093A9018032AA
:100DC00038F18C819D81019690936300809362003D
:100DD000029744F080914B0181FD17DB80914B011C
:100DE00082FDDDDA8091620080FD0CC073D722E0C5
:100DF00030E040E050E07BD761307105810591051E
:100E000009F487C01092A2011092A1011092A901C9
:100E1000809162009091630004970CF45DC0109281
:100E200063001092620080914C0186FD47C0809162
:100E30004D0182FF43C04CD960E270E080E090E059
:100E4000FCD170E0660F771F660F771FFB01EB5335
:100E5000FF4FC080D180E280F38080E090E0970176
:100E60008601082E04C036952795179507950A9494
:100E7000D2F700FF1FC0FB01EB53FF4F01E010E072
:100E800020E030E0B901A80104C0440F551F661FDF
:100E9000771F8A95D2F7DB01CA0180959095A095BE
:100EA000B0958C219D21AE21BF2180839183A283A7
:100EB000B38304C001968032910589F68091610068
:100EC0008F5F8093610080914E01886080934E0116
:100ED00080914B0180FDCFDA80916100833060F01A
:100EE00010926100809160008F5F80936000853078
:100EF00018F009DB1092600081E090E09093A2016D
:100F00008093A10184E090E090939F0180939E01E3
:100F100002C0DED877CF2E960FB6F894DEBF0FBE94
:100F2000CDBFDF91CF911F910F91FF90EF90DF9098
:100F3000CF90BF90AF909F908F907F906F905F9079
:100F40004F903F902F9008951F920F920FB60F92DF
:100F500011242F933F934F935F936F937F938F93BE
:100F60009F93AF93BF93EF93FF9380914A0185FFC7
:100F7000CADCFF91EF91BF91AF919F918F917F91CB
:100F80006F915F914F913F912F910F900FBE0F90F6
:100F90001F9018951F920F920FB60F921124BF92B7
:100FA000CF92DF92EF92FF920F931F932F933F9375
:100FB0004F935F936F937F938F939F93AF93BF9361
:100FC000CF93DF93EF93FF9380914A0186FF46C052
:100FD000409164006091A00170E020918300C4E81A
:100FE000D1E0E4E7F1E0ACE7B1E0B12C099119916F
:100FF000042E02C0000F111F0A94E2F78081918134
:10100000080F191F01931193CD90DC901197C60121
:10101000860F971FEE24E394F12CCD2811F4E12CD8
:10102000F12C8E199F098D939D93012F110F110B98
:10103000000F012F001F110B102F1170B10E022E87
:1010400002C0969587950A94E2F78027B80E81E052
:10105000EC37F80759F680E88B0D8BBD80919E0127
:1010600090919F01019690939F0180939E018091A2
:101070008000909181000196909381008093800080
:10108000FF91EF91DF91CF91BF91AF919F918F91A0
:101090007F916F915F914F913F912F911F910F9190
:1010A000FF90EF90DF90CF90BF900F900FBE0F900A
:1010B0001F90189581E087B987B187B9369A36991C
:1010C000FECF84B125B190E0922B0895813031F4A8
:1010D0008AB58F778ABD8AB58F7B07C0823039F495
:1010E0008AB58F7D8ABD8AB58F7E8ABD089583308B
:1010F00039F480B78F7D80BF80B78F7E80BF089521
:10110000843031F48CB58F7D8CBD8CB58F7E8CBDD9
:101110000895CF93DF93282F30E0F901E458FF4F73
:101120008491F901EA58FF4FD491F901E059FF4F3A
:10113000C491CC2389F08111C9DFEC2FF0E0EE0FD0
:10114000FF1FE659FF4FA591B491EC91ED2381E08B
:1011500090E021F480E002C080E090E0DF91CF9148
:1011600008951F93CF93DF93282F30E0F901E458BF
:10117000FF4F8491F901EA58FF4FD491F901E059EA
:10118000FF4FC491CC23C9F0162F81119FDFEC2FA4
:10119000F0E0EE0FFF1FEC59FF4FA591B4918FB710
:1011A000111106C0F8949C91ED2FE095E92303C03E
:1011B000F894EC91ED2BEC938FBFDF91CF911F91C1
:1011C0000895CF93DF9390E0FC01EA58FF4F2491FC
:1011D000FC01E059FF4F8491882361F190E0880F72
:1011E000991FFC01E25AFF4FC591D491FC01EC59C3
:1011F000FF4FA591B491611109C09FB7F894888100
:10120000209582238883EC912E230BC0623061F4F9
:101210009FB7F8943881822F809583238883EC913F
:101220002E2B2C939FBF06C08FB7F894E8812E2BEE
:1012300028838FBFDF91CF910895CF93DF9300D0A4
:1012400000D0CDB7DEB7611571058105910569F054
:101250009B01AC0169833A834B835C833BD5298135
:101260003A814B815C8143D503C060E070E0CB01E3
:101270000F900F900F900F90DF91CF91089563E141
:1012800070E080E090E0D9DFDC01CB010196A11D88
:10129000B11D8093930163E170E080E090E0CDDFC9
:1012A000DC01CB010196A11DB11D809392016AE181
:1012B00070E080E090E0C1DFDC01CB010596A11D6C
:1012C000B11D809391010895CF93DF93CDB7DEB721
:1012D00028970FB6F894DEBF0FBECDBF81B781BF90
:1012E0008AB582608ABD8AB581608ABD83B7887FEE
:1012F000836083BF789489B7826089BF80B7807F1D
:1013000080BF80B7806880BF8CB580648CBD8FEF54
:101310008DBD80B7876080BF86B18877866886B9C3
:10132000379A61E084E04DDF61E081E04ADF62E00E
:1013300080E047DF62E083E044DF62E082E041DF9B
:1013400080E0E7DE892B61F583E0E3DE892B41F560
:1013500004E052E0F52E11E08091A801811134C023
:1013600080E0D7DE892B61F080914A018F7780641D
:10137000806180934A011093A80110928200ECCF03
:1013800083E0C7DE892B41F380914A0180688F7B1F
:10139000806180934A010093A801F0928200DCCF23
:1013A00080E0B7DE892B09F0DAC384E68093A801D8
:1013B00080914A018068806480934A0111E080E056
:1013C000A8DE892B09F4B9C375DE5C0161E081E018
:1013D000C8DEF5D68B0148ECC42ED12CE12CF12CC3
:1013E000EED6601B710B683E734038F031E0C31AD3
:1013F000D108E108F10808511C4FC114D104E104DF
:10140000F10471F757DEA80EB91E60E081E0A9DE95
:10141000B501695F734819F080E090E05FD419BEB0
:1014200081E080BF80E68CBD80E88BBD8AE083BF11
:1014300083E689BD80E189BF81B78E5F81BF8091DE
:101440007900806481BDE1D7AAD75DD895E0492EA7
:10145000512C612C712C23E0C22ED12CE12CF12CCB
:10146000812C912C5401839480914A0187FFB7C04D
:1014700080914C0184FDB3C020919E0130919F0169
:10148000F901F595E795F595E795F093A201E093BD
:10149000A10180917A0090917B00E817F9070CF088
:1014A0009EC080914B0186FF9AC08091A90140E4C3
:1014B00050E0481B5109CA0160E170E09BD3809362
:1014C0009D014091470150914801BA0102C07695B3
:1014D00067958A95E2F760FF1AC048B3A091820031
:1014E000B90115E0759567951A95E1F7CF0165D3B8
:1014F00006E0359527950A95E1F702C09595879501
:101500002A95E2F78A23A0954A23842B88BB8091F1
:1015100045019091460100909D0102C096958795E6
:101520000A94E2F780FF2BC02091A1013091A20123
:1015300080917A0090917B009595879528173907BF
:10154000F4F4C9018056994748B3E0918200BC0188
:10155000A3E075956795AA95E1F72FD30090A301B5
:1015600002C0359527950A94E2F702C095958795B4
:101570002A95E2F78E23E0954E23842B88BB809139
:10158000A6019091A70100909D0102C096958795B4
:101590000A94E2F780FF23C068B3709182008091C3
:1015A0009E0190919F01AC010090A30102C055954E
:1015B00047950A94E2F7452F550F550B4595292F6E
:1015C000332727FD3A95242B352B02C09595879517
:1015D0002A95E2F7872370956723862B88BB6ADDFF
:1015E000E0E7F2E0E81BF90BCF01F7FF05C010922E
:1015F000A4011092A3010AC08935F2E09F0714F0FC
:1016000088E592E09093A4018093A30180914C011E
:1016100083FF09C08091A3019091A4019093AC0134
:101620008093AB0104C01092AC011092AB0126B3C1
:10163000322F317091E0392780914B0130FB83F9D3
:1016400023FB222720F9922790FB84F980934B01FA
:1016500080914A0185FF44C08091A8015ADD21E0B4
:10166000892B09F420E080914A0120FB81F98093C5
:101670004A012223D9F082FD19C0846080934A0177
:10168000809180009091810096958795A0E0B0E0D0
:1016900080937C0090937D00A0937E00B0937F00A8
:1016A00010928100109280002ED91AC020914A0118
:1016B00022FF16C08091800090918100A0E0B0E0F0
:1016C00040917C0050917D0060917E0070917F0080
:1016D000481759076A077B0718F42B7F20934A01A4
:1016E00080914B0187FB992790F983FF0BC09111E3
:1016F00012C090914D01906190934D01806880934C
:101700004B010FC0992339F08F7780934B01809163
:101710004D01806204C080914D018F7E8F7D80934A
:101720004D0190914B0180914C0194FB222720F9AF
:1017300094FF0BC080FD12C030914D013064309396
:101740004D01816080934C010FC080FF07C08E7FE8
:1017500080934C0180914D01806804C080914D01BF
:101760008F7B8F7780934D0180914C0193FF66C0F2
:10177000222309F463C082FD37C0846080934C014A
:10178000809149018F5F8B3008F081E0809349019F
:1017900080914D0181FD02C0B6D60CC065E070E0BD
:1017A00080E090E04ADDDC01CB010596A11DB11D72
:1017B000809383001092AA0180914C011092A201A3
:1017C0001092A101857190914D019E7F90934D01E2
:1017D00080628F7E80934C0180914E018E7F8D7F41
:1017E00080934E011092A00128B330918200E091C5
:1017F000A101F091A201BF010090A30102C0759563
:1018000067950A94E2F7CF01D8D144E0F595E795C2
:101810004A95E1F702C095958795EA95E2F783230B
:1018200030952323822B88BB8091A1019091A20146
:1018300001969093A2018093A10103C08B7F8093B6
:101840004C018091AA01813061F08230B9F480911D
:10185000A3019091A4016AE070E0AFD18858934150
:1018600009C08091A3019091A40165E070E0A5D129
:101870002AE082279093A4018093A30180914C01D8
:1018800083FD04C01092AC011092AB0180914A011B
:1018900083FF11C06091A90170E06F5F7F4F61709D
:1018A000772731E063278091A8015BDC80914A01B2
:1018B000877F80934A0180914901833009F448C0B1
:1018C00030F4813009F47CC0823059F0CDCD8830BD
:1018D00009F46CC08A3009F475C0843009F0C4CDB5
:1018E0006FC080914C0185FF15C080914D018260D1
:1018F00080934D01E5ECF0E011921192119211925A
:1019000041E0E534F407C1F780914C0180648F7D9C
:1019100080934C0180914C01826080934C01209116
:101920004B0124FF06C01092AA01806880934C01ED
:101930009BCD90914D0123FF03C0892F816005C08D
:101940008F7780934C01892F8E7F80934D018CCDB2
:1019500080914C0185FF1BC090914E019460909343
:101960004E0190914D01926090934D0182608F7E67
:101970008F7D80934C011092480110924701109284
:101980004601109245011092A7011092A601909174
:101990004B0180914E0194FF02C08160CBC093FF48
:1019A00002C08260C7C08D7F8E7FC4C080914C0111
:1019B00085FF06C074D480914C018F7D80934C01CB
:1019C000E6D652CD80914C0185FF4ECD80914E01DF
:1019D0008B7F80934E0180914B0185608260809364
:1019E0004B0180914D018860846080934D01E5EC4E
:1019F000F0E0119211921192119251E0E534F50745
:101A0000C1F704E810E0F8011192119260E0E43CA3
:101A1000F607D1F764E070E080E090E00EDCDC01D6
:101A2000CB010196A11DB11D282EE82FF0E0FA830D
:101A3000E983EE0FFF1FFC83EB8318861F82222DA4
:101A400030E03E832D838F8198856D817E81D2D059
:101A5000862F622DC3D044E050E0491B5109CA01D2
:101A600065E070E0C7D0382E35D1A70196013FD18F
:101A7000613071058105910529F42CD1A3019201F2
:101A800036D1362E8091A50190E065E070E095D0CA
:101A9000830D911DFC01ED59FE4F90818091C40092
:101AA000890F64E170E0681B7109CB01B501A401E5
:101AB00004C0440F551F661F771F8A95D2F7F8019F
:101AC00080819181482B592B518340832F81388508
:101AD00049815A81240F351F38872F836B817C8180
:101AE000060F171F203231050CF4ADCFD8D38091EB
:101AF0004C01826080934C01BED487D450D488E8D6
:101B000098E8909348018093470182E292E2909393
:101B100046018093450180E190E09093A701809376
:101B2000A60180914C018F7D80934C0180914E01E4
:101B30008860806180934E0197CC83E0EADA892B3C
:101B400009F03DCC1093A80160E081E03ADB809180
:101B50004A0180628F77806480934A0130CC83E0B1
:101B6000D8DA892B09F030CC84E68093A8018091E3
:101B70004A018068806480934A0114E083E0C9DAF6
:101B8000892B09F021CC80E0C4DA892BB9F71093B6
:101B9000A80160E084E015DB80914A0180628F7BC0
:101BA000806880934A01EACF002480FD060E660F0C
:101BB00011F08695D1F7802D08950024552704C093
:101BC000080E591F880F991F009729F07695679581
:101BD000B8F37105B9F7802D952F0895991B79E019
:101BE00004C0991F961708F0961B881F7A95C9F7AD
:101BF0008095089597FB072E16F4009406D077FD84
:101C000008D00BD007FC05D03EF4909581959F4FEE
:101C10000895709561957F4F0895AA1BBB1B51E1F4
:101C200007C0AA1FBB1FA617B70710F0A61BB70B4C
:101C3000881F991F5A95A9F780959095BC01CD01F1
:101C40000895EE0FFF1F0590F491E02D0994A0E098
:101C5000B0E0ECE2FEE08AC0EC01688179818A8123
:101C60009B81611571058105910521F464E279ED8F
:101C70008BE597E02DE133EF41E050E038D04901AA
:101C80005A0127EA31E440E050E04DD069017A0181
:101C9000C501B4012CEE34EF4FEF5FEF44D0022FBB
:101CA000132F9A01D701C601800F911FA21FB31FE6
:101CB000B7FF03C00197A109B04888839983AA831D
:101CC000BB83BC01CD019F77CDB7DEB7ECE06AC026
:101CD000BEDF08958FE491E0BADF089560934F016D
:101CE0007093500180935101909352010895052EF5
:101CF00097FB16F400940FD057FD05D068D007FC71
:101D000002D046F408C050954095309521953F4F3C
:101D10004F4F5F4F089590958095709561957F4FD7
:101D20008F4F9F4F089568940013E894A0E0B0E0AF
:101D3000EBE9FEE01DC0EFEFE7F959016A015E2310
:101D4000550FEE08FE2C87019B01AC019E23990FD5
:101D5000660B762FCB015DD0CDB7DEB7EAE024C0AD
:101D60002F923F924F925F926F927F928F929F92AB
:101D7000AF92BF92CF92DF92EF92FF920F931F9399
:101D8000CF93DF93CDB7DEB7CA1BDB0B0FB6F8944A
:101D9000DEBF0FBECDBF09942A88398848885F848A
:101DA0006E847D848C849B84AA84B984C884DF80FB
:101DB000EE80FD800C811B81AA81B981CE0FD11DDF
:101DC0000FB6F894DEBF0FBECDBFED010895A1E2BE
:101DD0001A2EAA1BBB1BFD010DC0AA1FBB1FEE1FA5
:101DE000FF1FA217B307E407F50720F0A21BB30BF0
:101DF000E40BF50B661F771F881F991F1A9469F76C
:101E000060957095809590959B01AC01BD01CF01C7
:101E10000895DF93CF939F92A0E49A2E0024D001DF
:101E2000E001F00116950795F794E794D794C794CD
:101E3000B794A79448F41068A20FB31FC41FD51F0E
:101E4000E61FF71F081E191E220F331F441F551FC0
:101E5000661F771F881F991F9A9421F79D01AE0175
:101E6000BF01C00111249F90CF91DF910895F89494
:021E7000FFCFA2
:101E72000101010002060707060707080703070713
:101E820002070707010404040304F401010000002F
:101E92000A0002060800000000000800000000001E
:101EA2000800000000000000000000000000000028
:101EB200000000000001000000000000000100001E
:101EC200000000010000000000010000000000010D
:101ED200000000000C000000800000004000000034
:101EE20020000000100000000800000004000000B4
:101EF20002000000010000800000004000000020FD
:101F020000000010000000080000000400000002B1
:101F120000000001000080000000400000002000DE
:101F22000000100000000800000004000000020091
:101F320000000100008000000040000000200000BE
:101F42000010000000080000000400000002000071
:101F52000001000000FFFF80800AC44720087801CA
:101F6200000000050505050505050505050505052E
:101F72000505050003070A0C0004070B0C00020507
:041F8200070920002B
:0200000002C03C
:00000001FF