:1000000053C077C076C075C074C03EC172C071C0A5
:1000100070C06FC0D6C76DC0AEC76BC06AC060CCC1
:10002000E9CB21CC5DCCAEC94FCC4ECC4FCC5ACC19
:1000300096CCA902D102FC0229035A038D03C30303
:10004000FC0338047904BD04060552059505F9053D
:100050005406B4061A078607F9077208F3087B09E5
:100060000B0AA40A460BF20BA80C680D340E0A0FFB
:10007000F00F0003070A0C0004070B0C0002050731
:1000800009000000003700000000003800000000F8
:1000900000360002020202020201020408102001DE
:1000A000020000040000C70811241FBECFE5D2E003
:1000B000DEBFCDBF21E0A6E7B1E001C01D92AF3A9F
:1000C000B207E1F711E0A0E6B0E0ECECFEE102C01F
:1000D00005900D92A637B107D9F710E0C4E5D0E03E
:1000E00003C02197FE01DADDC335D107D1F774D8FB
:1000F000EBCE86CF6CE370E0AADD80914C0186FFE9
:1001000002C0665F7F4FFB01EE58FF4FE491F0E0C5
:10011000EE0FFF1FEE5CFF4F8591949108958130A3
:1001200031F48AB58F778ABD8AB58F7B07C082305C
:1001300039F48AB58F7D8ABD8AB58F7E8ABD0895D0
:10014000833039F480B78F7D80BF80B78F7E80BFCA
:100150000895843031F48CB58F7D8CBD8CB58F7E45
:100160008CBD08951F93CF93DF93282F30E0F901C2
:10017000E156FF4F8491F901E756FF4FD491F90101
:10018000ED56FF4FC491CC23C9F0162F8111C7DF64
:10019000EC2FF0E0EE0FFF1FE957FF4FA591B49150
:1001A0008FB7111106C0F8949C91ED2FE095E923CB
:1001B00003C0F894EC91ED2BEC938FBFDF91CF91BE
:1001C0001F910895CF93DF9390E0FC01E756FF4F16
:1001D0002491FC01ED56FF4F8491882361F190E05A
:1001E000880F991FFC01EF57FF4FC591D491FC0177
:1001F000E957FF4FA591B491611109C09FB7F894D9
:100200008881209582238883EC912E230BC0623055
:1002100061F49FB7F8943881822F80958323888377
:10022000EC912E2B2C939FBF06C08FB7F894E881DA
:100230002E2B28838FBFDF91CF9108953FB7F8947D
:100240008091990190919A01A0919B01B0919C019C
:1002500022B708B601FE05C02F3F19F00196A11D77
:10026000B11D3FBFBA2FA92F982F8827820F911D4C
:10027000A11DB11DBC01CD0143E0660F771F881F92
:10028000991F4A95D1F708951F920F920FB60F92BA
:1002900011242F933F938F939F93AF93BF9380919C
:1002A000950190919601A0919701B091980130919C
:1002B000940126E0230F2D3730F029E8230F039611
:1002C000A11DB11D03C00296A11DB11D2093940173
:1002D0008093950190939601A0939701B093980114
:1002E0008091990190919A01A0919B01B0919C01FC
:1002F0000196A11DB11D8093990190939A01A0933D
:100300009B01B0939C01BF91AF919F918F913F91C1
:100310002F910F900FBE0F901F90189580914D0157
:10032000877F80934D0180914F0183FF05C08091AD
:10033000A6019091A701DEDE80914F0181FF06C0EA
:100340008091A6019091A7010A96D4CE0895CF92EC
:10035000DF92EF92FF92CF93DF936AE070E080E04C
:1003600090E0F3D6C0E0D0E0C12CD12C7601C3944C
:1003700065E070E080E090E0E8D6FE01EE0FFF1F40
:10038000EE0FFF1FE653FF4F20919101DC01CB01DF
:10039000820F911DA11DB11DDC01AB59BE4F9C9177
:1003A00080918900890FB701A60104C0440F551F31
:1003B000661F771F8A95D2F780819181A281B381D0
:1003C000842B952BA62BB72B80839183A283B38399
:1003D00066E070E080E090E0B8D6C60FD71FC0326C
:1003E000D10534F2DF91CF91FF90EF90DF90CF9065
:1003F0000895CF92DF92EF92FF92CF93DF93109206
:10040000A2011092A101CFE0D0E0C12CD12C760145
:10041000C39464E070E080E090E097D6672B682B8F
:10042000692BA1F42091A1013091A201D701C6014D
:100430000C2E04C0880F991FAA1FBB1F0A94D2F765
:10044000822B932B9093A2018093A101219708F70F
:10045000DF91CF91FF90EF90DF90CF900895CF92F2
:10046000DF92EF92FF92CF93DF931092840010926D
:100470008300CFE0D0E0C12CD12C7601C39464E09E
:1004800070E080E090E061D6672B682B692BA1F4C7
:100490002091830030918400D701C6010C2E04C046
:1004A000880F991FAA1FBB1F0A94D2F7822B932B88
:1004B0009093840080938300219708F7DF91CF9178
:1004C000FF90EF90DF90CF9008958F929F92AF9220
:1004D000BF92CF92DF92EF92FF92CF93DF93109271
:1004E000860010928500CFE0D0E085E0C82ED12CA8
:1004F000E12CF12C812C912C54018394CE0183703A
:100500009927892BE9F413DCA70196011DDC6430DF
:10051000710581059105A1F020918500309186003B
:10052000D501C4010C2E04C0880F991FAA1FBB1F40
:100530000A94D2F7822B932B9093860080938500A8
:100540002197E0F6DF91CF91FF90EF90DF90CF9071
:10055000BF90AF909F908F9008954F925F926F924F
:100560007F928F929F92AF92BF92CF92DF92EF9243
:10057000FF920F931F93CF93DF9363E170E080E0CE
:1005800090E0E3D5DC01CB010196A11DB11D809364
:10059000A50163E170E080E090E0D7D5DC01CB01FC
:1005A0000196A11DB11D809393016AE170E080E086
:1005B00090E0CBD5DC01CB010596A11DB11D809348
:1005C000920162EC71E080E090E0BFD5DC01CB01EC
:1005D000C296A11DB11D90937B0080937A006CE0C0
:1005E00070E080E090E0B1D5609389006CE070E04D
:1005F00080E090E0AAD56093870066E070E080E03C
:1006000090E0A3D5DC01CB010196A11DB11D809323
:10061000780063E070E080E090E097D5862F6AE094
:10062000F0DA8093910181E08093880062E070E0CD
:1006300080E090E08AD5F62EFF0C05E610E0C0E0E1
:10064000D0E0209759F464E070E080E090E07DD540
:10065000DC01CB010496A11DB11D0AC062E070E06F
:1006600080E090E072D5DC01CB010696A11DB11DA2
:10067000682F6F19F801608321960F5F1F4FC031FB
:10068000D105F9F66EE070E080E090E05ED5DC0127
:10069000CB010797A109B109909377008093760069
:1006A00056DE13DFDCDEA5DEC12CD12C760180E125
:1006B000882E912CA12CB12C412C512C3201439429
:1006C00036DBA501940140DBC616D706E806F9061D
:1006D000C4F42DDBA501940137DBD301C20104C0B2
:1006E000880F991FAA1FBB1F6A95D2F7209190010E
:1006F000822B80939001FFEFCF1ADF0AEF0AFF0AE7
:10070000DFCF64E070E080E090E01FD5DC01CB013A
:100710000296A11DB11D8093750063E070E080E03A
:1007200090E013D56093A80162E070E080E090E073
:100730000CD521E0672B682B692B09F420E0809110
:100740004B0120FB80F980934B01DF91CF911F91EA
:100750000F91FF90EF90DF90CF90BF90AF909F9060
:100760008F907F906F905F904F9008959C01862F9F
:10077000A901330F660B770B813001F18230B1F59F
:10078000DB01CA010090930104C0B595A795979528
:1007900087950A94D2F70090A50104C075956795D6
:1007A000579547950A94D2F7842B622F2ADA982F0F
:1007B0008091920163E025DA892319C0DB01CA0127
:1007C0000090930104C0B595A795979587950A94D5
:1007D000D2F70090A50104C0759567955795479588
:1007E0000A94D2F7842B622F0CDA01C080E028B380
:1007F00090918200892390959223892B88BB08953C
:1008000080914D0187FF04C088608F7780934D01F0
:1008100080914C0185FF14C084E080938800609132
:1008200087008091A3019091A401A0DF8091A30192
:100830009091A40101969093A4018093A30108953F
:100840001092AB0186FF0EC08091A6019091A70186
:10085000880F892F881F990B8093640081E0809313
:10086000A001089580914D018F7D80934D0187E017
:10087000809388001092A00180914F0182FF13C0E5
:1008800092E09093640087FD03C01FDEE8DDB1DDD8
:1008900080914D0186FB222720F991E0922790FB61
:1008A00086F980934D0180914F0184FF17C080919C
:1008B0008F018F5F80938F0163E0BDD980915001DC
:1008C000911103C08160826007C0913019F4826089
:1008D0008E7F02C08D7F81608093500108952F929A
:1008E0003F924F925F926F927F928F929F92AF92C0
:1008F000BF92CF92DF92EF92FF920F931F93CF930D
:10090000DF93CDB7DEB72D970FB6F894DEBF0FBEDD
:10091000CDBF80914B0185FF03C0806180934B0167
:1009200080914D0183FF0EC320914E0122FF3BC0F9
:100930004091A6015091A70188E592E0841B950B98
:100940006AE070E084D96032710514F06FE170E004
:100950008091AA018F7090E0880F991F880F991FCE
:10096000FC01E653FF4F77FF02C060E070E0C12C4E
:10097000D12C7601C39404C0CC0CDD1CEE1CFF1CF2
:100980006A95D2F7DC01A653BF4F4D915D916D91F1
:100990007C91D701C601842B952BA62BB72B808386
:1009A0009183A283B38323FF0DC0E091AA01F0E0FD
:1009B000EE0FFF1FEE0FFF1FE653FF4F1082118255
:1009C0001282138240914F0145FF55C080919D01D5
:1009D00090E0019760E170E03AD96091A6017091D2
:1009E000A7019C0133276C3251E07507B4F481E014
:1009F00090E0A0E0B0E004C0880F991FAA1FBB1FC1
:100A00002A95D2F72091850030918600822B932B76
:100A100090938600809385002EC060397140B4F4B5
:100A200081E090E0A0E0B0E004C0880F991FAA1F09
:100A3000BB1F2A95D2F72091A1013091A201822BF0
:100A4000932B9093A2018093A10115C081E090E0C7
:100A5000A0E0B0E004C0880F991FAA1FBB1F2A9511
:100A6000D2F72091830030918400822B932B9093B6
:100A700084008093830046FF33C080919D0190E005
:100A8000019760E170E0E3D8282F81E090E0A0E0DA
:100A9000B0E004C0880F991FAA1FBB1F2A95D2F788
:100AA00080959095209185003091860028233923E8
:100AB000309386002093850020918300309184003C
:100AC0002823392330938400209383002091A101AF
:100AD0003091A201822393239093A2018093A101DC
:100AE00080914B0180FF09C08091AA01809590916F
:100AF0004C0180FB97F990934C0180914C0187FB4E
:100B0000882780F98D5F80937900806481BD789417
:100B100081B5806481BD809150012090AA01298215
:100B200081FD0BC0809150014090620050906300A5
:100B30005D824C8280FDB5C028C18091A9018430BE
:100B400089F3E981EF71F0E0EE0FFF1FEE0FFF1F59
:100B5000E653FF4F80809180A280B3802091760081
:100B6000309177003B832A8340916200509163006B
:100B70005D834C8360907500712C80914C0186954B
:100B800081708D8749814F70842F90E02091900172
:100B900030E002C0359527954A95E2F7217033275A
:100BA00041E050E01A0102C0220C331C2A95E2F702
:100BB0003F822E82309088003C8640918E0120E05A
:100BC00030E0BC016B597F4F79876887DC01AB5AF5
:100BD000BE4FBB87AA87C12CD12C7601C39403E0FA
:100BE00010E0D501C401022E04C0B695A7959795D3
:100BF00087950A94D2F780FF48C08C819D81B3010C
:100C000026D8BC018A819B8105D86D8570E002D809
:100C1000EFE1F0E0E21BF30BE81BF90BE132F10529
:100C200014F03C9702C0F7FD3C96842F90E0EE0F45
:100C3000FF1FEE5CFF4F65917491AC01440F551F8F
:100C4000FA01EA57FE4F0E8002C0769567950A9426
:100C5000E2F771836083E885F985F081FC87DA012A
:100C6000A258BE4FEA85FB8560816A5F16012701A5
:100C700004C0220C331C441C551C6A95D2F72D92DB
:100C80003C920196B801E3D7482F2F5F3F4F2032A7
:100C9000310509F0A6CF40938E013C843092880044
:100CA00041CF8091A901843009F46FC0E981EF71CF
:100CB000F0E0EE0FFF1FE657FF4F4080518060903D
:100CC000760070907700E0907500F12C29812F70EC
:100CD00030E080918E0100E010E0B0E22B2E312C4C
:100CE000A9014B5A5E4F5B834A8392E0892E912C77
:100CF000A12CB12C23E0C22ED12CA201002E02C0C7
:100D0000569547950A94E2F740FF37C0282F30E008
:100D10008C819D81B7019BD7BC01C3017BD7F101B9
:100D2000E01BF10BE81BF90BEE0FFF1FE85EFF4F16
:100D300045915491C901880F991FFC01EA57FE4F54
:100D400073E0569547957A95E1F751834083FC010E
:100D5000E258FE4FAA81BB814C914A5FD501C40184
:100D600004C0880F991FAA1FBB1F4A95D2F7918311
:100D70008083C9010196B6016AD70F5F1F4F003209
:100D8000110509F0BACF80938E0189818F5F80931E
:100D9000AA018032B8F08C819D8101969093630006
:100DA00080936200029744F080914C0183FD57DBF1
:100DB00080914C0184FD1DDB1092A4011092A301CF
:100DC0001092AA01809162009091630004970CF444
:100DD00096C0109263001092620080914E0180FDD7
:100DE0007DC087FF7BC0A3D72BE030E040E050E020
:100DF000ABD720919101DC01CB01820F911DA11D88
:100E0000B11DFC01EB59FE4F81E090E0A0E0B0E0A5
:100E10006C017D01008004C0CC0CDD1CEE1CFF1CAD
:100E20000A94D2F76FE170E080E090E08ED1660F17
:100E3000771F660F771FFB01E653FF4F008111817B
:100E400022813381D701C601802B912BA22BB32B9A
:100E500080839183A283B38360E270E080E090E0BE
:100E600074D170E0660F771F660F771FFB01E653A2
:100E7000FF4FC080D180E280F38080E090E0970156
:100E80008601082E04C036952795179507950A9474
:100E9000D2F700FF1FC0FB01E653FF4F01E010E057
:100EA00020E030E01801290104C0220C331C441C4E
:100EB000551C8A95D2F7D201C10180959095A095D5
:100EC000B0958C219D21AE21BF2180839183A28387
:100ED000B38304C001968032910589F68091610048
:100EE0008F5F8093610080915001982F909590FBC7
:100EF00080F98093500180914C0182FDE6DA809167
:100F00006100833098F010926100809160008F5FE3
:100F100080936000853018F020DB10926000809193
:100F20004E0181FD03C0D1DA9ADA63DA81E090E004
:100F30009093A4018093A30184E090E090939F019B
:100F400080939E012D960FB6F894DEBF0FBECDBFE5
:100F5000DF91CF911F910F91FF90EF90DF90CF9095
:100F6000BF90AF909F908F907F906F905F904F90C9
:100F70003F902F9008951F920F920FB60F92112459
:100F80002F933F934F935F936F937F938F939F9391
:100F9000AF93BF93EF93FF9380914B0186FF9FDC4C
:100FA000FF91EF91BF91AF919F918F917F916F9141
:100FB0005F914F913F912F910F900FBE0F901F9017
:100FC00018951F920F920FB60F921124BF92CF92D5
:100FD000DF92EF92FF920F931F932F933F934F93C4
:100FE0005F936F937F938F939F93AF93BF93CF93B1
:100FF000DF93EF93FF9380914B0187FF46C04091B1
:1010000064006091A00170E020918800C6E8D1E002
:10101000E6E7F1E0AEE7B1E0B12C09911991042EB9
:1010200002C0000F111F0A94E2F780819181080F1E
:10103000191F01931193CD90DC901197C601860F73
:10104000971FEE24E394F12CCD2811F4E12CF12C20
:101050008E199F098D939D93012F110F110B000F76
:10106000012F001F110B102F1170B10E022E02C0A4
:10107000969587950A94E2F78027B80E81E0EE37BF
:10108000F80759F680E88B0D8BBD80919E019091F9
:101090009F01019690939F0180939E018091800013
:1010A0009091810001969093810080938000FF9140
:1010B000EF91DF91CF91BF91AF919F918F917F91F0
:1010C0006F915F914F913F912F911F910F91FF90E1
:1010D000EF90DF90CF90BF900F900FBE0F901F90BA
:1010E000189581E087B987B187B9369A3699FECFCE
:1010F00084B125B190E0922B0895CF93DF93282FF0
:1011000030E0F901E156FF4F8491F901E756FF4FB6
:10111000D491F901ED56FF4FC491CC2389F0811190
:10112000FED7EC2FF0E0EE0FFF1FE357FF4FA59126
:10113000B491EC91ED2381E090E021F480E002C0D5
:1011400080E090E0DF91CF910895CF93DF9300D0BE
:1011500000D0CDB7DEB7611571058105910569F045
:101160009B01AC0169833A834B835C83E0D5298181
:101170003A814B815C81E8D503C060E070E0CB012F
:101180000F900F900F900F90DF91CF91089563E132
:1011900070E080E090E0D9DFDC01CB010196A11D79
:1011A000B11D8093A50163E170E080E090E0CDDFA8
:1011B000DC01CB010196A11DB11D809393016AE171
:1011C00070E080E090E0C1DFDC01CB010596A11D5D
:1011D000B11D809392010895CF93DF93CDB7DEB711
:1011E0002C970FB6F894DEBF0FBECDBF81B781BF7D
:1011F0008AB582608ABD8AB581608ABD83B7887FDF
:10120000836083BF789489B7826089BF80B7807F0D
:1012100080BF80B7806880BF8CB580648CBD8FEF45
:101220008DBD80B7876080BF86B18877866886B9B4
:10123000379A61E084E0C6D761E081E0C3D762E01D
:1012400080E0C0D762E083E0BDD762E082E0BAD739
:1012500080E053DF892BA1F583E04FDF892B81F5F7
:1012600004E042E0F42E11E08091A901811140C018
:1012700080E043DF892B81F080914C018E7F809349
:101280004C0180914B018068806280934B011093E8
:10129000A90110928200E8CF83E02FDF892B21F390
:1012A00080914C01816080934C0180914B018F773C
:1012B000806280934B010093A901F0928200D4CF09
:1012C00080E01BDF892B09F06FC484E68093A901BD
:1012D00080914C01816080934C0180914B0180682A
:1012E00080934B0111E080E008DF892B09F446C4AC
:1012F000F8DE5C0161E081E035D7A0D78B0138ECE6
:10130000C32ED12CE12CF12C99D7601B710B683EB8
:10131000734038F031E0C31AD108E108F1080851F0
:101320001C4FC114D104E104F10471F7DADEA80EF8
:10133000B91E60E081E016D7B501695F734819F006
:1013400080E090E0F8D419BE81E080BF80E68CBDDB
:1013500080E88BBD8AE083BF83E689BD80E189BFD9
:1013600081B78E5F81BF80917900806481BD77D81D
:1013700040D8F3D877247394812C912C5401839412
:1013800027E0622E80914C0180FFB6C040914D0154
:1013900046FDB2C020919E0130919F01F901F59563
:1013A000E795F595E795F093A401E093A30180916B
:1013B0007A0090917B00E817F9070CF09DC040FF80
:1013C0009BC08091AA0140E450E0481B5109CA012A
:1013D00060E170E03CD480939D0140918500509184
:1013E0008600BA0102C0769567958A95E2F760FF9C
:1013F0001AC048B3A0918200B90115E075956795B0
:101400001A95E1F7CF0106D406E0359527950A95A0
:10141000E1F702C0959587952A95E2F78A23A09572
:101420004A23482B48BB8091830090918400009010
:101430009D0102C0969587950A94E2F780FF2BC024
:101440002091A3013091A40180917A0090917B00BA
:101450009595879528173907F4F4C901805699475F
:1014600048B3E0918200BC01A3E075956795AA9509
:10147000E1F7D0D30090A60102C0359527950A94D4
:10148000E2F702C0959587952A95E2F78E23E095BD
:101490004E23482B48BB8091A1019091A20100905E
:1014A0009D0102C0969587950A94E2F780FF24C0BB
:1014B00068B37091820080919E0190919F01AC0170
:1014C0000090A60102C0559547950A94E2F7452F72
:1014D000550F550B4595292F332727FD3A95242B7A
:1014E000352B02C0959587952A95E2F78723972F8C
:1014F00090959623892B88BBF4DDA0E7B2E0A81B6A
:10150000B90BCD01B7FF05C01092A7011092A6013B
:101510000FC08935B2E09B072CF49093A70180930C
:10152000A60106C0E8E5F2E0F093A701E093A6016A
:1015300080914D0185FF09C08091A6019091A7017E
:101540009093AE018093AD0104C01092AE01109251
:10155000AD0186B3282F2170272590914C0120FBE7
:1015600095F983FB882780F9872580FB96F990936E
:101570004C0180914B0186FF45C08091A901BDDDE2
:1015800021E0892B09F420E080914B0120FB81F9B7
:1015900080934B012223D1F083FD18C08860809393
:1015A0004B01809180009091810096958795A0E0F5
:1015B000B0E080937C0090937D00A0937E00B09378
:1015C0007F0010928100109280001BC080914B011F
:1015D00083FF18C0409180005091810060E070E06E
:1015E00000917C0010917D0020917E0030917F0061
:1015F000041715072607370728F4877F80934B01C8
:1016000082FD6DD990914C0180914D0195FF0BC0E9
:1016100081FD12C020914F01226020934F01826012
:1016200080934D010FC081FF07C08D7F80934D01D6
:1016300080914F01846004C080914F018D7F8B7F2A
:1016400080934F0180914D0196FB332730F996FF2F
:101650000BC082FD12C020914F01286020934F01E2
:10166000846080934D010FC082FF07C08B7F809301
:101670004D0180914F01806104C080914F01877FAF
:101680008F7E80934F0180914D0195FF69C0332378
:1016900009F466C084FD3AC0806180934D01809159
:1016A0004A018F5F8B3018F480934A0102C0709218
:1016B0004A0180914E0185FD02C04FD70CC065E004
:1016C00070E080E090E041DDDC01CB010596A11DDA
:1016D000B11D809388001092AB0180914D01109252
:1016E000A4011092A301877D90914E019A7F977F6C
:1016F00090934E0180688F7B80934D0180914F01C4
:101700008F7D8F7B80934F011092A00148B3E091B1
:1017100082002091A3013091A401B9010090A6019B
:1017200002C0759567950A94E2F7C90173D254E037
:10173000359527955A95E1F702C0959587952A9595
:10174000E2F78E23E0954E23482B48BB8091A301FE
:101750009091A40101969093A4018093A30103C0EA
:101760008F7E80934D018091AB01813061F082309A
:10177000B9F48091A6019091A7016AE070E04AD285
:101780008858934109C08091A6019091A70165E016
:1017900070E040D2FAE08F279093A7018093A601D2
:1017A00080914D0185FD04C01092AE011092AD01F3
:1017B00080914B0184FF11C06091AA0170E06F5FBE
:1017C0007F4F6170772721E062278091A901CAD4F9
:1017D00080914B018F7E80934B01E0914A018E2FC7
:1017E00090E0FC013197EA30F10508F0CBCDE15FE4
:1017F000FF4F099480914D0187FF19C080914E01E0
:10180000806280934E01EAECF0E011921192119205
:10181000119231E0EA34F307C1F780914E01816003
:1018200080934E0180914D018F7780934D0180917F
:101830004D01886080934D0180914C0186FF06C068
:101840001092AB0180914E01846005C085FF06C0F7
:1018500080914E01886080934E0194CD80914E011D
:101860008B7F877FF8CF80914D0187FF1CC09091BF
:101870004F01906890934F0190914E019062926059
:1018800090934E0188608F7B8F7780934D011092EB
:1018900086001092850010928400109283001092AE
:1018A000A2011092A10190914C0180914F0196FFED
:1018B00002C0806203C095FF04C0806480934F0122
:1018C00061CD8F7B8F7DFACF29D55CCD80914D0185
:1018D00087FF06C03CD580914D018F7780934D01E5
:1018E0008FD750CD80914D01877F80934D0190918E
:1018F0004C0196FF1AC01092AB018091A601909105
:10190000A7016AE070E0A3D16093A5010091A30153
:101910001091A40160918700C80128D70F5F1F4F65
:101920001093A4010093A3012DCD95FF08C07092E0
:10193000AB01806280934D016092880023CD0DD66B
:1019400062E070E080E090E000DC6093AB0164E076
:1019500070E080E090E0F9DB6093AC0113CD809102
:101960004D0187FF0FCD80914F0190914C01946103
:10197000986090934C018F77816080934F018091A4
:101980004E01806880934E014AEC50E05E834D83A7
:10199000FA01119211921192119251E0EA34F50775
:1019A000C1F79AE8492E90E0592EF2011192119256
:1019B00060E0EA3CF607D1F768E070E080E090E094
:1019C000C4DBE62E68E070E080E090E0BEDBC62E6F
:1019D0000091890010E08091A80190E065E070E03E
:1019E00019D120E030E0D12CF12CFC01EB59FE4F55
:1019F0001F017FEF271A370AAF014E5F5F4F5A83EF
:101A00004983AD81BE811D921D921D921C92139738
:101A1000C9018C0D9D1DB7011AD1892B79F12F5F5A
:101A20003F4F4D815E814C5F5F4F5E834D8320321F
:101A3000310539F767E070E080E090E086DB9B01DC
:101A4000AC012E5F3F4F4F4F5F4F29833A834B834B
:101A50005C8320908900312C8091A80190E065E0A2
:101A600070E0D8D06C01022F10E07801EE0CFF1C62
:101A7000E0E0F0E04981242F30E041C0D1018C91B9
:101A8000A801480F511DCA01B501A40104C0440FAB
:101A9000551F661F771F8A95D2F78081D801A80F3E
:101AA000B11DB887AF83D501C4010F8004C0880F72
:101AB000991FAA1FBB1F0A94D2F7482B592B6A2BD8
:101AC0007B2BA981BA818C91D801A80FB11DB88751
:101AD000AF83D501C4010F8004C0880F991FAA1FCE
:101AE000BB1F0A94D2F7482B592B6A2B7B2BAD8155
:101AF000BE814D935D936D937C93139790CFCF01EF
:101B0000B901A5D08E0F9F1F6EEF7FEF83D08C0D94
:101B10009D1DDC01AB59BE4F8C91B101680F711D49
:101B2000CB01B501A40104C0440F551F661F771FE8
:101B30008A95D2F7D2018D919C911197842B952B88
:101B40008D939C93E00FF11F4E0C5F1CE032F1056A
:101B5000B4F2FDD380914D01886080934D01B5D4DE
:101B60007ED447D480914D018F7780934D01809131
:101B70005001816082608093500104CC83E0BDDA23
:101B8000892B09F0B0CB1093A90160E081E01AD352
:101B900080914B0190914C019E7F90934C01806409
:101BA000806880934B019FCB83E0A7DA892B09F0F3
:101BB0009FCB84E68093A90180914C018160809342
:101BC0004C0180914B01806880934B0114E083E0CD
:101BD00094DA892B09F08CCB80E08FDA892BB9F766
:101BE0001093A90160E084E0EDD280914B01806404
:101BF0008F7780934B0180914C01816080934C01E1
:101C0000E6CF002480FD060E660F11F08695D1F711
:101C1000802D08950024552704C0080E591F880FF1
:101C2000991F009729F076956795B8F37105B9F774
:101C3000802D952F0895991B79E004C0991F961760
:101C400008F0961B881F7A95C9F78095089597FB31
:101C5000072E16F4009406D077FD08D00BD007FCB1
:101C600005D03EF4909581959F4F089570956195AC
:101C70007F4F0895AA1BBB1B51E107C0AA1FBB1FC2
:101C8000A617B70710F0A61BB70B881F991F5A9508
:101C9000A9F780959095BC01CD010895EE0FFF1F27
:101CA0000590F491E02D0994A0E0B0E0E9E5FEE0B4
:101CB0008AC0EC01688179818A819B8161157105F7
:101CC0008105910521F464E279ED8BE597E02DE142
:101CD00033EF41E050E038D049015A0127EA31E4BE
:101CE00040E050E04DD069017A01C501B4012CEE0D
:101CF00034EF4FEF5FEF44D0022F132F9A01D7013B
:101D0000C601800F911FA21FB31FB7FF03C0019729
:101D1000A109B04888839983AA83BB83BC01CD0104
:101D20009F77CDB7DEB7ECE06AC0BEDF089581E5EE
:101D300091E0BADF0895609351017093520180934E
:101D40005301909354010895052E97FB16F40094C7
:101D50000FD057FD05D068D007FC02D046F408C06C
:101D600050954095309521953F4F4F4F5F4F0895C7
:101D700090958095709561957F4F8F4F9F4F0895F7
:101D800068940013E894A0E0B0E0E8ECFEE01DC029
:101D9000EFEFE7F959016A015E23550FEE08FE2CBB
:101DA00087019B01AC019E23990F660B762FCB0117
:101DB0005DD0CDB7DEB7EAE024C02F923F924F92BC
:101DC0005F926F927F928F929F92AF92BF92CF92CB
:101DD000DF92EF92FF920F931F93CF93DF93CDB7D4
:101DE000DEB7CA1BDB0B0FB6F894DEBF0FBECDBF4C
:101DF00009942A88398848885F846E847D848C841D
:101E00009B84AA84B984C884DF80EE80FD800C8125
:101E10001B81AA81B981CE0FD11D0FB6F894DEBF08
:101E20000FBECDBFED010895A1E21A2EAA1BBB1B68
:101E3000FD010DC0AA1FBB1FEE1FFF1FA217B30796
:101E4000E407F50720F0A21BB30BE40BF50B661FAC
:101E5000771F881F991F1A9469F760957095809570
:101E600090959B01AC01BD01CF010895DF93CF9305
:101E70009F92A0E49A2E0024D001E001F001169573
:101E80000795F794E794D794C794B794A79448F428
:101E90001068A20FB31FC41FD51FE61FF71F081E2F
:101EA000191E220F331F441F551F661F771F881FDF
:101EB000991F9A9421F79D01AE01BF01C001112421
:0C1EC0009F90CF91DF910895F894FFCF20
:101ECC0001010100020607070607070807030707B9
:101EDC0002070707010402000404F40101000000DA
:101EEC000A0002FFFF808004060C080000000000BE
:101EFC0008000000000008000000000000000000C6
:101F0C0000000000000000000000000100000000C4
:101F1C0000000001000000000001000000000001B2
:101F2C000000000000010000000000000080000024
:101F3C00004000000020000000100000000800001D
:101F4C0000040000000200000001000080000000FE
:101F5C0040000000200000001000000008000000FD
:101F6C00040000000200000001000080000000409E
:101F7C000000002000000010000000080000000419
:101F8C000000000200000001000080000000400082
:101F9C0000002000000010000000080000000400F9
:101FAC00000002000000010000000A8C1F810001EB
:101FBC0003010000000505050505050505050505DA
:101FCC0005050505050003070A0C0004070B0C00AA
:061FDC00020507092000C8
:0200000002C03C
:00000001FF