:1000000041C065C064C063C062C0B5C960C05FC0A4
:100010005EC05DC0B1C85BC064C859C058C00000B4
:10002000000037000000000038000000000036002B
:100030000202020202020102040810200102000072
:100040000400A902D102FC0229035A038D03C30351
:10005000FC0338047904BD04060552059505F9052D
:100060005406B4061A078607F9077208F3087B09D5
:100070000B0AA40A460BF20BA80C680D340E0A0FEB
:10008000F00F270A11241FBECFE5D2E0DEBFCDBF9F
:1000900021E0A6E5B1E001C01D92A539B207E1F764
:1000A00011E0A0E6B0E0E2E9FEE102C005900D92A9
:1000B000A635B107D9F710E0C2E4D0E003C021971C
:1000C000FE01CFDDC134D107D1F7E6D9E0CE98CF1C
:1000D000E4E6F0E01192119280E0E43AF807D1F7FB
:1000E0000895813031F48AB58F778ABD8AB58F7BC8
:1000F00007C0823039F48AB58F7D8ABD8AB58F7E7C
:100100008ABD0895833039F480B78F7D80BF80B772
:100110008F7E80BF0895843031F48CB58F7D8CBD87
:100120008CB58F7E8CBD0895CF93DF9390E0FC015A
:10013000EA5CFF4F2491FC01E05DFF4F849188232E
:1001400061F190E0880F991FFC01E25EFF4FC591BD
:10015000D491FC01EC5DFF4FA591B491611109C0F0
:100160009FB7F8948881209582238883EC912E2371
:100170000BC0623061F49FB7F8943881822F80956C
:1001800083238883EC912E2B2C939FBF06C08FB7BF
:10019000F894E8812E2B28838FBFDF91CF910895AB
:1001A000789421B5206421BD2091710130E0F901DE
:1001B000EE0FFF1FDF01A759BE4F02C0959587952F
:1001C0006A95E2F78D939C93EF59FE4F4F5F5F4F17
:1001D000440F440F10824183C901019663E070E02F
:1001E00019DD80937101089580913E0187FF3AC027
:1001F00080913F0183FD0BC0E5EAF0E0119211927E
:100200001192119281E0E532F807C1F761DF109297
:10021000350120913E018091400190913F0199600C
:1002200030913D013861346030933D019F7D906194
:1002300090933F018F7E8064806280934001109292
:100240003701109236011092800110927F0181E1F6
:1002500091E19093390180933801822F8F798F77C4
:1002600080933E0180913E01886080933E018091A1
:100270003D0185FF04C080913F0184600CC086FF72
:1002800006C01092350180913F01826004C08091C8
:100290003F018B7F8D7F80933F01089580913D01C9
:1002A00081FF0DC0809179018B3018F085E595E5CF
:1002B00002C089E492E99093800180937F010895C0
:1002C000CF92DF92EF92FF92CF93DF9380913D0127
:1002D00081FF29C01092370110923601CFE0D0E0A3
:1002E000C12CD12C7601C39466E070E080E090E0F0
:1002F0008CD8672B682B692BA1F4209136013091A3
:100300003701D701C6010C2E04C0880F991FAA1F00
:10031000BB1F0A94D2F7822B932B909337018093C3
:100320003601219708F7DF91CF91FF90EF90DF9092
:10033000CF90089586E080932B0163E170E080E028
:1003400090E063D8DC01CB010196A11DB11D809323
:10035000790163E170E080E090E057D8DC01CB01E7
:100360000196A11DB11D809378016AE170E080E0E3
:1003700090E04BD8DC01CB010596A11DB11D809307
:100380007701B8DC25E030E040E050E0C0DC60936D
:100390002A0162EC71E080E090E037D8DC01CB010B
:1003A000C296A11DB11D90932E0180932D016CE08A
:1003B00070E080E090E029D86093290166E070E069
:1003C00080E090E022D8DC01CB010496A11DB11D94
:1003D000880F991FAA1FBB1F9093280180932701A4
:1003E0001092260164E070E080E090E00ED8609307
:1003F0003A0163E070E080E090E007D86093760116
:1004000066E070E080E090E000D8609325016EE047
:1004100070E080E090E0F9D7AB01BC014750510992
:100420006109710980913F0185FB882780F990E07F
:10043000BA01D3DB90937501809374015BDC22E0F9
:1004400030E040E050E063DC21E0672B682B692B53
:1004500009F420E080913C0120FB82F980933C016B
:1004600049DC23E030E040E050E051DC21E0672B44
:10047000682B692B09F020E08091400120FB87F96F
:100480008093400137DC22E030E040E050E03FDC88
:1004900021E0672B682B692B09F420E08091410152
:1004A00020FB80F9809341018091400184FD08C0C8
:1004B00081E191E1909339018093380101DFEEDE13
:1004C00010927301109272010895CF92DF92EF9211
:1004D000FF920F931F939C01562FBC01990F880B1D
:1004E000990B409179016B017C015230E1F053305E
:1004F000B9F1513009F04BC00090780104C0F59477
:10050000E794D794C7940A94D2F7DC01CB0104C0D6
:10051000B595A795979587954A95D2F78C29622F1F
:1005200053DB682F4DC00090780104C0F594E79428
:10053000D794C7940A94D2F7DC01CB0104C0B595D7
:10054000A795979587954A95D2F78C29622F3CDB22
:10055000982F8091770163E037DB692F682330C0E3
:1005600004C0F594E794D794C7944A95D2F72C2108
:10057000309178013695DC01CB0104C0B595A79583
:10058000979587953A95D2F7622F682B19C00090FE
:10059000770104C0F594E794D794C7940A94D2F7EE
:1005A0008B019C0104C035952795179507954A95B1
:1005B000D2F7A90198012C213D214E215F21A7DB13
:1005C00098B380912C01682380958923682B68BBA0
:1005D0001F910F91FF90EF90DF90CF9008952F9291
:1005E0003F924F925F926F927F928F929F92AF92C3
:1005F000BF92CF92DF92EF92FF920F931F93CF9310
:10060000DF9300D000D0CDB7DEB780913E0187FFE9
:1006100079C1109235018F7B88608F7780933E017E
:100620001092390110923801109237011092360160
:100630001092800110927F01809140018F7E809303
:10064000400190913D0180913F0198619B7F909383
:100650003D018062806180933F0183FD53C125EAA3
:1006600030E03C832B83F901119211921192119287
:1006700031E0E532F307C1F72BDD68E070E080E0A0
:1006800090E0C3D637DB22E030E040E050E03FDBD3
:10069000672B682B692B39F068E070E080E090E010
:1006A000B4D6262E01C0212C80912901E82EF12CF0
:1006B0008091760190E065E070E08FDA2091400152
:1006C00027FB222720F930E06901CC0CDD1CCC0C83
:1006D000DD1C20E030E0312C03E010E045E08A5BD7
:1006E0009E4F9A838983812C912C54018394C90154
:1006F000820D931DB8018EDA892BC9F12F5F3F4F10
:100700006B817C816C5F7F4F7C836B8320323105F2
:1007100071F7DEDC64E070E080E090E076D6DC012A
:10072000CB010196A11DB11D282F30E08901000FDA
:10073000111F8091760190E065E070E04EDA309014
:100740002901E4E6F0E0FA83E983E0E0F0E045E047
:10075000C42ED12C8A5B9E4F7C0150E1652E712CFA
:10076000812C912C54018394412C512C2EC0EB816F
:10077000FC8150E0852F642F41DAA981BA81A90F4D
:10078000B11D8C91B701680F711D8FE190E0861B40
:10079000970BBC01D501C40104C0880F991FAA1F83
:1007A000BB1F6A95D2F74080518062807380842994
:1007B0009529A629B72980839183A283B3835F5F9C
:1007C000EC0DFD1D5330B1F699CFCF01B90122DAFE
:1007D000CB01B8011FDA880F991FB6011BDAD701C8
:1007E000A80FB11D8C91830DA301481B5109CA01AB
:1007F000B501A40104C0440F551F661F771F8A95D9
:10080000D2F7A981BA818D919C911197482B592BD0
:1008100011965C934E93E20FF31FA00FB11FBA83A2
:10082000A983C2018E0F9F1F80977CF21A821982C2
:1008300065E0462E512C612C712C7FE1272E312C46
:10084000C12CD12C7601C39455DA09811A81000F8D
:10085000111F000F111F0B551F4FA301920157DAF3
:100860004B015C018091760190E065E070E0B5D9C4
:10087000092E000CAA0BBB0B880D991DAA1DBB1DD0
:10088000FC01EA5BFE4F20818091290190E0820FFC
:10089000911DF101E81BF90BB701A60104C0440F3B
:1008A000551F661F771FEA95D2F7F8018081918165
:1008B000A281B381842B952BA62BB72B80839183A8
:1008C000A283B38365E070E080E090E09ED5DC0118
:1008D000CB010196A11DB11D29813A81280F391F35
:1008E0003A832983203231050CF4AECF81E191E1C6
:1008F00090933901809338018091400180648F7D0D
:100900008093400180913D0185FF20C080913E0190
:10091000806280933E018091830190918401880FD1
:10092000892F881F990B8093A40060913A018091D0
:10093000850190918601C9DD8091850190918601A4
:100940000196909386018093850160C010923501D5
:1009500086FF17C020912A01809183019091840124
:10096000233038F4880F892F881F990B8093A400B7
:100970004DC026E0959587952A95E1F780932B0148
:1009800045C080913E018F7D80933E0110927E0193
:1009900080913F0187FF1AC082E08093A40080917C
:1009A000400184FD08C081E191E190933901809379
:1009B000380186DC73DC80913E0186FB222720F91A
:1009C00091E0922790FB86F980933E0120914001AF
:1009D00021FF1CC0809160018F5F8093600163E004
:1009E0000DD991110AC020622064209340018091AA
:1009F0003E018F7D80933E0109C0913019F420643F
:100A00002F7D02C02F7B2062209340010F900F901A
:100A10000F900F90DF91CF911F910F91FF90EF906A
:100A2000DF90CF90BF90AF909F908F907F906F900E
:100A30005F904F903F902F9008952F923F924F924A
:100A40005F926F927F928F929F92AF92BF92CF925E
:100A5000DF92EF92FF920F931F93CF93DF93CDB767
:100A6000DEB729970FB6F894DEBF0FBECDBF8091D9
:100A70003C0186FF03C0806280933C0180913E016F
:100A800083FF16C380913F0181FF90C040917A019E
:100A900050917B01E09188012091720130917301A6
:100AA000411504E05007D4F06E2F6F7081E090E0A4
:100AB000A0E0B0E004C0880F991FAA1FBB1F6A9571
:100AC000D2F7822B932B909373018093720140583D
:100AD000514050937B0140937A0115C04E2F4F70C7
:100AE00081E090E0A0E0B0E004C0880F991FAA1F49
:100AF000BB1F4A95D2F780959095822393239093BC
:100B000073018093720120913C0180917A01909150
:100B10007B01F0E021FF27C0EE0FFF1FEE0FFF1F4C
:100B2000EB55FF4F55E0959587955A95E1F741E0D4
:100B300050E060E070E07A018B0104C0EE0CFF1C15
:100B4000001F111F8A95D2F7D801C701408151813A
:100B500062817381842B952BA62BB72B8083918385
:100B6000A283B3831EC0EE0FFF1FEC59FF4F36E088
:100B7000959587953A95E1F741E050E060E070E0A7
:100B80008A019B0104C0000F111F221F331F8A9589
:100B9000D2F7D901C80120813181822B932B918317
:100BA000808380913F018D7F80933F0180913F0141
:100BB00082FF1BC090913C01E0918801F0E091FF21
:100BC0000BC0EE0FFF1FEE0FFF1FEB55FF4F108204
:100BD00011821282138209C0EE0FFF1FEC59FF4FE2
:100BE000118210828B7F80933F012091400122FF70
:100BF0005EC040918301509184018091880190E012
:100C000001968F7099274C3211E05107D4F441E0DE
:100C100050E060E070E07A018B0104C0EE0CFF1C34
:100C2000001F111F8A95D2F7D801C70140913801E2
:100C300050913901842B952B909339018093380181
:100C400036C040395140D4F441E050E060E070E0FB
:100C50007A018B0104C0EE0CFF1C001F111F8A9546
:100C6000D2F7D801C70140917F0150918001842BB8
:100C7000952B9093800180937F0119C041E050E053
:100C800060E070E07A018B0104C0EE0CFF1C001FD5
:100C9000111F8A95D2F7D801C701409136015091B2
:100CA0003701842B952B909337018093360123FFD6
:100CB00032C02091880130E02F5F3F4F2F703327E3
:100CC00081E090E0A0E0B0E004C0880F991FAA1F67
:100CD000BB1F2A95D2F780959095209138013091CD
:100CE0003901282339233093390120933801209189
:100CF000360130913701282339233093370120936F
:100D0000360120917F0130918001822393239093BB
:100D1000800180937F0178948090400186FAFF24BF
:100D2000F0F8F98286FC0BC085FC09C0809188012F
:100D30008F5F80938801803208F016C133C18091A3
:100D40008701843099F350918801052F10E01F83AB
:100D50000E83E0907401F0907501C0906200D09015
:100D600063000091250110E040913F0145FB4427BD
:100D700040F9912C252F2F70809172019091730171
:100D800002C0959587952A95E2F781709927A1E091
:100D9000B0E09D0102C0220F331F8A95E2F73B832A
:100DA0002A8360912B0170E09B012B5F3F4F81E90B
:100DB00094E202C0959587955A95E2F7817099273C
:100DC000820F931F2D0102C0440C551C8A95E2F737
:100DD00085FA882480F8209171018091410180FB7F
:100DE000222420F8312C33E0230E311C6A5F7F4F20
:100DF0003D0102C0660C771C6A95E2F719861886D9
:100E00008E819F81880F991F880F991FBC016B5598
:100E10007F4F7D836C83A0E2AA2EB12CEE81FF81EF
:100E2000EE0FFF1FCF018C599F4F9F838E83398117
:100E3000332309F449C0EC81FD8180819181A28135
:100E4000B381088404C0B695A795979587950A94B1
:100E5000D2F780FF39C0C601B801DCD6BC01C7019A
:100E6000BCD6642F792DB9D6BC01A885B9856A1B7B
:100E70007B0BCB014F968032910514F00C9704C088
:100E800097FF02C0CB018B9630E0B501C3D6FC01C1
:100E9000EE0FFF1FEE5BFF4F65917491C901880F44
:100EA000991FFC01E759FE4F0A8002C076956795AD
:100EB0000A94E2F771836083FC01EF59FE4F51827F
:100EC00040822F5F3F4F2370882009F442C0EE819B
:100ED000FF8180819181088402C0969587950A944C
:100EE000E2F780FF36C0C601B80194D6BC01C70145
:100EF00074D6642F792D71D668857985861B970BFA
:100F0000BC01615E7F4F77FF02C0645F7F4F30E0BE
:100F1000CB010397B5017ED6FC01EE0FFF1FEE5B00
:100F2000FF4F65917491C901880F991FFC01E75922
:100F3000FE4F022C02C0769567950A94E2F7718302
:100F40006083FC01EF59FE4F718260822F5F3F4F3B
:100F5000237088859985019699878887809709F0FD
:100F600066CF20937101E2CE809162009091630080
:100F700001969093630080936200029724F0809121
:100F80003D0183FD9DD98091620080FD05C062E036
:100F900070E080E090E039D21092860110928501D5
:100FA00010928801809162009091630004970CF484
:100FB0005BC0109263001092620080913F0180FD3F
:100FC00044C084FF42C060E270E080E090E01DD247
:100FD00070E0660F771F660F771FFB01EB55FF4F21
:100FE000C080D180E280F38080E090E097018601AC
:100FF000082E04C036952795179507950A94D2F7C1
:1010000000FF1FC0FB01EB55FF4F01E010E020E0A7
:1010100030E0B901A80104C0440F551F661F771FB7
:101020008A95D2F7DB01CA0180959095A095B0957D
:101030008C219D21AE21BF2180839183A283B38324
:1010400004C001968032910589F6809161008F5F1E
:101050008093610080913D0182FF06C081E191E1B2
:101060009093390180933801809161008330A0F022
:1010700010926100809160008F5F809360008530E6
:1010800058F080913F0180FD07C08091400184FDB0
:1010900003C050D91092600081E090E090938601E7
:1010A0008093850184E090E0909382018093810198
:1010B00029960FB6F894DEBF0FBECDBFDF91CF915A
:1010C0001F910F91FF90EF90DF90CF90BF90AF9066
:1010D0009F908F907F906F905F904F903F902F9058
:1010E00008951F920F920FB60F9211242F933F93E2
:1010F0004F935F936F937F938F939F93AF93BF9320
:10110000EF93FF9380915E0190915F01029690931F
:101110005F0180935E0120913C0127FD1CC040913E
:1011200027015091280148175907ACF410925F012C
:1011300010925E0122FF0EC08091880190E001961E
:101140008170992721E0822790913D0180FB97F9DA
:1011500090933D0172DCFF91EF91BF91AF919F9110
:101160008F917F916F915F914F913F912F910F9050
:101170000FBE0F901F9018951F920F920FB60F92EF
:1011800011249F92AF92BF92CF92DF92EF92FF9283
:101190000F931F932F933F934F935F936F937F937F
:1011A0008F939F93AF93BF93CF93DF93EF93FF936F
:1011B00080913D0180FF4DC0C0907C01D0907D01A9
:1011C0004091A40060917E0170E0A0902B0109E69F
:1011D00011E0E6E5F1E0A1E6B1E0912CE80129910A
:1011E00039918E012C0D3D1D042E02C0220F331F9C
:1011F0000A94E2F780819181280F391F219331935E
:10120000ED90FC901197C701860F971FC1E0D0E0C9
:10121000EF2811F4C0E0D0E08C1B9D0B8D939D93C3
:10122000232F330F330B220F232F221F330B322F89
:101230003170930E0A2C02C0969587950A94E2F7B6
:101240008227980ED1E0EE35FD0741F680E8890D42
:101250008BBD8091810190918201019690938201D2
:101260008093810180913301909134010196909394
:10127000340180933301FF91EF91DF91CF91BF91C2
:10128000AF919F918F917F916F915F914F913F911E
:101290002F911F910F91FF90EF90DF90CF90BF9013
:1012A000AF909F900F900FBE0F901F90189581E008
:1012B00087B987B187B9369A3699FECF84B125B1FF
:1012C00090E0922B0895CF93DF93282F30E0F9011F
:1012D000E45CFF4F8491F901EA5CFF4FD491F9017E
:1012E000E05DFF4FC491CC2389F08111FAD6EC2F39
:1012F000F0E0EE0FFF1FE65DFF4FA591B491EC917A
:10130000ED2381E090E021F480E002C080E090E0F5
:10131000DF91CF9108951F93CF93DF93282F30E073
:10132000F901E45CFF4F8491F901EA5CFF4FD4912D
:10133000F901E05DFF4FC491CC23C9F0162F811154
:10134000D0D6EC2FF0E0EE0FFF1FEC5DFF4FA59124
:10135000B4918FB7111106C0F8949C91ED2FE095D0
:10136000E92303C0F894EC91ED2BEC938FBFDF9150
:10137000CF911F9108951F920F920FB60F921124D3
:101380002F933F938F939F93AF93BF93809191013E
:1013900090919201A0919301B091940130919001AC
:1013A00026E0230F2D3730F029E8230F0396A11DE7
:1013B000B11D03C00296A11DB11D20939001809321
:1013C000910190939201A0939301B0939401809125
:1013D0008C0190918D01A0918E01B0918F010196A9
:1013E000A11DB11D80938C0190938D01A0938E015E
:1013F000B0938F01BF91AF919F918F913F912F91AA
:101400000F900FBE0F901F901895CF93DF9300D0D1
:1014100000D0CDB7DEB7611571058105910569F082
:101420009B01AC0169833A834B835C8363D429813C
:101430003A814B815C816BD403C060E070E0CB01EA
:101440000F900F900F900F90DF91CF91089563E16F
:1014500070E080E090E0D9DFDC01CB010196A11DB6
:10146000B11D8093790163E170E080E090E0CDDF11
:10147000DC01CB010196A11DB11D809378016AE1C9
:1014800070E080E090E0C1DFDC01CB010596A11D9A
:10149000B11D80937701089581B781BF8AB58260BD
:1014A0008ABD8AB581608ABD83B7887F836083BF28
:1014B000789489B7826089BF80B7807F80BF80B70A
:1014C000806880BF8CB580648CBD8FEF8DBD80B788
:1014D000876080BF86B18877866886B9379A61E071
:1014E00084E022D661E081E01FD662E080E01CD675
:1014F00062E083E019D662E082E016D680E0E3DEA7
:10150000892B29F483E0DFDE892B09F41AC380E0FC
:10151000DADE892B89F480913D018D7F8160809393
:101520003D0180913C01806480933C0181E0809387
:10153000870110922C011BC083E0C5DE892B91F43A
:1015400080913D0182608E7F80933D0180913C01BE
:10155000806480933C0184E08093870182E08093E3
:101560002C0105C080913F01806280933F019FDE86
:10157000EC0161E081E0CFDE9ADE8C0F9D1FBC01A3
:10158000695F734819F080E090E0B8D386E087BDCA
:1015900019BE81E080BF80E68CBD80E88BBD8AE00B
:1015A00083BF83E689BD80E189BF81B78E5F81BF3C
:1015B00080E481BD789484D671D6BCD6C0E7D2E0F1
:1015C00011E009E073E0F72EE5E0EE2E80913D0199
:1015D00081FFB3C020913E0126FDAFC0E0918101A3
:1015E000F0918201CF019595879595958795909378
:1015F00086018093850140912D0150912E01841721
:1016000095070CF094C020FF92C0409188014F7064
:10161000209138013091390102C0369527954A95BD
:10162000E2F720FF19C028B330912C01BF0145E03B
:10163000759567954A95E1F7D0D256E0F595E7950F
:101640005A95E1F702C095958795EA95E2F78323CD
:1016500030952323282B28BB209188012F7080915F
:1016600036019091370102C0969587952A95E2F749
:1016700080FF2BC0E0918501F091860180912D01C2
:1016800090912E0195958795E817F907F4F4CF010D
:101690008056994728B330912C01BC01A3E0759581
:1016A0006795AA95E1F799D20090830102C0F5955C
:1016B000E7950A94E2F702C095958795EA95E2F7D7
:1016C000832330952323282B28BB209188012F705A
:1016D00080917F019091800102C0969587952A950F
:1016E000E2F780FF2AC028B330912C01809181015C
:1016F00090918201AC010090830102C055954795FD
:101700000A94E2F7452F550F550B4595692F77271A
:1017100067FD7A95462B572B02C0959587954A957C
:10172000E2F78323932F90959223892B05C098B3DA
:1017300080912C018095892388BBB9DD90938A0123
:10174000809389019E01281B390B309384012093DB
:10175000830140913E0145FF05C030937D012093F8
:101760007C0104C010927D0110927C01813825E03B
:10177000920714F080E895E097FF02C080E090E0C7
:1017800090937B0180937A0186B3282F21702127C3
:1017900090913D0120FB95F983FB882780F98127F3
:1017A00080FB96F990933D0180913C0187FF44C0F6
:1017B0008091870188DD21E0892B09F420E0809168
:1017C0003C0120FB83F980933C012223D9F084FD66
:1017D00019C0806180933C01809133019091340164
:1017E00096958795A0E0B0E080932F01909330010B
:1017F000A0933101B0933201109234011092330161
:101800001CD91AC080913C0184FF16C0409133015D
:101810005091340160E070E080902F019090300191
:10182000A0903101B090320184169506A606B70645
:1018300018F48F7E80933C0190913D0180913E0190
:1018400095FF0BC081FD12C020913F0120642093C1
:101850003F01826080933E010FC081FF07C08D7FF2
:1018600080933E0180913F01806804C080913F01D8
:101870008F7B8F7780933F0180913E0196FBDD2423
:10188000D0F896FF0BC082FD12C02091400121606C
:1018900020934001846080933E010FC082FF07C007
:1018A0008B7F80933E0180914001826004C08091D3
:1018B00040018E7F8D7F8093400195FBCC24C0F842
:1018C00095FF18C0DD20B1F080913E0184FD12C06B
:1018D00045E050E061E070E080ED97E061D48091F8
:1018E0003E01877B806180933E0180913C01816055
:1018F00080933C0180913E0184FF48C0C11046C0E6
:10190000D11044C08F7E80933E0180913C018E7F38
:1019100080933C0180913D0180FD09C080913B0195
:10192000813019F4F0923B0102C010923B0180918A
:101930003B018F5F20913A0130E02F5F3F4F2370D2
:10194000332720933A01602F59D190933B01809126
:101950003F0183FFEFD41092350180913E01109238
:10196000860110928501877D90913F019C7F9B7F2E
:1019700090933F0180688F7B80933E01809140016E
:101980008B7F877F8093400110927E0180913C0184
:1019900085FF11C06091880170E06F5F7F4F6170BB
:1019A000772781E0682780918701B5DC80913C0131
:1019B0008F7D80933C0180913C0180FF08C0809125
:1019C0003E018064886080933E0160E0B2C09091E7
:1019D0003B019430E1F038F4923079F0933009F023
:1019E000AEC08D7F0BC0973009F46DC0983009F4FC
:1019F000EDCD963009F0A3C03EC0826080933C01DB
:101A0000F3D380914001806280934001DFCD8091CB
:101A10003E0187FF21C09091400190619093400169
:101A200090913F01986090933F0190913D019B7E82
:101A3000977F90933D0188608F7B8F7780933E01E5
:101A4000109239011092380110923701109236012C
:101A50001092800110927F0190913D018091400190
:101A600096FF02C08460D0CF95FF02C08860CCCFC3
:101A7000877F8B7FC9CFB3D58091400180FF0FC096
:101A8000E0918301F0918401EE0FFF1FEE5BFF4FA9
:101A900041E050E060E070E08081918181D38091ED
:101AA0003F0186FF93CDE0918301F0918401EE0F19
:101AB000FF1FEE5BFF4F41E050E060E070E080818F
:101AC00091816ED383CD80913E01806480933E01ED
:101AD0008091400180FF08C080918B018F5F6E2D47
:101AE0008DD090938B011EC080913D0185FF0BC06E
:101AF00021D444E050E061E070E080918301909156
:101B000084014ED30FC08091810190918201009099
:101B10008B0102C0959587950A94E2F79093860110
:101B20008093850180913E01806280933E016091A7
:101B30003A018091850190918601C7D447CD4FD558
:101B400045CD60E084E0F0D260E081E0EDD28091AC
:101B5000870181110CCD81E0B6DB892B99F0809152
:101B60003D018D7F80933D0180913C018068809391
:101B70003C0181E08093870161E084E0D5D210923E
:101B80002C0119C084E09FDB892BA9F080913D01D5
:101B90008E7F80933D0184E08093870161E081E046
:101BA000C3D280913C01806880933C0180913D01CB
:101BB000826080933D0180E086DB892BE1F383E046
:101BC00082DB892BC1F3C3CF002480FD060E660F94
:101BD00011F08695D1F7802D08950024552704C073
:101BE000080E591F880F991F009729F07695679561
:101BF000B8F37105B9F7802D952F0895991B79E0F9
:101C000004C0991F961708F0961B881F7A95C9F78C
:101C10008095089597FB072E16F4009406D077FD63
:101C200008D00BD007FC05D03EF4909581959F4FCE
:101C30000895709561957F4F0895AA1BBB1B51E1D4
:101C400007C0AA1FBB1FA617B70710F0A61BB70B2C
:101C5000881F991F5A95A9F780959095BC01CD01D1
:101C60000895EE0FFF1F0590F491E02D0994A0E078
:101C7000B0E0ECE3FEE08AC0EC01688179818A8102
:101C80009B81611571058105910521F464E279ED6F
:101C90008BE597E02DE133EF41E050E038D049018A
:101CA0005A0127EA31E440E050E04DD069017A0161
:101CB000C501B4012CEE34EF4FEF5FEF44D0022F9B
:101CC000132F9A01D701C601800F911FA21FB31FC6
:101CD000B7FF03C00197A109B04888839983AA83FD
:101CE000BB83BC01CD019F77CDB7DEB7ECE06AC006
:101CF000BEDF089582E491E0BADF08956093420167
:101D00007093430180934401909345010895052EFB
:101D100097FB16F400940FD057FD05D068D007FC50
:101D200002D046F408C050954095309521953F4F1C
:101D30004F4F5F4F089590958095709561957F4FB7
:101D40008F4F9F4F089568940013E894A0E0B0E08F
:101D5000EBEAFEE01DC0EFEFE7F959016A015E23EF
:101D6000550FEE08FE2C87019B01AC019E23990FB5
:101D7000660B762FCB015DD0CDB7DEB7EAE024C08D
:101D80002F923F924F925F926F927F928F929F928B
:101D9000AF92BF92CF92DF92EF92FF920F931F9379
:101DA000CF93DF93CDB7DEB7CA1BDB0B0FB6F8942A
:101DB000DEBF0FBECDBF09942A88398848885F846A
:101DC0006E847D848C849B84AA84B984C884DF80DB
:101DD000EE80FD800C811B81AA81B981CE0FD11DBF
:101DE0000FB6F894DEBF0FBECDBFED010895A1E29E
:101DF0001A2EAA1BBB1BFD010DC0AA1FBB1FEE1F85
:101E0000FF1FA217B307E407F50720F0A21BB30BCF
:101E1000E40BF50B661F771F881F991F1A9469F74B
:101E200060957095809590959B01AC01BD01CF01A7
:101E30000895DF93CF939F92A0E49A2E0024D001BF
:101E4000E001F00116950795F794E794D794C794AD
:101E5000B794A79448F41068A20FB31FC41FD51FEE
:101E6000E61FF71F081E191E220F331F441F551FA0
:101E7000661F771F881F991F9A9421F79D01AE0155
:101E8000BF01C00111249F90CF91DF910895F89474
:021E9000FFCF82
:101E9200010101000800000000000800000000002D
:101EA2000800000000000000000000000000000028
:101EB2000000000000000000000000000000000020
:101EC2000000000000000000000000000000000010
:101ED200000000000200000080000000400000003E
:101EE20020000000100000000800000004000000B4
:101EF20002000000010000800000004000000020FD
:101F020000000010000000080000000400000002B1
:101F120000000001000000000000000000000000BE
:101F220000000000000000000000000000000000AF
:101F3200000000000000000000000000000000009F
:101F4200000000000000000000000000000000008F
:101F52000000000000040308000C040A02F401015E
:101F62000000000A0001FFFF80800401121F8100AF
:101F7200E001010000000003070A0C0004070B0C3B
:061F820000020507090042
:0200000002C03C
:00000001FF