:1000000041C065C064C063C062C080C960C05FC0D9
:100010005EC05DC0ACC85BC084C859C058C0A902EE
:10002000D102FC0229035A038D03C303FC033804E5
:100030007904BD04060552059505F9055406B40674
:100040001A078607F9077208F3087B090B0AA40A46
:10005000460BF20BA80C680D340E0A0FF00F0000CF
:1000600000003700000000003800000000003600EB
:100070000202020202020102040810200102000032
:100080000400F20911241FBECFE5D2E0DEBFCDBFD0
:1000900021E0A4E5B1E001C01D92A039B207E1F76B
:1000A00011E0A0E6B0E0E4E0FFE102C005900D92AF
:1000B000A435B107D9F710E0C2E4D0E003C021971E
:1000C000FE0108DEC134D107D1F7B1D919CF98CFDD
:1000D000E4E6F0E01192119280E0E43AF807D1F7FB
:1000E000089541DE22E030E040E050E049DE672B39
:1000F000682B692B19F088E898E802C08AE492E935
:1001000090933701809336010895813031F48AB598
:100110008F778ABD8AB58F7B07C0823039F48AB564
:100120008F7D8ABD8AB58F7E8ABD0895833039F46C
:1001300080B78F7D80BF80B78F7E80BF0895843069
:1001400031F48CB58F7D8CBD8CB58F7E8CBD0895C0
:100150001F93CF93DF93282F30E0F901E458FF4F2E
:100160008491F901EA58FF4FD491F901E059FF4F0A
:10017000C491CC23C9F0162F8111C7DFEC2FF0E01A
:10018000EE0FFF1FEC59FF4FA591B4918FB71111DE
:1001900006C0F8949C91ED2FE095E92303C0F894F4
:1001A000EC91ED2BEC938FBFDF91CF911F910895D0
:1001B000CF93DF9390E0FC01EA58FF4F2491FC01BC
:1001C000E059FF4F8491882361F190E0880F991FD7
:1001D000FC01E25AFF4FC591D491FC01EC59FF4F4D
:1001E000A591B491611109C09FB7F89488812095B9
:1001F00082238883EC912E230BC0623061F49FB779
:10020000F8943881822F809583238883EC912E2B5C
:100210002C939FBF06C08FB7F894E8812E2B2883BC
:100220008FBFDF91CF910895789421B5206421BDCF
:1002300020916D0130E0F901EE0FFF1FDF01AB5996
:10024000BE4F02C0959587956A95E2F78D939C9372
:10025000E35AFE4F4F5F5F4F440F440F10824183BC
:10026000C901019663E070E00EDD80936D01089591
:1002700060917C0170E0E0917D01F0917E01EE0FD4
:10028000FF1FE25EFF4F41E050E080819181CCCFC3
:1002900080913D0187FF3EC080913E0183FD0BC0F0
:1002A000E5EAF0E0119211921192119281E0E532AB
:1002B000F807C1F70DDF1092390120913D012F7B26
:1002C00080913F0190913E01996028602F7D20939D
:1002D0003D0120913C012861246020933C019F7DD9
:1002E000906190933E018F7E8064806280933F0195
:1002F000109237011092360110923501109234019C
:100300001092790110927801ECDE80913D018F7797
:1003100080933D0180913D01886080933D018091F3
:100320003C0185FF04C080913E0184600CC086FFC3
:1003300006C01092390180913E01826004C0809114
:100340003E018B7F8D7F80933E010895CF92DF9297
:10035000EF92FF92CF93DF9380913C0181FF29C000
:100360001092790110927801CFE0D0E0C12CD12C0D
:100370007601C39466E070E080E090E011D8672BCE
:10038000682B692BA1F42091780130917901D70174
:10039000C6010C2E04C0880F991FAA1FBB1F0A9408
:1003A000D2F7822B932B9093790180937801219738
:1003B00008F7DF91CF91FF90EF90DF90CF900895F5
:1003C000CF92DF92EF92FF92CF93DF9380913C0127
:1003D00081FF29C01092350110923401CFE0D0E0A6
:1003E000C12CD12C7601C39466E070E080E090E0EF
:1003F000D7D7672B682B692BA1F42091340130915A
:100400003501D701C6010C2E04C0880F991FAA1F01
:10041000BB1F0A94D2F7822B932B909335018093C4
:100420003401219708F7DF91CF91FF90EF90DF9093
:10043000CF90089586E08093290163E170E080E029
:1004400090E0AED7DC01CB010196A11DB11D8093D8
:10045000730163E170E080E090E0A2D7DC01CB01A2
:100460000196A11DB11D809372016AE170E080E0E8
:1004700090E096D7DC01CB010596A11DB11D8093BC
:10048000710171DC25E030E040E050E079DC609300
:10049000280162EC71E080E090E082D7DC01CB01C2
:1004A000C296A11DB11D90932D0180932C016CE08B
:1004B00070E080E090E074D76093270183E0809340
:1004C000260162E070E080E090E06AD7DC01CB01B9
:1004D0000396A11DB11D8093260164E070E080E0C9
:1004E00090E05ED76093380182E08093700163E012
:1004F00070E080E090E054D76093700166E070E0B7
:1005000080E090E04DD7609325016EE070E080E0E0
:1005100090E046D7AB01BC01475051096109710910
:1005200080913E0185FB882780F990E0BA018EDB3F
:1005300090936F0180936E0162E070E080E090E044
:100540002FD721E0672B682B692B09F420E08091DD
:100550003B0120FB82F980933B0105DC23E030E086
:1005600040E050E00DDC21E0672B682B692B09F09F
:1005700020E080913F0120FB87F980933F01F3DB6E
:1005800022E030E040E050E0FBDB21E0672B682B0D
:10059000692B09F420E08091400120FB80F98093D1
:1005A000400180913F0184FD03C09BDD09DFCECE79
:1005B0000895CF92DF92EF92FF920F931F939C01C9
:1005C000562FBC01990F880B990B409173016B0159
:1005D0007C015230E1F05330B9F1513009F04BC099
:1005E0000090720104C0F594E794D794C7940A94DC
:1005F000D2F7DC01CB0104C0B595A79597958795F7
:100600004A95D2F78C29622F18DB682F4DC00090D5
:10061000720104C0F594E794D794C7940A94D2F772
:10062000DC01CB0104C0B595A795979587954A95B0
:10063000D2F78C29622F01DB982F8091710163E042
:10064000FCDA692F682330C004C0F594E794D7948E
:10065000C7944A95D2F72C21309172013695DC016E
:10066000CB0104C0B595A795979587953A95D2F794
:10067000622F682B19C00090710104C0F594E794B3
:10068000D794C7940A94D2F78B019C0104C0359586
:100690002795179507954A95D2F7A90198012C211E
:1006A0003D214E215F216CDB98B380912B016823A3
:1006B00080958923682B68BB1F910F91FF90EF9065
:1006C000DF90CF9008952F923F924F925F926F925A
:1006D0007F928F929F92AF92BF92CF92DF92EF92D2
:1006E000FF920F931F93CF93DF9300D000D0CDB72D
:1006F000DEB780913D0187FF84C1109239018F7B65
:1007000088608F7780933D011092370110923601F7
:1007100010923501109234011092790110927801F3
:1007200080913F018F7E80933F0190913C018091A9
:100730003E0198619B7F90933C0180628061809331
:100740003E0183FD5EC125EA30E03C832B83F90145
:10075000119211921192119231E0E532F307C1F733
:10076000B7DC68E070E080E090E01AD668E070E006
:1007700080E090E015D6262E80912701E82EF12CFE
:100780008091700190E065E070E060DA20913F01B7
:1007900027FB222720F930E06901CC0CDD1CCC0CB2
:1007A000DD1C20E030E0312C03E010E045E08B5B05
:1007B0009E4F9A838983812C912C54018394C90183
:1007C000820D931DB8015FDA892BC9F12F5F3F4F6E
:1007D0006B817C816C5F7F4F7C836B832032310522
:1007E00071F776DC64E070E080E090E0D9D5DC0160
:1007F000CB010196A11DB11D282F30E08901000F0A
:10080000111F8091700190E065E070E01FDA309078
:100810002701E4E6F0E0FA83E983E0E0F0E045E078
:10082000C42ED12C8B5B9E4F7C0150E1652E712C28
:10083000812C912C54018394412C512C2EC0EB819E
:10084000FC8150E0852F642F12DAA981BA81A90FAB
:10085000B11D8C91B701680F711D8FE190E0861B6F
:10086000970BBC01D501C40104C0880F991FAA1FB2
:10087000BB1F6A95D2F740805180628073808429C3
:100880009529A629B72980839183A283B3835F5FCB
:10089000EC0DFD1D5330B1F699CFCF01B901F3D95D
:1008A000CB01B801F0D9880F991FB601ECD9D70157
:1008B000A80FB11D8C91830DA301481B5109CA01DA
:1008C000B501A40104C0440F551F661F771F8A9508
:1008D000D2F7A981BA818D919C911197482B592B00
:1008E00011965C934E93E20FF31FA00FB11FBA83D2
:1008F000A983C2018E0F9F1F80977CF21A821982F2
:1009000055E0452E512C612C712C6FE1262E312C97
:10091000C12CD12C7601C39426DA09811A81000FEB
:10092000111F000F111F0B551F4FA301920128DA51
:100930004B015C018091700190E065E070E086D928
:10094000092E000CAA0BBB0B880D991DAA1DBB1DFF
:10095000FC01EB5BFE4F20818091270190E0820F2C
:10096000911DF101E81BF90BB701A60104C0440F6A
:10097000551F661F771FEA95D2F7F8018081918194
:10098000A281B381842B952BA62BB72B80839183D7
:10099000A283B38365E070E080E090E001D5DC01E4
:1009A000CB010196A11DB11D29813A81280F391F64
:1009B0003A832983203231050CF4AECF92DB20E05C
:1009C00030E08FE090E041E050E060E070E080FDDA
:1009D0000CC06A017B01082E04C0CC0CDD1CEE1C8F
:1009E000FF1C0A94D2F72C293D29019780F73093F8
:1009F00079012093780180913F0180648F7D8093FD
:100A00003F0180913C0185FF20C080913D018062C3
:100A100080933D0180917D0190917E01880F892F07
:100A2000881F990B8093A4006091380180917F0109
:100A300090918001BEDD80917F01909180010196AF
:100A40009093800180937F0152C01092390186FFFC
:100A50000EC080917D0190917E01880F892F881FA3
:100A6000990B8093A40081E08093770140C080912E
:100A70003D018F7D80933D011092770180913E0171
:100A800087FF15C082E08093A40080913F0184FD20
:100A900003C027DB95DC5ADC80913D0186FB2227D1
:100AA00020F991E0922790FB86F980933D012091F7
:100AB0003F0121FF1CC080915C018F5F80935C012E
:100AC00063E0D5D891110AC02062206420933F01D1
:100AD00080913D018F7D80933D0109C0913019F4D3
:100AE00020642F7D02C02F7B206220933F010F9056
:100AF0000F900F900F90DF91CF911F910F91FF906A
:100B0000EF90DF90CF90BF90AF909F908F907F90AD
:100B10006F905F904F903F902F9008952F923F924B
:100B20004F925F926F927F928F929F92AF92BF92FD
:100B3000CF92DF92EF92FF920F931F93CF93DF93A9
:100B4000CDB7DEB728970FB6F894DEBF0FBECDBF86
:100B500080913B0186FF03C0806280933B018091BE
:100B60003D0183FFC5C280913E0120913B0181FF81
:100B700066C040917D0150917E0188E592E0841B22
:100B8000950B409182014F7150E021FF39C0440F15
:100B9000551F440F551FFA01EB55FF4F65E070E0FC
:100BA00072D8DC01CB016CE070E050D8309170015C
:100BB000A30FB11DAA0FBB1FA25EBF4F4D915C9149
:100BC000840F951F8F71992741E050E060E070E03D
:100BD0007A018B0104C0EE0CFF1C001F111F8A95C7
:100BE000D2F7D801C7014081518162817381842B82
:100BF000952BA62BB72B80839183A283B3831AC036
:100C0000440F551FFA01EC59FF4F60E170E03BD8EB
:100C1000382F81E090E0A0E0B0E004C0880F991F79
:100C2000AA1FBB1F3A95D2F740815181842B952B87
:100C30009183808380913E018D7F80933E018091DE
:100C40003E0182FF1AC0A0918201B0E021FF0CC0DA
:100C5000AA0FBB1FAA0FBB1FAB55BF4F1D921D9202
:100C60001D921C92139709C0AA0FBB1FAC59BF4F0E
:100C70001D921C928B7F80933E0130913F0132FF89
:100C80003FC08091740190E0019760E170E0FBD774
:100C900060917D0170917E01AC01552781E090E06B
:100CA000A0E0B0E004C0880F991FAA1FBB1F4A959F
:100CB000D2F76C3201E070075CF44091360150913C
:100CC0003701842B952B909337018093360118C000
:100CD000603971405CF44091780150917901842B26
:100CE000952B90937901809378010AC0409134014B
:100CF00050913501842B952B9093350180933401CD
:100D000033FF33C08091740190E0019760E170E09F
:100D1000BAD7382F81E090E0A0E0B0E004C0880F9F
:100D2000991FAA1FBB1F3A95D2F7809590954091C5
:100D3000360150913701482359235093370140938E
:100D40003601409134015091350148235923509385
:100D50003501409334014091780150917901842309
:100D60009523909379018093780122FF0EC08091A2
:100D7000820190E001968170992721E0822790916D
:100D80003C0180FB97F990933C0180913C0187FBEB
:100D9000992790F980912601890F80932A01806418
:100DA00081BD789481B5806481BD70903F01409190
:100DB0008201009162001091630076FA662460F867
:100DC00076FC09C075FC07C04F5F4093820140323A
:100DD00008F0F2C00DC1809181018430A9F3642F25
:100DE00070E080906E0190906F01E0902501F12CF1
:100DF000D0903E01D5FADD24D0F8C12CA091290174
:100E0000B0E09D012B5F3F4F81E994E2042E02C0C8
:100E1000959587950A94E2F781709927820F931F21
:100E200022242394312C210102C0440C551C8A95A4
:100E3000E2F775FA772470F820916D0180914001F6
:100E400080FBAA24A0F8B12CC50103969A8389835C
:100E5000169602C0220C331CAA95E2F718861F8250
:100E6000CB01880F991F880F991FDC01AB55BF4F2D
:100E7000BC83AB8350E2A52EB12C660F771FFB011C
:100E8000EC59FF4FFE83ED83662009F445C0EB81EA
:100E9000FC8180819181A281B3810F8004C0B695CD
:100EA000A795979587950A94D2F780FF35C0C8011A
:100EB000B701E9D6BC01C401C9D66D2D7C2DC6D6BB
:100EC000BC01AF81B8856A1B7B0BCB018096813258
:100ED000910514F00C9704C097FF02C0CB018C96CB
:100EE00030E0B501D0D6FC01EE0FFF1FE25EFF4FF0
:100EF00065917491C901880F991FFC01EB59FE4F50
:100F00007695679571836083FC01E35AFE4F5182A9
:100F100040822F5F3F4F2370772009F442C0ED815C
:100F2000FE81808191810F8002C0969587950A94F9
:100F3000E2F780FF36C0C801B701A5D6BC01C401E5
:100F400085D66D2D7C2D82D66F817885861B970B7B
:100F5000BC01605E7F4F77FF02C0645F7F4F30E06F
:100F6000CB010397B5018FD6FC01EE0FFF1FE25EA8
:100F7000FF4F65917491C901880F991FFC01EB59CE
:100F8000FE4F098002C0769567950A94E2F7718357
:100F90006083FC01E35AFE4F318220822F5F3F4F76
:100FA00023708F819885019698878F83809709F0A9
:100FB0006BCF20936D0108CF0F5F1F4F109363001D
:100FC000009362000230110524F080913C0183FD02
:100FD000F7D98091620080FD05C062E070E080E09A
:100FE00090E0DED11092800110927F011092820178
:100FF000809162009091630004970CF455C01092A8
:1010000063001092620080913E0180FD44C084FF25
:1010100042C060E270E080E090E0C2D170E0660F14
:10102000771F660F771FFB01EB55FF4FC080D18004
:10103000E280F38080E090E097018601082E04C0F2
:1010400036952795179507950A94D2F700FF1FC08C
:10105000FB01EB55FF4F01E010E020E030E0B9016B
:10106000A80104C0440F551F661F771F8A95D2F749
:10107000DB01CA0180959095A095B0958C219D21AA
:10108000AE21BF2180839183A283B38304C00196E4
:101090008032910589F6809161008F5F80936100B5
:1010A00080913C0182FD1DD8809161008330A0F0C9
:1010B00010926100809160008F5F809360008530A6
:1010C00058F080913E0180FD07C080913F0184FD72
:1010D00003C0B0D91092600081E090E0909380014D
:1010E00080937F0184E090E090937B0180937A016C
:1010F00028960FB6F894DEBF0FBECDBFDF91CF911B
:101100001F910F91FF90EF90DF90CF90BF90AF9025
:101110009F908F907F906F905F904F903F902F9017
:1011200008951F920F920FB60F9211242F933F93A1
:101130004F935F936F937F938F939F93AF93BF93DF
:10114000EF93FF9380913B0187FFE8DCFF91EF91E4
:10115000BF91AF919F918F917F916F915F914F91CF
:101160003F912F910F900FBE0F901F9018951F92D7
:101170000F920FB60F9211249F92AF92BF92CF920F
:10118000DF92EF92FF920F931F932F933F934F9312
:101190005F936F937F938F939F93AF93BF93CF93FF
:1011A000DF93EF93FF9380913C0180FF4DC0C0908F
:1011B0007501D09076014091A4006091770170E0B4
:1011C000A090290105E611E0E4E5F1E0ADE5B1E02C
:1011D000912CE801299139918E012C0D3D1D042E91
:1011E00002C0220F331F0A94E2F780819181280FF9
:1011F000391F21933193ED90FC901197C701860F11
:10120000971FC1E0D0E0EF2811F4C0E0D0E08C1BC4
:101210009D0B8D939D93232F330F330B220F232F81
:10122000221F330B322F3170930E0A2C02C0969579
:1012300087950A94E2F78227980ED1E0EC35FD07F6
:1012400041F680E8890D8BBD80917A0190917B01F8
:10125000019690937B0180937A0180913201909165
:10126000330101969093330180933201FF91EF9106
:10127000DF91CF91BF91AF919F918F917F916F91AE
:101280005F914F913F912F911F910F91FF90EF90A0
:10129000DF90CF90BF90AF909F900F900FBE0F90B8
:1012A0001F90189581E087B987B187B9369A36992A
:1012B000FECF84B125B190E0922B0895CF93DF93B8
:1012C000282F30E0F901E458FF4F8491F901EA58E2
:1012D000FF4FD491F901E059FF4FC491CC2389F01D
:1012E000811113D7EC2FF0E0EE0FFF1FE659FF4FEF
:1012F000A591B491EC91ED2381E090E021F480E0A0
:1013000002C080E090E0DF91CF9108951F920F928C
:101310000FB60F9211242F933F938F939F93AF9308
:10132000BF9380918C0190918D01A0918E01B0911D
:101330008F0130918B0126E0230F2D3730F029E803
:10134000230F0396A11DB11D03C00296A11DB11D5F
:1013500020938B0180938C0190938D01A0938E013B
:10136000B0938F018091870190918801A0918901AC
:10137000B0918A010196A11DB11D809387019093C0
:101380008801A0938901B0938A01BF91AF919F9189
:101390008F913F912F910F900FBE0F901F90189536
:1013A000CF93DF9300D000D0CDB7DEB761157105C4
:1013B0008105910569F09B01AC0169833A834B83F8
:1013C0005C83D1D429813A814B815C81D9D403C01B
:1013D00060E070E0CB010F900F900F900F90DF91C5
:1013E000CF91089563E170E080E090E0D9DFDC0107
:1013F000CB010196A11DB11D8093730163E170E0E3
:1014000080E090E0CDDFDC01CB010196A11DB11D94
:10141000809372016AE170E080E090E0C1DFDC015E
:10142000CB010596A11DB11D80937101089581B76F
:1014300081BF8AB582608ABD8AB581608ABD83B763
:10144000887F836083BF789489B7826089BF80B7C3
:10145000807F80BF80B7806880BF8CB580648CBD82
:101460008FEF8DBD80B7876080BF86B18877866833
:1014700086B9379A61E084E09BD661E081E098D636
:1014800062E080E095D662E083E092D662E082E09E
:101490008FD680E013DF892B29F483E00FDF892BBF
:1014A00009F488C380E00ADF892B89F480913C012C
:1014B0008D7F816080933C0180913B0180648093AB
:1014C0003B0181E08093810110922B011BC083E0DE
:1014D000F5DE892B91F480913C0182608E7F8093B0
:1014E0003C0180913B01806480933B0184E08093C8
:1014F000810182E080932B0105C080913E018062D2
:1015000080933E01CFDEEC0161E081E021D6CADEAE
:101510008C0F9D1FBC01695F734819F080E090E05B
:1015200026D419BE81E080BF80E68CBD80E88BBDEB
:101530008AE083BF83E689BD80E189BF81B78E5F82
:1015400081BF80912A01806481BD3AD7FFD672D7CE
:1015500000E410E020E1E22EF12C30E7C32E32E06F
:10156000D32E48E5A42E42E0B42E9924939459E05A
:10157000852E63E0762E75E0672E80913C0181FF19
:10158000B4C080913D0186FDB0C020917A013091B8
:101590007B01F901F595E795F595E795F0938001C5
:1015A000E0937F0140912C0150912D01E417F50744
:1015B0000CF09BC080FF99C080918201A801481B5C
:1015C0005109CA01B7015FD380937401409136017C
:1015D00050913701BA0102C0769567958A95E2F776
:1015E00060FF1AC048B3A0912B01B901C5E0759501
:1015F0006795CA95E1F7CF0129D3D6E035952795B0
:10160000DA95E1F702C0959587952A95E2F78A2346
:10161000A0954A23482B48BB809134019091350115
:101620000090740102C0969587950A94E2F780FFB6
:101630002BC0E0917F01F091800180912C0190916D
:101640002D0195958795E817F907F4F4CF01805699
:10165000994728B330912B01BC01A3E0759567959C
:10166000AA95E1F7F3D200907D0102C0F595E795C8
:101670000A94E2F702C095958795EA95E2F78323ED
:1016800030952323282B28BB8091780190917901F4
:101690000090740102C0969587950A94E2F780FF46
:1016A00024C028B330912B0180917A0190917B0165
:1016B000BC0100907D0102C0759567950A94E2F720
:1016C000672F770F770B6595492F552747FD5A955B
:1016D000462B572B02C0959587954A95E2F78323B1
:1016E000932F90959223892B88BBDCDD9601281BD4
:1016F000390BC90130937E0120937D01209139017E
:1017000097FF05C010927E0110927D0107C08935B8
:10171000924024F0B0927E01A0927D01213061F0D0
:101720002230B1F480917D0190917E016AE070E0F9
:101730008DD28858934108C080917D0190917E019F
:101740004FE084278055934C90937E0180937D01D8
:1017500080913D0185FF09C080917D0190917E01BE
:10176000909376018093750104C0109276011092D7
:10177000750186B3282F2170292590913C0120FB0B
:1017800095F983FB882780F9892580FB96F990934A
:101790003C0180913B0187FF44C0809181018EDD37
:1017A00021E0892B09F420E080913B0120FB83F9A3
:1017B00080933B012223D9F084FD19C0806180937E
:1017C0003B01809132019091330196958795A0E07D
:1017D000B0E080932E0190932F01A0933001B0933D
:1017E0003101109233011092320198D91AC08091C0
:1017F0003B0184FF16C0409132015091330160E0FB
:1018000070E020902E0130902F01409030015090D8
:101810003101241635064606570618F48F7E80934C
:101820003B0190913C0180913D0195FF0BC081FDF2
:1018300012C020913E01206420933E01826080937B
:101840003D010FC081FF07C08D7F80933D018091D6
:101850003E01806804C080913E018F7B8F7780932A
:101860003E0180913D0196FBCC27C0F996FF0BC04D
:1018700082FD12C020913F01216020933F018460CE
:1018800080933D010FC082FF07C08B7F80933D0195
:1018900080913F01826004C080913F018E7F8D7FE7
:1018A00080933F0195FBDD27D0F995FF18C0CC232D
:1018B000B1F080913D0184FD12C045E050E061E04F
:1018C00070E080ED97E0B0D480913D01877B80612E
:1018D00080933D0180913B01816080933B01809129
:1018E0003D0184FF48C0D11146C0C11144C08F7E64
:1018F00080933D0180913B018E7F80933B018091DD
:101900003C0180FD09C080913A01813019F4709248
:101910003A0102C010923A0180913A018F5F209102
:10192000380130E02F5F3F4F237033272093380179
:10193000682D9DD190933A0180913E0183FF7AD525
:101940001092390180913D011092800110927F0127
:10195000877D90913E019C7F9B7F90933E018068A4
:101960008F7B80933D0180913F018B7F877F8093A8
:101970003F011092770180913B0185FF11C060917A
:10198000820170E06F5F7F4F6170772751E06527BC
:1019900080918101DDD380913B018F7D80933B015C
:1019A00080913B0180FF08C080913D018064886088
:1019B00080933D0160E09FC090913A019430E1F046
:1019C00038F4923079F0933009F0F2C08D7F0BC07B
:1019D000973009F45AC0983009F493C0963009F052
:1019E000E7C03EC0826080933B0152D480913F01AA
:1019F000806280933F01C1CD80913D0187FF21C06E
:101A000090913F01906190933F0190913E019860C9
:101A100090933E0190913C019B7E977F90933C0177
:101A200088608F7B8F7780933D01109237011092F1
:101A30003601109235011092340110927901109202
:101A4000780190913C0180913F0196FF02C0846033
:101A5000D0CF95FF02C08860CCCF877F8B7FC9CF66
:101A600032D680913F0180FF05C080917D01909129
:101A70007E01FED380913E0186FF7FCD80917D0166
:101A800090917E010A96F4D378CD80913D018064D7
:101A900080933D0180913F0180FF08C080918301C8
:101AA0008F5F662DE4D0909383011EC080913C012E
:101AB00085FF0BC0BFD444E050E061E070E080914E
:101AC0007D0190917E01B0D30FC080917A019091F9
:101AD0007B010090830102C0959587950A94E2F7F7
:101AE0009093800180937F0180913D01806280937B
:101AF0003D016091380180917F019091800159D51D
:101B00003CCD80913D0187FF05C080913C018D7FD8
:101B100080933C0180913D01877F80933D0110922D
:101B2000390180917D0190917E0120918501281BD2
:101B3000209384012F3128F08093850190938601B2
:101B400097D380913C0185FF0DC0C0917F01D0915A
:101B5000800160913801CE012CD52196D09380016F
:101B6000C0937F0180913C0186FF07CDC0917F012A
:101B7000D09180018091380190E0019665E070E09D
:101B800082D0682FCE0115D52196D0938001C093C5
:101B90007F0180913F0180FFF0CC80917C018F5FBD
:101BA000853018F480937C01E8CC10927C01E5CC60
:101BB0008AD5E3CC60E084E0FBD260E081E0F8D23B
:101BC0008091810181119ECC81E078DB892B99F095
:101BD00080913C018D7F80933C0180913B01806826
:101BE00080933B0181E08093810161E084E0E0D259
:101BF00010922B0119C084E061DB892BA9F0809140
:101C00003C018E7F80933C0184E08093810161E000
:101C100081E0CED280913B01806880933B0180912E
:101C20003C01826080933C0180E048DB892BE1F33A
:101C300083E044DB892BC1F3C3CF002480FD060E73
:101C4000660F11F08695D1F7802D08950024552751
:101C500004C0080E591F880F991F009729F0769528
:101C60006795B8F37105B9F7802D952F0895991BE5
:101C700079E004C0991F961708F0961B881F7A9583
:101C8000C9F78095089597FB072E16F4009406D0A7
:101C900077FD08D00BD007FC05D03EF490958195D8
:101CA0009F4F0895709561957F4F0895AA1BBB1BA8
:101CB00051E107C0AA1FBB1FA617B70710F0A61B4C
:101CC000B70B881F991F5A95A9F780959095BC016D
:101CD000CD010895EE0FFF1F0590F491E02D0994BA
:101CE000A0E0B0E0E5E7FEE08AC0EC016881798120
:101CF0008A819B81611571058105910521F464E25A
:101D000079ED8BE597E02DE133EF41E050E038D0FD
:101D100049015A0127EA31E440E050E04DD0690121
:101D20007A01C501B4012CEE34EF4FEF5FEF44D0E0
:101D3000022F132F9A01D701C601800F911FA21FF6
:101D4000B31FB7FF03C00197A109B04888839983E7
:101D5000AA83BB83BC01CD019F77CDB7DEB7ECE092
:101D60006AC0BEDF089581E491E0BADF0895609310
:101D7000410170934201809343019093440108957F
:101D8000052E97FB16F400940FD057FD05D068D0B0
:101D900007FC02D046F408C0509540953095219537
:101DA0003F4F4F4F5F4F0895909580957095619587
:101DB0007F4F8F4F9F4F089568940013E894A0E0E1
:101DC000B0E0E4EEFEE01DC0EFEFE7F959016A0173
:101DD0005E23550FEE08FE2C87019B01AC019E236C
:101DE000990F660B762FCB015DD0CDB7DEB7EAE059
:101DF00024C02F923F924F925F926F927F928F9268
:101E00009F92AF92BF92CF92DF92EF92FF920F9389
:101E10001F93CF93DF93CDB7DEB7CA1BDB0B0FB693
:101E2000F894DEBF0FBECDBF09942A883988488850
:101E30005F846E847D848C849B84AA84B984C884E6
:101E4000DF80EE80FD800C811B81AA81B981CE0FDD
:101E5000D11D0FB6F894DEBF0FBECDBFED010895C2
:101E6000A1E21A2EAA1BBB1BFD010DC0AA1FBB1F9E
:101E7000EE1FFF1FA217B307E407F50720F0A21B10
:101E8000B30BE40BF50B661F771F881F991F1A947D
:101E900069F760957095809590959B01AC01BD01A7
:101EA000CF010895DF93CF939F92A0E49A2E002450
:101EB000D001E001F00116950795F794E794D794C7
:101EC000C794B794A79448F41068A20FB31FC41F17
:101ED000D51FE61FF71F081E191E220F331F441FB0
:101EE000551F661F771F881F991F9A9421F79D0120
:101EF000AE01BF01C00111249F90CF91DF910895E1
:041F0000F894FFCF83
:101F040001010100080000000000080000000000BA
:101F140008000000000000000000000000000000B5
:101F240000000000000000000000000000000000AD
:101F3400000000000000000000000000000000009D
:101F440000000000020000008000000040000000CB
:101F54002000000010000000080000000400000041
:101F6400020000000100008000000040000000208A
:101F7400000000100000000800000004000000023F
:101F8400000000010000000000000000000000004C
:101F9400000000000000000000000000000000003D
:101FA400000000000000000000000000000000002D
:101FB400000000000000000000000000000000001D
:101FC400000000000004030C040A0402F4010100F0
:101FD40000000A00FFFF8080040101121FA100E03D
:101FE40001010000000003070A0C0004070B0C00A9
:041FF40002050709D2
:0200000002C03C
:00000001FF