:1000000041C065C064C063C062C03FC160C05FC022
:100010005EC05DC00EC85BC0E6C759C058C00000D6
:10002000000037000000000038000000000036002B
:100030000202020202020102040810200102000072
:100040000400A902D102FC0229035A038D03C30351
:10005000FC0338047904BD04060552059505F9052D
:100060005406B4061A078607F9077208F3087B09D5
:100070000B0AA40A460BF20BA80C680D340E0A0FEB
:10008000F00FE20811241FBECFE5D2E0DEBFCDBFE6
:1000900021E0A4E5B1E001C01D92AC38B207E1F760
:1000A00011E0A0E6B0E0E6E7FEE102C005900D92A7
:1000B000A435B107D9F710E0C2E4D0E003C021971E
:1000C000FE01C1DDC134D107D1F7A1D8D2CE98CF7E
:1000D000813031F48AB58F778ABD8AB58F7B07C0AE
:1000E000823039F48AB58F7D8ABD8AB58F7E8ABD0C
:1000F0000895833039F480B78F7D80BF80B78F7EBD
:1001000080BF0895843031F48CB58F7D8CBD8CB563
:100110008F7E8CBD0895CF93DF93282F30E0F901B7
:10012000E45CFF4F8491F901EA5CFF4FD491F9013F
:10013000E05DFF4FC491CC2389F08111C9DFEC2F22
:10014000F0E0EE0FFF1FE65DFF4FA591B491EC913B
:10015000ED2381E090E021F480E002C080E090E0B7
:10016000DF91CF9108951F93CF93DF93282F30E035
:10017000F901E45CFF4F8491F901EA5CFF4FD491EF
:10018000F901E05DFF4FC491CC23C9F0162F811116
:100190009FDFEC2FF0E0EE0FFF1FEC5DFF4FA5910E
:1001A000B4918FB7111106C0F8949C91ED2FE09592
:1001B000E92303C0F894EC91ED2BEC938FBFDF9112
:1001C000CF911F910895CF93DF9390E0FC01EA5CFB
:1001D000FF4F2491FC01E05DFF4F8491882361F182
:1001E00090E0880F991FFC01E25EFF4FC591D4910A
:1001F000FC01EC5DFF4FA591B491611109C09FB75F
:10020000F8948881209582238883EC912E230BC05B
:10021000623061F49FB7F8943881822F80958323F0
:100220008883EC912E2B2C939FBF06C08FB7F89438
:10023000E8812E2B28838FBFDF91CF9108953FB7A0
:10024000F8948091770190917801A0917901B09113
:100250007A0122B708B601FE05C02F3F19F00196BA
:10026000A11DB11D3FBFBA2FA92F982F8827820F3C
:10027000911DA11DB11DBC01CD0143E0660F771F8B
:10028000881F991F4A95D1F708951F920F920FB6B4
:100290000F9211242F933F938F939F93AF93BF930C
:1002A0008091730190917401A0917501B0917601D4
:1002B0003091720126E0230F2D3730F029E8230F0B
:1002C0000396A11DB11D03C00296A11DB11D20936F
:1002D00072018093730190937401A0937501B093A0
:1002E00076018091770190917801A0917901B09188
:1002F0007A010196A11DB11D809377019093780139
:10030000A0937901B0937A01BF91AF919F918F91A2
:100310003F912F910F900FBE0F901F9018957894DA
:1003200021B5206421BD20916C0130E0F901EE0F70
:10033000FF1FDF01AC59BE4F02C0959587956A95A6
:10034000E2F78D939C93E45AFE4F4F5F5F4F440F4B
:10035000440F10824183C901019663E070E04CDCD8
:1003600080936C010895E4E6F0E01192119280E030
:10037000E43AF807D1F708953F924F925F926F9257
:100380007F928F929F92AF92BF92CF92DF92EF9225
:10039000FF920F931F93CF93DF93E5DF64E070E04C
:1003A00080E090E0EDD6DC01CB010196A11DB11DEE
:1003B000282F30E08901000F111F8091800190E00B
:1003C00065E070E0FCDB3090B600C4E6D0E0E0E031
:1003D000F0E065E0A62EB12C8B5B9E4F6C0170E1C6
:1003E000E72EF12C412C512C32014394812C912C7D
:1003F000CF01B90101DCCB01B801FEDB880F991FE9
:10040000B501FADBD601A80FB11D8C91830DA701B0
:10041000481B5109CA01B301A20104C0440F551F72
:10042000661F771F8A95D2F788819981842B952B37
:1004300099838883E20FF31FC00FD11FC4018E0F71
:100440009F1F8097ACF2DF91CF911F910F91FF908A
:10045000EF90DF90CF90BF90AF909F908F907F9064
:100460006F905F904F903F9008952F923F924F92E0
:100470005F926F927F928F929F92AF92BF92CF9234
:10048000DF92EF92FF920F931F93CF93DF93C0E021
:10049000D0E035E0432E512C612C712C4FE1242EFD
:1004A000312CC12CD12C7601C39416DC8E01000FA7
:1004B000111F000F111F09541F4FA301920119DCD6
:1004C0004B015C018091800190E065E070E077DB9A
:1004D000092E000CAA0BBB0B880D991DAA1DBB1D74
:1004E000FC01EB5BFE4F20818091B60090E0820F13
:1004F000911D9101281B390BB701A60104C0440FBF
:10050000551F661F771F2A95D2F7F80180819181C8
:10051000A281B381842B952BA62BB72B808391834B
:10052000A283B38365E070E080E090E029D6DC012F
:10053000CB010196A11DB11DC80FD91FC032D10535
:100540000CF4B3CFDF91CF911F910F91FF90EF90FB
:10055000DF90CF90BF90AF909F908F907F906F90E3
:100560005F904F903F902F900895CF92DF92EF923F
:10057000FF92CF93DF931092820110928101CFE01E
:10058000D0E0C12CD12C7601C39466E070E080E00D
:1005900090E0F6D5672B682B692BA1F4209181019F
:1005A00030918201D701C6010C2E04C0880F991F1B
:1005B000AA1FBB1F0A94D2F7822B932B9093820120
:1005C00080938101219708F7DF91CF91FF90EF9001
:1005D000DF90CF900895CF92DF92EF92FF92CF936A
:1005E000DF931092B3001092B200CFE0D0E0C12CA4
:1005F000D12C7601C39466E070E080E090E0C0D535
:10060000672B682B692BA1F42091B2003091B300C5
:10061000D701C6010C2E04C0880F991FAA1FBB1F4B
:100620000A94D2F7822B932B9093B3008093B2005D
:10063000219708F7DF91CF91FF90EF90DF90CF9057
:1006400008954ADB22E030E040E050E052DB672BC7
:10065000682B692B19F088E898E802C08AE492E9CF
:100660009093B5008093B400089586E08093A7002E
:1006700063E170E080E090E083D5DC01CB0101967E
:10068000A11DB11D8093710163E170E080E090E0F5
:1006900077D5DC01CB010196A11DB11D80937001BE
:1006A0006AE170E080E090E06BD5DC01CB0105965B
:1006B000A11DB11D80936F010FDB25E030E040E00C
:1006C00050E017DB6093A60062EC71E080E090E000
:1006D00057D5DC01CB01C296A11DB11D9093AB0093
:1006E0008093AA006CE070E080E090E049D56093D0
:1006F000B60083E08093A50064E070E080E090E0C5
:100700003FD56093370182E08093800163E070E021
:1007100080E090E035D56093800166E070E080E095
:1007200090E02ED56093A4006EE070E080E090E051
:1007300027D5AB01BC01475051096109710980916E
:100740003E018295817090E0BA0139DA90936E0192
:1007500080936D0162E070E080E090E011D521E0CF
:10076000672B682B692B09F420E080913B0120FB6B
:1007700081F980933B01B0DA23E030E040E050E0C3
:10078000B8DA21E0672B682B692B09F020E0809113
:100790003F0120FB86F980933F019EDA22E030E0A2
:1007A00040E050E0A6DA21E0672B682B692B09F4C2
:1007B00020E080913F0120FB87F980933F0155DEC7
:1007C000DBDD80913F0183FD03C03BDF04DFCDCE45
:1007D000089580913D0186FF3AC0109239018F7DC6
:1007E00090913F0120913E01246084688F7E809328
:1007F0003D0180913C018C60826080933C01822F9E
:100800008F7E886080933E01892F877F8062806120
:1008100080933F01E7EBF0E0119211921192119257
:1008200081E0E733F807C1F79EDD1092B500109222
:10083000B4001092B3001092B20010928201109294
:100840008101FFDE80913D018F7B80933D0180918E
:100850003D01846080933D0180913E0185FF04C08D
:100860001092390181600DC087FF02C0826009C00B
:1008700086FF02C08E7F05C090913F0190FF03C0AC
:100880008D7F80933E0108958F929F92AF92BF9289
:10089000CF92DF92EF92FF920F931F93AC018C01E6
:1008A000990F220B330B909171016801790162302D
:1008B000F1F06330D1F1613009F053C00090700164
:1008C00004C0F594E794D794C7940A94D2F74801EA
:1008D000590104C0B594A794979487949A95D2F738
:1008E000D501C4018C29642F61D9082F56C000900E
:1008F000700104C0F594E794D794C7940A94D2F792
:100900004801590104C0B594A794979487949A9587
:10091000D2F7D501C4018C29642F48D9082F8091C2
:100920006F0163E043D9082338C004C0F594E7940D
:10093000D794C7949A95D2F7609170016695842FE9
:1009400035D9C82A83E035952795179507958A9557
:10095000D1F760916F01842F29D980230C2D082BAA
:100960001CC000906F0104C0F594E794D794C7941D
:100970000A94D2F7B901A80104C0759567955795F7
:1009800047959A95D2F7C422D522E622F722C901CB
:10099000B801A7019601ADD9062F98B38091A9009F
:1009A000082380958923082B08BB1F910F91FF9086
:1009B000EF90DF90CF90BF90AF909F908F90089571
:1009C0002F923F924F925F926F927F928F929F925F
:1009D000AF92BF92CF92DF92EF92FF920F931F934D
:1009E000CF93DF93CDB7DEB728970FB6F894DEBF6D
:1009F0000FBECDBF80913B0185FF03C08061809316
:100A00003B0180913D0182FFD5C280913E0180FF74
:100A100061C0209186013091870188E592E0821BB8
:100A2000930BE3E095958795EA95E1F78032910580
:100A300014F08FE190E097FF02C080E090E02091F9
:100A40003B01E0918901EF71F0E020FF1FC0EE0F44
:100A5000FF1FEE0FFF1FE954FF4F41E050E060E041
:100A600070E0082E04C0440F551F661F771F0A94BC
:100A7000D2F70081118122813381402B512B622BCF
:100A8000732B408351836283738318C08F709927BF
:100A9000EE0FFF1FEC59FF4F41E050E060E070E0C7
:100AA000082E04C0440F551F661F771F0A94D2F703
:100AB00020813181422B532B51834083880F991F12
:100AC000FC01EE5BFF4F45E050E060E070E08081AC
:100AD000918125DC80913E0120918901E22FF0E097
:100AE00081FF0BC0EE0FFF1FEE0FFF1FE954FF4FFA
:100AF000108211821282138206C0EE0FFF1FEC5982
:100B0000FF4F1182108230913F0131FF55C080911B
:100B10007B0190E0019760E170E06ED86091860102
:100B200070918701AC0155276C3281E07807B4F4ED
:100B300081E090E0A0E0B0E004C0880F991FAA1FF8
:100B4000BB1F4A95D2F74091B4005091B500842B59
:100B5000952B9093B5008093B4002EC060397140FE
:100B6000B4F481E090E0A0E0B0E004C0880F991FE9
:100B7000AA1FBB1F4A95D2F7409181015091820173
:100B8000842B952B909382018093810115C081E085
:100B900090E0A0E0B0E004C0880F991FAA1FBB1F1F
:100BA0004A95D2F74091B2005091B300842B952B17
:100BB0009093B3008093B20032FF33C080917B01E9
:100BC00090E0019760E170E017D8382F81E090E065
:100BD000A0E0B0E004C0880F991FAA1FBB1F3A9580
:100BE000D2F7809590954091B4005091B50048237C
:100BF00059235093B5004093B4004091B2005091F6
:100C0000B300482359235093B3004093B20040915E
:100C100081015091820184239523909382018093D6
:100C2000810180913B0181FF07C0209580913C01AB
:100C300020FB86F980933C0180913C0186FB99273B
:100C400090F98091A500890F8093A800806481BDF0
:100C5000789481B5806481BD80913F014091890184
:100C6000009162001091630085FB662460F885FDA9
:100C700009C084FD07C04F5F40938901403208F0EE
:100C8000F2C011C1909188019430A9F3642F70E0F3
:100C900080906D0190906E01E090A400F12CD090B6
:100CA0003E01D4FADD24D0F8C12CE091A700AE2E8D
:100CB000B12CD501159621E934E2042E02C03595F8
:100CC00027950A94E2F7217033272A0F3B1FA1E0F2
:100CD000B0E02D0102C0440C551C2A95E2F784FBBC
:100CE000772470F820916C0187FB882780F9282EE3
:100CF000312CF1013396FA83E983F50136961D0113
:100D000002C0220C331CEA95E2F718861F82CB0141
:100D1000880F991F880F991FDC01A954BF4FBC830E
:100D2000AB8380E2A82EB12C660F771FFB01EC5934
:100D3000FF4FFE83ED83662009F445C0EB81FC8103
:100D400080819181A281B3810F8004C0B695A7955F
:100D5000979587950A94D2F780FF35C0C801B701EF
:100D60004BD7BC01C4012BD76D2D7C2D28D7BC01DE
:100D7000AF81B8856A1B7B0BCB01809681329105D0
:100D800014F00C9704C097FF02C0CB018C9630E0A2
:100D9000B50132D7FC01EE0FFF1FEE5BFF4F6591EF
:100DA0007491C901880F991FFC01EC59FE4F76958B
:100DB000679571836083FC01E45AFE4F5182408243
:100DC0002F5F3F4F2370772009F442C0ED81FE81F1
:100DD000808191810F8002C0969587950A94E2F7F1
:100DE00080FF36C0C801B70107D7BC01C401E7D6F0
:100DF0006D2D7C2DE4D66F817885861B970BBC0109
:100E0000605E7F4F77FF02C0645F7F4F30E0CB01B1
:100E10000397B501F1D6FC01EE0FFF1FEE5BFF4F0C
:100E200065917491C901880F991FFC01EC59FE4F1F
:100E3000098002C0769567950A94E2F77183608312
:100E4000FC01E45AFE4F318220822F5F3F4F237016
:100E50008F819885019698878F83809709F06BCF53
:100E600020936C0108CF0F5F1F4F10936300009316
:100E700062000230110544F080913C0182FDABDB41
:100E800080913C0183FD71DB8091620080FD05C093
:100E900062E070E080E090E073D1109285011092E2
:100EA00084011092890180916200909163000497FF
:100EB0000CF45CC0109263001092620080913D01BE
:100EC00087FD46C080913E0183FF42C060E270E032
:100ED00080E090E055D170E0660F771F660F771FB6
:100EE000FB01E954FF4FC080D180E280F38080E0B5
:100EF00090E097018601082E04C036952795179536
:100F000007950A94D2F700FF1FC0FB01E954FF4F79
:100F100001E010E020E030E0B901A80104C0440F76
:100F2000551F661F771F8A95D2F7DB01CA0180958E
:100F30009095A095B0958C219D21AE21BF218083F5
:100F40009183A283B38304C001968032910589F610
:100F5000809161008F5F8093610080913F0180618B
:100F600080933F0180913C0181FD6BDB80916100AA
:100F70008330A0F010926100809160008F5F8093B9
:100F80006000853058F080913D0187FD07C0809159
:100F90003F0183FD03C069DB1092600081E090E0B7
:100FA000909385018093840184E090E090937F0189
:100FB00080937E0128960FB6F894DEBF0FBECDBF9A
:100FC000DF91CF911F910F91FF90EF90DF90CF9025
:100FD000BF90AF909F908F907F906F905F904F9059
:100FE0003F902F9008951F920F920FB60F921124E9
:100FF0002F933F934F935F936F937F938F939F9321
:10100000AF93BF93EF93FF9380913B0186FFD8DCB2
:10101000FF91EF91BF91AF919F918F917F916F91D0
:101020005F914F913F912F910F900FBE0F901F90A6
:1010300018951F920F920FB60F9211249F92AF92A4
:10104000BF92CF92DF92EF92FF920F931F932F9355
:101050003F934F935F936F937F938F939F93AF9340
:10106000BF93CF93DF93EF93FF9380913B0187FF73
:101070004DC0C0907C01D0907D01409138016091BD
:10108000830170E0A090A70004E611E0E4E5F1E040
:10109000ACE5B1E0912CE801299139918E012C0D3C
:1010A0003D1D042E02C0220F331F0A94E2F78081F7
:1010B0009181280F391F21933193ED90FC90119766
:1010C000C701860F971FC1E0D0E0EF2811F4C0E000
:1010D000D0E08C1B9D0B8D939D93232F330F330BEF
:1010E000220F232F221F330B322F3170930E0A2C25
:1010F00002C0969587950A94E2F78227980ED1E070
:10110000EC35FD0741F680E8890D8BBD80917E01AD
:1011100090917F01019690937F0180937E01809151
:10112000B0009091B10001969093B1008093B0000F
:10113000FF91EF91DF91CF91BF91AF919F918F91EF
:101140007F916F915F914F913F912F911F910F91DF
:10115000FF90EF90DF90CF90BF90AF909F900F9057
:101160000FBE0F901F90189581E087B987B187B99E
:10117000369A3699FECF84B125B190E0922B08952E
:10118000CF93DF9300D000D0CDB7DEB761157105E6
:101190008105910569F09B01AC0169833A834B831A
:1011A0005C839AD529813A814B815C81A2D503C0A9
:1011B00060E070E0CB010F900F900F900F90DF91E7
:1011C000CF91089563E170E080E090E0D9DFDC0129
:1011D000CB010196A11DB11D8093710163E170E007
:1011E00080E090E0CDDFDC01CB010196A11DB11DB7
:1011F000809370016AE170E080E090E0C1DFDC0183
:10120000CB010596A11DB11D80936F01089581B793
:1012100081BF8AB582608ABD8AB581608ABD83B785
:10122000887F836083BF789489B7826089BF80B7E5
:10123000807F80BF80B7806880BF8CB580648CBDA4
:101240008FEF8DBD80B7876080BF86B18877866855
:1012500086B9379A61E084E0B6D761E081E0B3D720
:1012600062E080E0B0D762E083E0ADD762E082E088
:10127000AAD780E050D7892BD1F583E04CD7892BB2
:10128000B1F560E084E09FD760E081E09CD7809179
:101290008801811141C081E03ED7892B99F080916E
:1012A0003C018E7F80933C0180913B018064809360
:1012B0003B0181E08093880161E084E084D7109253
:1012C000A900E5CF84E027D7892B09F384E0809338
:1012D000880160E078D780913B0180648F778093AC
:1012E0003B0180913C01816080933C01D0CF80E044
:1012F00012D7892B09F03EC480913C018E7F8093E8
:101300003C0180913B018068806280933B0181E0D9
:10131000809388011092A90027DFEC0161E081E051
:1013200022D722DF8C0F9D1FBC01695F734819F023
:1013300080E090E0D5D419BE81E080BF80E68CBD0E
:1013400080E88BBD8AE083BF83E689BD80E189BFE9
:1013500081B78E5F81BF8091A800806481BD3BD939
:1013600004D983D985E0782E812C912C5401839463
:1013700040913C0140FFB6C080913D0185FDB2C067
:1013800020917E0130917F01F901F595E795F59562
:10139000E795F0938501E09384018091AA009091F4
:1013A000AB00E817F9070CF09DC047FF9BC0809188
:1013B000890140E450E0481B5109CA0160E170E036
:1013C0001BD480937B014091B4005091B500BA01C9
:1013D00002C0769567958A95E2F760FF1AC048B318
:1013E000A091A900B901D5E075956795DA95E1F767
:1013F000CF01E5D316E0359527951A95E1F702C0A0
:10140000959587952A95E2F78A23A0954A23482B3C
:1014100048BB8091B2009091B30000907B0102C064
:10142000969587950A94E2F780FF2BC0209184015E
:10143000309185018091AA009091AB009595879598
:1014400028173907F4F4C9018056994748B3E09149
:10145000A900BC01B3E075956795BA95E1F7AFD3E4
:101460000090860102C0359527950A94E2F702C0E4
:10147000959587952A95E2F78E23E0954E23482B84
:1014800048BB809181019091820100907B0102C054
:10149000969587950A94E2F780FF24C068B370910F
:1014A000A90080917E0190917F01AC01009086019E
:1014B00002C0559547950A94E2F7452F550F550BF5
:1014C0004595292F332727FD3A95242B352B02C02C
:1014D000959587952A95E2F78723972F90959623E0
:1014E000892B88BB41DE20E732E0A901481B590B5C
:1014F000CA0150938701409386012091390157FF1B
:1015000005C0109287011092860109C0893592406A
:1015100034F088E592E09093870180938601213032
:1015200061F02230B1F480918601909187016AE0E8
:1015300070E045D38858934108C08091860190910E
:1015400087016FE086278055934C909387018093A5
:10155000860180913D0184FF09C0809186019091B0
:10156000870190937D0180937C0104C010927D01DE
:1015700010927C0126B3322F317091E0392780918F
:101580003C0130FB84F923FB222720F9922790FBB2
:1015900085F980933C0180913B0186FF44C0809196
:1015A0008801B9D521E0892B09F420E080913B0125
:1015B00020FB82F980933B012223D9F083FD19C0DF
:1015C000886080933B018091B0009091B100969526
:1015D0008795A0E0B0E08093AC009093AD00A0931D
:1015E000AE00B093AF001092B1001092B000E8D9F5
:1015F0001AC080913B0183FF16C04091B00050910A
:10160000B10060E070E00091AC001091AD0020915D
:10161000AE003091AF00041715072607370718F4FE
:10162000877F80933B0190913C0180913D0194FF25
:101630000BC080FD12C020913E01206220933E012C
:10164000816080933D010FC080FF07C08E7F809333
:101650003D0180913E01806404C080913E018F7DF8
:101660008F7B80933E0180913D0195FB112710F9FE
:1016700095FF0BC081FD12C020913E012068209390
:101680003E01826080933D0113C081FF07C08D7FC2
:1016900080933D0180913F01816008C080913E01AF
:1016A0008F7780933E0180913F018E7F80933F0131
:1016B00094FB002700F994FF31C0112379F1809148
:1016C0003D0183FD2BC08B7D886080933D0145E00B
:1016D00050E062E070E080E391E121D6B0D5EB010B
:1016E00078ECC72ED12CE12CF12CA9D56C1B7D0BED
:1016F000683E734038F091E0C91AD108E108F1085A
:10170000C851DC4FC114D104E104F10471F745E084
:1017100050E062E070E080E391E101D680913D010C
:1017200083FF2DC001112BC0111129C0877F809329
:101730003D0180913A018F5F66E052D290933A0169
:1017400080913E0182FF91D71092390180913D0135
:1017500010928501109284018B7290913E019E7FC0
:101760009D7F90933E0180648F7D80933D018091A9
:101770003F018D7F8B7F80933F0110928301809189
:101780003B0184FF11C06091890170E06F5F7F4F62
:101790006170772721E0622780918801E4D48091ED
:1017A0003B018F7E80933B0180913A018430E9F0C8
:1017B00048F4823071F0833009F0B3C080913B016E
:1017C0008E7F0AC0853009F444C0863009F46DC0AC
:1017D000A8C080913B01816080933B01FAD7809142
:1017E0003F01806180933F01C3CD80913D0186FF21
:1017F00021C090913F01986090933F0190913E01EC
:10180000946090933E0190913C01957F9B7F9093D3
:101810003C0184608F7D8F7B80933D011092B500E9
:101820001092B4001092B3001092B2001092820194
:101830001092810190913C0180913F0195FF02C07F
:101840008260D0CF94FF02C08460CCCF8B7F8D7F2D
:10185000C9CF80913C018E7F80933C0180913E01F5
:1018600087FF0FC0E0918601F0918701EE0FFF1F07
:10187000EE5BFF4F41E050E060E070E080819181DD
:101880004ED580913E0185FF73CDE0918601F091A8
:101890008701EE0FFF1FEE5BFF4F41E050E060E07D
:1018A00070E0808191813BD563CD80913D01806264
:1018B00080933D0180913E0187FF08C080918A019D
:1018C0008F5F672D8DD190938A011EC080913C015E
:1018D00084FF0BC0CAD644E050E061E070E0809124
:1018E0008601909187011BD50FC080917E01909158
:1018F0007F0100908A0102C0959587950A94E2F7CE
:10190000909385018093840180913D018061809353
:101910003D01609137018091840190918501B4D798
:1019200027CD80913D0186FFB1C0109239018F7D96
:1019300084608F7B80933D011092B5001092B400BB
:101940001092B3001092B2001092820110928101A5
:1019500080913F01877F80933F0190913C0180916E
:101960003E019C609D7F90933C01806188608093E4
:101970003E01C7EBD0E0FE0111921192119211923B
:1019800031E0E733F307C1F7EED468E070E080E0C0
:1019900090E0F6DB68E070E080E090E0F1DB062F9D
:1019A0004090B600512C8091800190E065E070E09D
:1019B00006D120913F0126FB222420F8312C710111
:1019C000EE0CFF1CEE0CFF1C20E030E010E08B5B07
:1019D0009E4F6C01C901800F911F63E070E00CD134
:1019E000892B71F02F5F3F4F24962032310591F7FC
:1019F000C3D43BD526D620E030E08FE090E02CC069
:101A0000FE01612C862D672DEBD0D601A90FB11DEB
:101A10008C91A201480F511D6FE170E0641B750BA2
:101A2000D501C40104C0880F991FAA1FBB1F6A9566
:101A3000D2F74081518162817381842B952BA62B33
:101A4000B72B80839183A283B3836394EE0DFF1D34
:101A500073E06712D7CFC6CF80FD0CC0B501A401DB
:101A6000082E04C0440F551F661F771F0A94D2F733
:101A7000242B352B019780F730938201209381012D
:101A800080913F018F7E806280933F0180913C0175
:101A900084FF1DC080913D01806180933D01809154
:101AA000860190918701880F892F881F990B809359
:101AB0003801C0918401D091850160913701CE0138
:101AC000E3D62196D0938501C093840151CC109226
:101AD000390185FF0EC08091860190918701880FA2
:101AE000892F881F990B8093380181E080938301AF
:101AF0003FCC80913D018F7E80933D011092830108
:101B000080913E0186FF15C082E08093380180916C
:101B10003F0183FD03C095D55ED527D580913D015A
:101B200085FB222720F991E0922790FB85F980938D
:101B30003D0120913F0120FF1BCC80918B018F5FE5
:101B400080938B0163E04CD091110AC02061206228
:101B500020933F0180913D018F7E80933D0108CC11
:101B6000913019F420622F7E02C02F7D20612093D6
:101B70003F01FECB83E0CFD2892B91F480913C01D1
:101B8000816080933C0180913B018F7780628093DC
:101B90003B0184E08093880182E08093A900BCCB64
:101BA00080913E01806180933E01B6CB002480FD90
:101BB000060E660F11F08695D1F7802D089500244A
:101BC000552704C0080E591F880F991F009729F048
:101BD00076956795B8F37105B9F7802D952F08951F
:101BE000991B79E004C0991F961708F0961B881F6F
:101BF0007A95C9F78095089597FB072E16F40094FF
:101C000006D077FD08D00BD007FC05D03EF49095A8
:101C100081959F4F0895709561957F4F0895AA1BF8
:101C2000BB1B51E107C0AA1FBB1FA617B70710F0C7
:101C3000A61BB70B881F991F5A95A9F780959095F9
:101C4000BC01CD010895EE0FFF1F0590F491E02D2A
:101C50000994A0E0B0E0EEE2FEE08AC0EC01688109
:101C600079818A819B81611571058105910521F436
:101C700064E279ED8BE597E02DE133EF41E050E050
:101C800038D049015A0127EA31E440E050E04DD014
:101C900069017A01C501B4012CEE34EF4FEF5FEF1B
:101CA00044D0022F132F9A01D701C601800F911F34
:101CB000A21FB31FB7FF03C00197A109B0488883D3
:101CC0009983AA83BB83BC01CD019F77CDB7DEB7D3
:101CD000ECE06AC0BEDF089580E491E0BADF0895C9
:101CE00060934001709341018093420190934301BE
:101CF0000895052E97FB16F400940FD057FD05D0DC
:101D000068D007FC02D046F408C050954095309545
:101D100021953F4F4F4F5F4F089590958095709557
:101D200061957F4F8F4F9F4F089568940013E894FB
:101D3000A0E0B0E0EDE9FEE01DC0EFEFE7F95901EA
:101D40006A015E23550FEE08FE2C87019B01AC0152
:101D50009E23990F660B762FCB015DD0CDB7DEB7F2
:101D6000EAE024C02F923F924F925F926F927F924F
:101D70008F929F92AF92BF92CF92DF92EF92FF929B
:101D80000F931F93CF93DF93CDB7DEB7CA1BDB0B47
:101D90000FB6F894DEBF0FBECDBF09942A883988EC
:101DA00048885F846E847D848C849B84AA84B984F3
:101DB000C884DF80EE80FD800C811B81AA81B981FF
:101DC000CE0FD11D0FB6F894DEBF0FBECDBFED0113
:101DD0000895A1E21A2EAA1BBB1BFD010DC0AA1F6C
:101DE000BB1FEE1FFF1FA217B307E407F50720F084
:101DF000A21BB30BE40BF50B661F771F881F991FFF
:101E00001A9469F760957095809590959B01AC0147
:101E1000BD01CF010895DF93CF939F92A0E49A2E46
:101E20000024D001E001F00116950795F794E7949E
:101E3000D794C794B794A79448F41068A20FB31F1F
:101E4000C41FD51FE61FF71F081E191E220F331FC0
:101E5000441F551F661F771F881F991F9A9421F7EB
:101E60009D01AE01BF01C00111249F90CF91DF9170
:061E70000895F894FFCF75
:101E76000101010008000000000008000000000049
:101E86000800000000000000000000000000000044
:101E9600000000000000000000000000000000003C
:101EA600000000000000000000000000000000002C
:101EB600000000000403040A0402F401010000000B
:101EC6000A00FFFF80800C00000080000000400038
:101ED60000002000000010000000080000000400C0
:101EE6000000020000000100008000000040000029
:101EF60000200000001000000008000000040000A0
:101F060000020000000100000000000000000000C8
:101F160000000000000000000000000000000000BB
:101F260000000000000000000000000000000000AB
:101F3600000000000000000000000000000000009B
:101F46000000000000000004020103898F5000F029
:101F560001000000200003070A0C0004070B0C0018
:041F66000205070960
:00000001FF
