:1000000041C065C064C063C062C002C860C05FC058
:100010005EC05DC039C75BC011C759C058C0000081
:10002000000037000000000038000000000036002B
:100030000202020202020102040810200102000072
:100040000400A902D102FC0229035A038D03C30351
:10005000FC0338047904BD04060552059505F9052D
:100060005406B4061A078607F9077208F3087B09D5
:100070000B0AA40A460BF20BA80C680D340E0A0FEB
:10008000F00F740811241FBECFE5D2E0DEBFCDBF54
:1000900021E0A4E0B1E001C01D92AD33B207E1F769
:1000A00011E0A0E6B0E0E4E1FEE102C005900D92AF
:1000B000A430B107D9F710E0C2E4D0E003C0219723
:1000C000FE0190DDC134D107D1F733D8A1CE98CF4E
:1000D000813031F48AB58F778ABD8AB58F7B07C0AE
:1000E000823039F48AB58F7D8ABD8AB58F7E8ABD0C
:1000F0000895833039F480B78F7D80BF80B78F7EBD
:1001000080BF0895843031F48CB58F7D8CBD8CB563
:100110008F7E8CBD08951F93CF93DF93282F30E0FF
:10012000F901E45CFF4F8491F901EA5CFF4FD4913F
:10013000F901E05DFF4FC491CC23C9F0162F811166
:10014000C7DFEC2FF0E0EE0FFF1FEC5DFF4FA59136
:10015000B4918FB7111106C0F8949C91ED2FE095E2
:10016000E92303C0F894EC91ED2BEC938FBFDF9162
:10017000CF911F910895CF93DF9390E0FC01EA5C4B
:10018000FF4F2491FC01E05DFF4F8491882361F1D2
:1001900090E0880F991FFC01E25EFF4FC591D4915A
:1001A000FC01EC5DFF4FA591B491611109C09FB7AF
:1001B000F8948881209582238883EC912E230BC0AC
:1001C000623061F49FB7F8943881822F8095832341
:1001D0008883EC912E2B2C939FBF06C08FB7F89489
:1001E000E8812E2B28838FBFDF91CF9108957894DB
:1001F00021B5206421BD20911C0130E0F901EE0FF2
:10020000FF1FDF01AC5EBE4F02C0959587956A95D2
:10021000E2F78D939C93E45FFE4F4F5F5F4F8091B9
:10022000E8008B5F02C0440F551F8A95E2F75183A7
:100230004083C901019663E070E0ADDC80931C014E
:1002400008958F929F92AF92BF92DF92EF92FF92AA
:100250000F931F93CF93DF93E5E8F0E0DF011D924A
:100260001D9240E0A53AB407D1F78091270190E0B4
:1002700065E070E073DCD090A50020E030E055E050
:10028000E52EF12C8C010C501F4FC0E1D0E0812CE9
:10029000912C54018394C90181709927880F991F6B
:1002A000B70179DCD801A80FB91F8C918D0DBE0163
:1002B000681B7109CB01B501A40104C0440F551F8F
:1002C000661F771F8A95D2F7DB01CA0140815181F1
:1002D000842B952B819391932F5F3F4F20313105D4
:1002E000D1F6DF91CF911F910F91FF90EF90DF90AA
:1002F000BF90AF909F908F900895CF92DF92EF9232
:10030000FF92CF93DF931092260110922501CFE048
:10031000D0E0C12CD12C7601C39466E070E080E07F
:1003200090E0C0D6672B682B692BA1F420912501A2
:1003300030912601D701C6010C2E04C0880F991FE9
:10034000AA1FBB1F0A94D2F7822B932B90932601EE
:1003500080932501219708F7DF91CF91FF90EF90CF
:10036000DF90CF900895CF92DF92EF92FF92CF93DC
:10037000DF931092820010928100CFE0D0E0C12C78
:10038000D12C7601C39466E070E080E090E08AD6DC
:10039000672B682B692BA1F420918100309182009A
:1003A000D701C6010C2E04C0880F991FAA1FBB1FBE
:1003B0000A94D2F7822B932B909382008093810032
:1003C000219708F7DF91CF91FF90EF90DF90CF90CA
:1003D00008958F929F92AF92BF92CF92DF92EF9249
:1003E000FF92CF93DF93CFE0D0E088E0C82ED12CEE
:1003F000E12CF12C812C912C54018394CE0183703B
:1004000099270397E9F437DCA701960141DC6630B0
:10041000710581059105A4F4209183003091840039
:10042000D501C4010C2E04C0880F991FAA1FBB1F41
:100430000A94D2F7822B932B9093840080938300AD
:100440002197E0F6DF91CF91FF90EF90DF90CF9072
:10045000BF90AF909F908F9008952F923F924F92B0
:100460005F926F927F928F929F92AF92BF92CF9244
:10047000DF92EF92FF920F931F93CF93DF9363E18D
:1004800070E080E090E00ED6DC01CB010196A11D6A
:10049000B11D8093210163E170E080E090E002D61D
:1004A000DC01CB010196A11DB11D809320016AE101
:1004B00070E080E090E0F6D5DC01CB010596A11D4F
:1004C000B11D80931F01D7DB25E030E040E050E014
:1004D000DFDB6093760062EC71E080E090E0E2D5D3
:1004E000DC01CB01C296A11DB11D909379008093D0
:1004F00078006CE070E080E090E0D4D56093A500D7
:1005000062E070E080E090E0CDD5DC01CB010396A5
:10051000A11DB11D8093750064E070E080E090E063
:10052000C1D56093E70082E08093270163E070E02B
:1005300080E090E0B7D56093270166E070E080E04E
:1005400090E0B0D5609374006EE070E080E090E0E1
:10055000A9D5AB01BC0147505109610971098091CE
:10056000ED0083FB882780F990E0BA01F7DA9093D9
:100570001E0180931D018091EA008E7F8093EA0026
:100580008091EE0080628093EE0075DB22E030E027
:1005900040E050E07DDB21E0672B682B692B09F4FC
:1005A00020E08091EE0020FB86F98093EE0062E06F
:1005B00070E080E090E076D5162F110F62E070E0D9
:1005C00080E090E06FD503E0060FC4E6D0E0F12CA8
:1005D0008F2D602FD4DA91110BC064E070E080E0C1
:1005E00090E060D5DC01CB010696A11DB11D0AC0CB
:1005F00062E070E080E090E055D5DC01CB0104962C
:10060000A11DB11D682F611B6883F394219620E121
:10061000F212DECFC0E0D0E035E0432E512C612C49
:10062000712C4FE1242E312CC12CD12C7601C39496
:1006300022DB8E01000F111F000F111F0A551F4FE3
:10064000A301920125DB4B015C018091270190E021
:1006500065E070E083DA092E000CAA0BBB0B880D55
:10066000991DAA1DBB1DFC01EC50FF4F20818091FC
:10067000A50090E0820F911DF101E81BF90BB70175
:10068000A60104C0440F551F661F771FEA95D2F7D5
:10069000F80180819181A281B381842B952BA62BB7
:1006A000B72B80839183A283B38365E070E080E001
:1006B00090E0F8D4DC01CB010196A11DB11DC80F5B
:1006C000D91FC031D1050CF4B3CFBBDD8091EE0052
:1006D00082FD15C07EDE47DEDF91CF911F910F9125
:1006E000FF90EF90DF90CF90BF90AF909F908F9052
:1006F0007F906F905F904F903F902F90FECDDF9155
:10070000CF911F910F91FF90EF90DF90CF90BF900E
:10071000AF909F908F907F906F905F904F903F90A1
:100720002F9008958F929F92AF92BF92CF92DF92B7
:10073000EF92FF920F931F93AC018C01990F220B44
:10074000330B909121016230D1F1F0F4613009F066
:1007500074C0680179010090200104C0F594E79409
:10076000D794C7940A94D2F74801590104C0B594AC
:10077000A794979487949A95D2F7D501C4018C29B0
:10078000642FE3D9082F77C06330C9F1643009F0D2
:1007900054C05801690104C0D594C794B794A79474
:1007A0009A95D2F74A2180912001869504C035950B
:1007B0002795179507958A95D2F7042B5CC0680199
:1007C00079010090200104C0F594E794D794C79470
:1007D0000A94D2F74801590104C0B594A79497949C
:1007E00087949A95D2F7D501C4018C29642FADD98D
:1007F000082F80911F0163E0A8D908233CC068013D
:10080000790104C0F594E794D794C7949A95D2F7E8
:10081000609120016695842F98D9C82A83E0359588
:100820002795179507958A95D1F760911F01842F19
:100830008CD980230C2D082B1EC0680179010090F3
:100840001F0104C0F594E794D794C7940A94D2F793
:10085000B901A80104C075956795579547959A9574
:10086000D2F7C422D522E622F722C901B801A70196
:1008700096010EDA062F98B38091800008238095A8
:100880008923082B08BB1F910F91FF90EF90DF90F9
:10089000CF90BF90AF909F908F9008952F923F92EE
:1008A0004F925F926F927F928F929F92AF92BF9280
:1008B000CF92DF92EF92FF920F931F93CF93DF932C
:1008C000CDB7DEB728970FB6F894DEBF0FBECDBF09
:1008D0008091EA0084FF03C088608093EA008091E1
:1008E000EC0081FF92C287FF3BC02091290130912B
:1008F0002A0188E592E0821B930B6AE070E04BD9F5
:100900006032710514F06FE170E080912E018F70FC
:1009100090E0880F991F880F991FFC01EA55FF4F3F
:1009200077FF02C060E070E001E010E020E030E01E
:1009300004C0000F111F221F331F6A95D2F7DC017C
:10094000AA55BF4F4D915D916D917C91D901C80120
:10095000842B952BA62BB72B80839183A283B38303
:100960008091ED0080FF0EC0A0912E01B0E0AA0F93
:10097000BB1FAA0FBB1FAA55BF4F1D921D921D92F0
:100980001C9213974091EE0040FF55C080912201C8
:1009900090E0019760E170E0FED8609129017091CC
:1009A0002A019C0133276C3251E07507B4F481E0D1
:1009B00090E0A0E0B0E004C0880F991FAA1FBB1F01
:1009C0002A95D2F72091830030918400822B932BBB
:1009D00090938400809383002EC060397140B4F4FA
:1009E00081E090E0A0E0B0E004C0880F991FAA1F4A
:1009F000BB1F2A95D2F72091250130912601822B29
:100A0000932B909326018093250115C081E090E0FF
:100A1000A0E0B0E004C0880F991FAA1FBB1F2A9551
:100A2000D2F72091810030918200822B932B9093FA
:100A300082008093810041FF33C08091220190E0C9
:100A4000019760E170E0A7D8282F81E090E0A0E056
:100A5000B0E004C0880F991FAA1FBB1F2A95D2F7C8
:100A6000809590952091830030918400282339232C
:100A70003093840020938300209181003091820084
:100A8000282339233093820020938100209125016F
:100A90003091260182239323909326018093250190
:100AA0008091EA0080FF09C080912E01809590918D
:100AB000EB0080FB95F99093EB008091EB0085FBB8
:100AC000992790F980917500890F80937700806451
:100AD00081BD789481B5806481BD3091EE0034FD94
:100AE00009C080912E018F5F80932E01803108F024
:100AF000EBC00CC180912D01843099F350912E01EF
:100B0000652F70E0DB01AA0FBB1FAA0FBB1FAA5500
:100B1000BF4F4D905D906D907C90E0901D01F090E6
:100B20001E01C0906200D09063000091740010E03C
:100B30004091ED0043FB442740F920911C0181E1E5
:100B400091E102C0959587955A95E2F781709927B2
:100B50004C01A2E08A0E911CDB01AA0FBB1FAB5710
:100B6000BF4F2D903C9036FBAA24A0F8B12CF50184
:100B70003396FC83EB83E2E0F0E05F01A81AB90A48
:100B8000BE82AD8218861F82E0E2AE2EB12CCB0170
:100B90008C599F4F9A838983D301C2010F8004C06F
:100BA000B695A795979587950A94D2F780FF3FC091
:100BB000C601B801F0D7BC01C701D0D7642F70E0DF
:100BC000CDD7BC01AF81B8856A1B7B0BCB0180966A
:100BD0008132910514F00C9704C097FF02C0CB013D
:100BE0008C9630E0B501D7D7FC01EE0FFF1FEE5B0E
:100BF000FF4F85919491B901660F771FFB01EC5E61
:100C0000FE4F9695879591838083FB01E45FFE4FAD
:100C1000A981BA818C918A5FB40102C0660F771FE7
:100C20008A95E2F7718360832F5F3F4F2370C10184
:100C30000F8002C0969587950A94E2F780FF39C02D
:100C400030E0C601B801A7D7BC01C70187D7642F20
:100C500070E084D7AF81B8858A1B9B0B4D96B50198
:100C60009AD7FC01EE0FFF1FEE5BFF4F8591949129
:100C7000B901660F771FFB01EC5EFE4F0B8002C0CF
:100C8000969587950A94E2F791838083FB01E45F50
:100C9000FE4FA981BA818C918B5F6D817E8102C0EC
:100CA000660F771F8A95E2F7718360832F5F3F4F4E
:100CB00023708F819885019698878F83809709F09C
:100CC0006BCF20931C010DCF809162009091630047
:100CD00001969093630080936200029744F08091A4
:100CE000EB0081FD40DB8091EB0082FD06DB809113
:100CF000620080FD05C062E070E080E090E0D2D14B
:100D000010922C0110922B0110922E018091620002
:100D10009091630004970CF45CC0109263001092F1
:100D200062008091EC0086FD46C08091ED0082FF5C
:100D300042C060E170E080E090E0B4D170E0660F06
:100D4000771F660F771FFB01EA55FF4FC080D180E8
:100D5000E280F38080E090E097018601082E04C0D5
:100D600036952795179507950A94D2F700FF1FC06F
:100D7000FB01EA55FF4F01E010E020E030E0B9014F
:100D8000A80104C0440F551F661F771F8A95D2F72C
:100D9000DB01CA0180959095A095B0958C219D218D
:100DA000AE21BF2180839183A283B38304C00196C7
:100DB0008032910589F6809161008F5F8093610098
:100DC0008091EE0088608093EE008091EB0080FDC2
:100DD00000DB80916100833060F0109261008091AF
:100DE00060008F5F80936000853018F036DB1092D2
:100DF000600081E090E090932C0180932B0184E0CF
:100E000090E0909324018093230128960FB6F894E4
:100E1000DEBF0FBECDBFDF91CF911F910F91FF902D
:100E2000EF90DF90CF90BF90AF909F908F907F908A
:100E30006F905F904F903F902F9008951F920F9268
:100E40000FB60F9211242F933F934F935F936F939D
:100E50007F938F939F93AF93BF93EF93FF93809173
:100E6000EA0085FF1BDDFF91EF91BF91AF919F914C
:100E70008F917F916F915F914F913F912F910F9043
:100E80000FBE0F901F9018951F920F920FB60F92E2
:100E90001124BF92CF92DF92EF92FF920F931F9394
:100EA0002F933F934F935F936F937F938F939F9372
:100EB000AF93BF93CF93DF93EF93FF938091EA00BB
:100EC00086FF46C04091E6006091280170E02091C5
:100ED000E800C4E1D1E0E4E0F1E0ACE0B1E0B12C45
:100EE00009911991042E02C0000F111F0A94E2F714
:100EF00080819181080F191F01931193CD90DC908F
:100F00001197C601860F971FEE24E394F12CCD288C
:100F100011F4E12CF12C8E199F098D939D93012FD3
:100F2000110F110B000F012F001F110B102F11704B
:100F3000B10E022E02C0969587950A94E2F780279B
:100F4000B80E81E0EC30F80759F680E88B0D8BBDC8
:100F50008091230190912401019690932401809324
:100F6000230180917E0090917F00019690937F00F5
:100F700080937E00FF91EF91DF91CF91BF91AF9170
:100F80009F918F917F916F915F914F913F912F91A1
:100F90001F910F91FF90EF90DF90CF90BF900F9037
:100FA0000FBE0F901F90189581E087B987B187B960
:100FB000369A3699FECF84B125B190E0922B0895F0
:100FC000CF93DF93282F30E0F901E45CFF4F849149
:100FD000F901EA5CFF4FD491F901E05DFF4FC49144
:100FE000CC2389F0811174D8EC2FF0E0EE0FFF1FB5
:100FF000E65DFF4FA591B491EC91ED2381E090E087
:1010000021F480E002C080E090E0DF91CF9108956C
:101010001F920F920FB60F9211242F933F938F932D
:101020009F93AF93BF938091390190913A01A09122
:101030003B01B0913C013091380126E0230F2D3760
:1010400030F029E8230F0396A11DB11D03C00296BD
:10105000A11DB11D209338018093390190933A016D
:10106000A0933B01B0933C018091340190913501F4
:10107000A0913601B09137010196A11DB11D809359
:10108000340190933501A0933601B0933701BF919D
:10109000AF919F918F913F912F910F900FBE0F9025
:1010A0001F901895CF93DF9300D000D0CDB7DEB757
:1010B000611571058105910569F09B01AC0169839A
:1010C0003A834B835C83D7D529813A814B815C81FC
:1010D000DFD503C060E070E0CB010F900F900F9060
:1010E0000F90DF91CF91089563E170E080E090E090
:1010F000D9DFDC01CB010196A11DB11D8093210137
:1011000063E170E080E090E0CDDFDC01CB0101968F
:10111000A11DB11D809320016AE170E080E090E0A4
:10112000C1DFDC01CB010596A11DB11D80931F011C
:101130000895CF93DF9300D000D0CDB7DEB781B74D
:1011400081BF8AB582608ABD8AB581608ABD83B756
:10115000887F836083BF789489B7826089BF80B7B6
:10116000807F80BF80B7806880BF8CB580648CBD75
:101170008FEF8DBD80B7876080BF86B18877866826
:1011800086B9379A61E084E0F6D761E081E0F3D771
:1011900062E080E0F0D762E083E0EDD762E082E0D9
:1011A000EAD780E00DDF892B61F583E009DF892B29
:1011B00041F504E042E0F42E11E080912D0181110F
:1011C00034C080E0FDDE892B61F08091EA008F77EA
:1011D000806480618093EA0010932D01109280005A
:1011E000ECCF83E0EDDE892B41F38091EA0080684B
:1011F0008F7B80618093EA0000932D01F092800044
:10120000DCCF80E0DDDE892B09F075C484E68093B5
:101210002D018091EA00806880648093EA0011E0EB
:1012200080E0CEDE892B09F454C4BEDE8C0161E07F
:1012300081E071D7B9DE800F911FBC01695F7348EF
:1012400019F080E090E01BD519BE81E080BF80E6F8
:101250008CBD80E88BBD8AE083BF83E689BD80E1D9
:1012600089BF81B78E5F81BF80917700806481BD27
:101270007AD843D8F2D895E0792E2FE1222E312C5E
:10128000812C912C540183948091EA0087FFB8C08F
:101290008091EC0084FDB4C02091230130912401A1
:1012A000F901F595E795F595E795F0932C01E09315
:1012B0002B018091780090917900E817F9070CF0E4
:1012C0009FC08091EB0086FF9BC080912E0140E47F
:1012D00050E0481B5109CA0160E170E05CD4809382
:1012E00022014091830050918400BA0102C076959A
:1012F00067958A95E2F760FF1AC048B3A091800015
:10130000B90115E0759567951A95E1F7CF0126D4D7
:1013100006E0359527950A95E1F702C095958795E2
:101320002A95E2F78A23A0954A23842B88BB8091D3
:101330008100909182000090220102C096958795CD
:101340000A94E2F780FF2BC020912B0130912C01F1
:1013500080917800909179009595879528173907A5
:10136000F4F4C9018056994748B3E0918000BC016C
:10137000A3E075956795AA95E1F7F0D30090290150
:1013800002C0359527950A94E2F702C09595879596
:101390002A95E2F78E23E0954E23842B88BB80911B
:1013A0002501909126010090220102C09695879513
:1013B0000A94E2F780FF24C068B3709180008091A6
:1013C000230190912401AC010090290102C05595A0
:1013D00047950A94E2F7452F550F550B4595292F50
:1013E000332727FD3A95242B352B02C095958795F9
:1013F0002A95E2F78723972F90959623892B88BB10
:10140000D3DD20E732E0D901A81BB90BCD01B7FF2E
:1014100005C010922A01109229010AC08935B2E054
:101420009B0714F088E592E090932A0180932901AC
:101430008091EC0083FF09C08091290190912A01DD
:10144000909332018093310104C0109232011092C6
:10145000310126B3322F317091E039278091EB00B2
:1014600030FB83F923FB222720F9922790FB84F994
:101470008093EB008091EA0085FF44C080912D01AC
:101480009FDD21E0892B09F420E08091EA0020FB18
:1014900081F98093EA002223D9F082FD19C084608B
:1014A0008093EA0080917E0090917F0096958795C9
:1014B000A0E0B0E080937A0090937B00A0937C0042
:1014C000B0937D0010927F0010927E00E7D91AC081
:1014D0008091EA0082FF16C040917E0050917F000B
:1014E00060E070E000917A0010917B0020917C0018
:1014F00030917D00041715072607370718F48B7FF6
:101500008093EA008091EB0087FB992790F983FF95
:101510000BC0911112C09091ED0090619093ED007D
:1015200080688093EB000FC0992339F08F77809308
:10153000EB008091ED00806204C08091ED008F7E11
:101540008F7D8093ED009091EB008091EC0094FBF7
:10155000332730F994FF0BC080FD12C02091ED00BD
:1015600020642093ED0081608093EC000FC080FF29
:1015700007C08E7F8093EC008091ED00806804C0EE
:101580008091ED008F7B8F778093ED008091EC0050
:1015900093FF66C0332309F463C082FD37C08460C3
:1015A0008093EC008091E9008F5F873008F081E044
:1015B0008093E9008091ED0081FD02C04ED70CC000
:1015C00065E070E080E090E06DDDDC01CB01059628
:1015D000A11DB11D8093E800109233018091EC00B1
:1015E00010922C0110922B0185719091ED009E7F3D
:1015F0009093ED0080628F7E8093EC008091EE00EE
:101600008E7F8D7F8093EE001092280148B3E09189
:10161000800020912B0130912C01B901009029010B
:1016200002C0759567950A94E2F7C90197D264E004
:10163000359527956A95E1F702C0959587952A9586
:10164000E2F78E23E0954E23482B48BB80912B0177
:1016500090912C01019690932C0180932B0103C053
:101660008B7F8093EC0080913301813061F0823078
:10167000B9F48091290190912A016AE070E06ED25C
:101680008858934109C08091290190912A0165E011
:1016900070E064D2EAE08E2790932A0180932901BA
:1016A0008091EC0083FD04C0109232011092310150
:1016B0008091EA0083FF11C060912E0170E06F5F9E
:1016C0007F4F61707727F1E06F2780912D0123D53F
:1016D0008091EA00877F8093EA008091E90083305F
:1016E00009F442C018F4823041F0DBC0853009F4BF
:1016F00069C0863009F492C0D4C08091EC0085FFA7
:1017000015C08091ED0082608093ED00E6EAF0E084
:10171000119211921192119220E0E63EF207C1F768
:101720008091EC0080648F7D8093EC008091EC00D0
:1017300082608093EC002091EB0024FF06C01092A1
:10174000330180688093EC009FCD9091ED0023FFE2
:1017500003C0892F816005C08F778093EC00892FAB
:101760008E7F8093ED0090CD8091EC0085FF1BC0B3
:101770009091EE0094609093EE009091ED00926055
:101780009093ED0082608F7E8F7D8093EC001092AD
:1017900084001092830010928200109281001092B7
:1017A0002601109225019091EB008091EE0094FFAC
:1017B00002C081608BC193FF02C0826087C18D7FB0
:1017C0008E7F84C18091EA008F778093EA008091B8
:1017D000ED0086FF0FC0E0912901F0912A01EE0F84
:1017E000FF1FEE5BFF4F41E050E060E070E0808162
:1017F0009181FDD48091ED0084FF46CDE0912901D7
:10180000F0912A01EE0FFF1FEE5BFF4F41E050E029
:1018100060E070E080819181EAD436CD8091EC0067
:1018200080618093EC008091ED0086FF08C080917C
:101830002F018F5F672DA3D190932F0125C0809139
:10184000EB0083FF12C009D66EE57BE080E090E0FC
:1018500029DCDC01CB01865A9F4FAF4FBF4F44E0DC
:1018600050E061E070E0C3D40FC0809123019091FB
:10187000240100902F0102C0959587950A94E2F704
:1018800090932C0180932B018091EC0088608093D1
:10189000EC006091E70080912B0190912C0142D7E0
:1018A000F3CC8091EC0085FFA7C08F7E82608F7D96
:1018B0008093EC00109284001092830010928200BA
:1018C0001092810010922601109225018091EE0065
:1018D0008B7F8093EE008091EB009091ED009860FB
:1018E00094609093ED0086608E7F8093EB0046EAD3
:1018F00050E05C834B83FA01119211921192119284
:1019000050E0E63EF507C1F7E5E8F0E011921192EC
:1019100060E0E53AF607D1F768E070E080E090E03B
:10192000C1DB68E070E080E090E0BCDB062F409017
:10193000A500512C8091270190E065E070E00ED168
:101940002091EE0025FBCC24C0F8D12C7601EE0CC2
:10195000FF1CEE0CFF1C20E030E010E08C509F4F8D
:101960009A838983C901800F911F63E070E013D1CE
:10197000892BA1F02F5F3F4F4B815C814C5F5F4F04
:101980005C834B832031310569F75BD422D580918C
:10199000EE00886080618093EE002EC0EB81FC81B8
:1019A000612C862D672DEBD049815A81490F511D3D
:1019B000DA018C91A201480F511DB101641B750B16
:1019C000D501C40104C0880F991FAA1FBB1F6A95C7
:1019D000D2F74081518162817381842B952BA62B94
:1019E000B72B80839183A283B3836394EE0DFF1D95
:1019F00073E06712D6CFBECF9091EB0093FF13C078
:101A0000B2D484E08093E80000912B0110912C0166
:101A10006091E700C80186D60F5F1F4F10932C011D
:101A200000932B0131CC8091EC0094FF13C08860AF
:101A30008093EC00109233018091290190912A014A
:101A4000880F892F881F990B8093E60081E080938F
:101A500028011ACC10923301877F8093EC0087E035
:101A60008093E800109228018091ED0085FF15C059
:101A700082E08093E6008091EE0082FD03C0A9D44D
:101A800072D43BD48091EC0084FB222720F991E0B2
:101A9000922790FB84F98093EC008091ED0087FF02
:101AA000F3CB809130018F5F8093300163E067D08A
:101AB0008091EE00911103C08860806107C0913071
:101AC00019F48061877F02C08F7E88608093EE006A
:101AD000DBCB83E075DA892B09F0A2CB10932D01C3
:101AE00060E081E048D38091EA0080628F77806473
:101AF0008093EA0095CB83E063DA892B01F584E6D5
:101B000080932D018091EA00806880648093EA00D0
:101B100014E083E055DA892B09F087CB80E050DAB6
:101B2000892BB9F710932D0160E084E024D38091D4
:101B3000EA0080628F7B80688093EA00EACF809120
:101B4000ED0088608093ED0070CB002480FD060ED0
:101B5000660F11F08695D1F7802D08950024552742
:101B600004C0080E591F880F991F009729F0769519
:101B70006795B8F37105B9F7802D952F0895991BD6
:101B800079E004C0991F961708F0961B881F7A9574
:101B9000C9F78095089597FB072E16F4009406D098
:101BA00077FD08D00BD007FC05D03EF490958195C9
:101BB0009F4F0895709561957F4F0895AA1BBB1B99
:101BC00051E107C0AA1FBB1FA617B70710F0A61B3D
:101BD000B70B881F991F5A95A9F780959095BC015E
:101BE000CD010895EE0FFF1F0590F491E02D0994AB
:101BF000A0E0B0E0EDEFFDE08AC0EC016881798102
:101C00008A819B81611571058105910521F464E24A
:101C100079ED8BE597E02DE133EF41E050E038D0EE
:101C200049015A0127EA31E440E050E04DD0690112
:101C30007A01C501B4012CEE34EF4FEF5FEF44D0D1
:101C4000022F132F9A01D701C601800F911FA21FE7
:101C5000B31FB7FF03C00197A109B04888839983D8
:101C6000AA83BB83BC01CD019F77CDB7DEB7ECE083
:101C70006AC0BEDF08958FEE90E0BADF08956093EA
:101C8000EF007093F0008093F1009093F2000895BC
:101C9000052E97FB16F400940FD057FD05D068D0A1
:101CA00007FC02D046F408C0509540953095219528
:101CB0003F4F4F4F5F4F0895909580957095619578
:101CC0007F4F8F4F9F4F089568940013E894A0E0D2
:101CD000B0E0ECE6FEE01DC0EFEFE7F959016A0164
:101CE0005E23550FEE08FE2C87019B01AC019E235D
:101CF000990F660B762FCB015DD0CDB7DEB7EAE04A
:101D000024C02F923F924F925F926F927F928F9258
:101D10009F92AF92BF92CF92DF92EF92FF920F937A
:101D20001F93CF93DF93CDB7DEB7CA1BDB0B0FB684
:101D3000F894DEBF0FBECDBF09942A883988488841
:101D40005F846E847D848C849B84AA84B984C884D7
:101D5000DF80EE80FD800C811B81AA81B981CE0FCE
:101D6000D11D0FB6F894DEBF0FBECDBFED010895B3
:101D7000A1E21A2EAA1BBB1BFD010DC0AA1FBB1F8F
:101D8000EE1FFF1FA217B307E407F50720F0A21B01
:101D9000B30BE40BF50B661F771F881F991F1A946E
:101DA00069F760957095809590959B01AC01BD0198
:101DB000CF010895DF93CF939F92A0E49A2E002441
:101DC000D001E001F00116950795F794E794D794B8
:101DD000C794B794A79448F41068A20FB31FC41F08
:101DE000D51FE61FF71F081E191E220F331F441FA1
:101DF000551F661F771F881F991F9A9421F79D0111
:101E0000AE01BF01C00111249F90CF91DF910895D1
:041E1000F894FFCF74
:101E1400010101000505050505050505050505057F
:101E24000505050504030404F401010000000A008B
:101E340002FFFF808008000000000008000000008E
:101E44000008000000000000000000000000000086
:101E540000000000000C00000080000000400000B2
:101E64000020000000100000000800000004000032
:101E7400000200000001000080000000400000009B
:101E84002000000010000000080000000400000012
:101E940002000000010002040606C4472000780185
:101EA400000000100003070A0C0004070B0C0002DA
:041EB4000507090015
:00000001FF
