:1000000041C065C064C063C062C03FC160C05FC022
:100010005EC05DC0CDC75BC0A5C759C058C0A902AE
:10002000D102FC0229035A038D03C303FC033804E5
:100030007904BD04060552059505F9055406B40674
:100040001A078607F9077208F3087B090B0AA40A46
:10005000460BF20BA80C680D340E0A0FF00F0000CF
:1000600000003700000000003800000000003600EB
:100070000202020202020102040810200102000032
:100080000400960811241FBECFE5D2E0DEBFCDBF2D
:1000900021E0A4E7B1E001C01D92AE3AB207E1F75A
:1000A00011E0A0E6B0E0E4EFFDE102C005900D92A2
:1000B000A437B107D9F710E0C2E4D0E003C021971C
:1000C000FE0180DDC134D107D1F755D891CE98CF4C
:1000D000813031F48AB58F778ABD8AB58F7B07C0AE
:1000E000823039F48AB58F7D8ABD8AB58F7E8ABD0C
:1000F0000895833039F480B78F7D80BF80B78F7EBD
:1001000080BF0895843031F48CB58F7D8CBD8CB563
:100110008F7E8CBD0895CF93DF93282F30E0F901B7
:10012000E458FF4F8491F901EA58FF4FD491F90147
:10013000E059FF4FC491CC2389F08111C9DFEC2F26
:10014000F0E0EE0FFF1FE659FF4FA591B491EC913F
:10015000ED2381E090E021F480E002C080E090E0B7
:10016000DF91CF9108951F93CF93DF93282F30E035
:10017000F901E458FF4F8491F901EA58FF4FD491F7
:10018000F901E059FF4FC491CC23C9F0162F81111A
:100190009FDFEC2FF0E0EE0FFF1FEC59FF4FA59112
:1001A000B4918FB7111106C0F8949C91ED2FE09592
:1001B000E92303C0F894EC91ED2BEC938FBFDF9112
:1001C000CF911F910895CF93DF9390E0FC01EA58FF
:1001D000FF4F2491FC01E059FF4F8491882361F186
:1001E00090E0880F991FFC01E25AFF4FC591D4910E
:1001F000FC01EC59FF4FA591B491611109C09FB763
:10020000F8948881209582238883EC912E230BC05B
:10021000623061F49FB7F8943881822F80958323F0
:100220008883EC912E2B2C939FBF06C08FB7F89438
:10023000E8812E2B28838FBFDF91CF9108953FB7A0
:10024000F89480919A0190919B01A0919C01B091AA
:100250009D0122B708B601FE05C02F3F19F0019697
:10026000A11DB11D3FBFBA2FA92F982F8827820F3C
:10027000911DA11DB11DBC01CD0143E0660F771F8B
:10028000881F991F4A95D1F708951F920F920FB6B4
:100290000F9211242F933F938F939F93AF93BF930C
:1002A0008091960190919701A0919801B091990148
:1002B0003091950126E0230F2D3730F029E8230FE8
:1002C0000396A11DB11D03C00296A11DB11D20936F
:1002D00095018093960190939701A0939801B09314
:1002E000990180919A0190919B01A0919C01B091FC
:1002F0009D010196A11DB11D80939A0190939B01D0
:10030000A0939C01B0939D01BF91AF919F918F915C
:100310003F912F910F900FBE0F901F901895CF9285
:10032000DF92EF92FF92CF93DF936AE070E080E07C
:1003300090E0DAD6C0E0D0E0C12CD12C7601C39495
:1003400065E070E080E090E0CFD6FE01EE0FFF1F89
:10035000EE0FFF1FEB53FF4F20919101DC01CB010A
:10036000820F911DA11DB11DDC01AD59BE4F9C91A5
:1003700080918400890FB701A60104C0440F551F66
:10038000661F771F8A95D2F780819181A281B38100
:10039000842B952BA62BB72B80839183A283B383C9
:1003A00066E070E080E090E09FD6C60FD71FC032B5
:1003B000D10534F2DF91CF91FF90EF90DF90CF9095
:1003C0000895CF92DF92EF92FF92CF93DF93109236
:1003D000A8011092A701CFE0D0E0C12CD12C76016A
:1003E000C39464E070E080E090E07ED6672B682BD9
:1003F000692BA1F42091A7013091A801D701C60172
:100400000C2E04C0880F991FAA1FBB1F0A94D2F795
:10041000822B932B9093A8018093A701219708F733
:10042000DF91CF91FF90EF90DF90CF900895CF9222
:10043000DF92EF92FF92CF93DF93109246011092DA
:100440004501CFE0D0E0C12CD12C7601C39464E00B
:1004500070E080E090E048D6672B682B692BA1F410
:100460002091450130914601D701C6010C2E04C0F0
:10047000880F991FAA1FBB1F0A94D2F7822B932BB8
:100480009093460180934501219708F7DF91CF9122
:10049000FF90EF90DF90CF9008958F929F92AF9250
:1004A000BF92CF92DF92EF92FF92CF93DF931092A1
:1004B000480110924701CFE0D0E085E0C82ED12C52
:1004C000E12CF12C812C912C54018394CE0183706A
:1004D0009927892BE9F4BFDBA7019601C9DB6430BA
:1004E000710581059105A1F02091470130914801E6
:1004F000D501C4010C2E04C0880F991FAA1FBB1F71
:100500000A94D2F7822B932B909348018093470152
:100510002197E0F6DF91CF91FF90EF90DF90CF90A1
:10052000BF90AF909F908F9008954F925F926F927F
:100530007F928F929F92AF92BF92CF92DF92EF9273
:10054000FF920F931F93CF93DF9363E170E080E0FE
:1005500090E0CAD5DC01CB010196A11DB11D8093AD
:10056000940163E170E080E090E0BED5DC01CB0156
:100570000196A11DB11D809393016AE170E080E0B6
:1005800090E0B2D5DC01CB010596A11DB11D809391
:10059000920162EC71E080E090E0A6D5DC01CB0135
:1005A000C296A11DB11D90937B0080937A006CE0F0
:1005B00070E080E090E098D56093840063E070E0A4
:1005C00080E090E091D5DC01CB010396A11DB11D27
:1005D000809378006CE070E080E090E085D56093D7
:1005E000770066E070E080E090E07ED5DC01CB0132
:1005F0000196A11DB11D8093760063E070E080E05C
:1006000090E072D5862F6AE090DA8093910162E0E3
:1006100070E080E090E068D5F62EFF0C05E610E073
:10062000C0E0D0E0CE0183709927892B59F464E0B3
:1006300070E080E090E058D5DC01CB010496A11D6C
:10064000B11D0AC062E070E080E090E04DD5DC01B1
:10065000CB010696A11DB11D682F6F19F8016083AB
:1006600021960F5F1F4FC031D105E1F66EE070E0BB
:1006700080E090E039D5AB01BC01475051096109D8
:10068000710980914D0183FB882780F990E0BA01C0
:1006900055DA9093900180938F0141DE80914E0155
:1006A00082FD03C0FADEC3DE8CDEC12CD12C7601C4
:1006B00080E1882E912CA12CB12C412C512C32019F
:1006C0004394C9DAA5019401D3DAC616D706E80621
:1006D000F906C4F4C0DAA5019401CADAD301C20153
:1006E00004C0880F991FAA1FBB1F6A95D2F72091DB
:1006F0008E01822B80938E01FFEFCF1ADF0AEF0A63
:10070000FF0ADFCF64E070E080E090E0EDD4DC0130
:10071000CB010296A11DB11D8093750063E070E0CE
:1007200080E090E0E1D46093A60162E070E080E0B8
:1007300090E0DAD421E0672B682B692B09F420E0E4
:1007400080914A0120FB80F980934A01DF91CF918B
:100750001F910F91FF90EF90DF90CF90BF90AF90DF
:100760009F908F907F906F905F904F9008958091B1
:100770004C0185FF04C082608F7D80934C01909175
:100780004B0193FF5AC084E0809383002091A20123
:100790003091A301A901330F660B770B809177008D
:1007A000813001F18230B1F5DB01CA010090930183
:1007B00004C0B595A795979587950A94D2F70090B0
:1007C000940104C075956795579547950A94D2F79B
:1007D000842B622FAAD9982F8091920163E0A5D92A
:1007E000892319C0DB01CA010090930104C0B595AB
:1007F000A795979587950A94D2F70090940104C025
:1008000075956795579547950A94D2F7842B622F73
:100810008CD901C080E028B3909182008923909503
:100820009223892B88BB8091A2019091A30101960C
:100830009093A3018093A201089580914C0194FFAD
:1008400013C0886080934C011092AB018091A40189
:100850009091A501880F892F881F990B80936400C0
:1008600081E08093A10108951092AB01877F80936E
:100870004C0187E0809383001092A10180914D018B
:1008800085FF15C082E08093640080914E0182FD57
:1008900003C003DECCDD95DD80914C0184FB222773
:1008A00020F991E0922790FB84F980934C0180918C
:1008B0004D0187FF17C080918D018F5F80938D015F
:1008C00063E04DD980914E01911103C08860806131
:1008D00007C0913019F48061877F02C08F7E8860E5
:1008E00080934E0108952F923F924F925F926F92A4
:1008F0007F928F929F92AF92BF92CF92DF92EF92B0
:10090000FF920F931F93CF93DF93CDB7DEB72C9752
:100910000FB6F894DEBF0FBECDBF80914A0184FFB1
:1009200003C0886080934A0180914C0181FF01C31C
:1009300087FF3BC02091A4013091A50188E592E09A
:10094000821B930B6AE070E016D96032710514F0D7
:100950006FE170E08091AA018F7090E0880F991F7D
:10096000880F991FFC01EB53FF4F77FF02C060E037
:1009700070E001E010E020E030E004C0000F111F43
:10098000221F331F6A95D2F7DC01AB53BF4F4D9145
:100990005D916D917C91D901C801842B952BA62B7B
:1009A000B72B80839183A283B38380914D0180FF15
:1009B0000DC0E091AA01F0E0EE0FFF1FEE0FFF1F48
:1009C000EB53FF4F108211821282138240914E012D
:1009D00040FF55C080919E0190E0019760E170E07A
:1009E000CAD86091A4017091A5019C0133276C3293
:1009F00051E07507B4F481E090E0A0E0B0E004C0FD
:100A0000880F991FAA1FBB1F2A95D2F72091470173
:100A100030914801822B932B90934801809347019A
:100A20002EC060397140B4F481E090E0A0E0B0E005
:100A300004C0880F991FAA1FBB1F2A95D2F72091C7
:100A4000A7013091A801822B932B9093A80180934A
:100A5000A70115C081E090E0A0E0B0E004C0880FDD
:100A6000991FAA1FBB1F2A95D2F7209145013091EB
:100A70004601822B932B909346018093450141FFC1
:100A800033C080919E0190E0019760E170E073D8DF
:100A9000282F81E090E0A0E0B0E004C0880F991F0B
:100AA000AA1FBB1F2A95D2F78095909520914701E8
:100AB000309148012823392330934801209347017E
:100AC0002091450130914601282339233093460176
:100AD000209345012091A7013091A80182239323FF
:100AE0009093A8018093A70180914A0180FF09C0DB
:100AF0008091AA01809590914B0180FB95F990938C
:100B00004B0180914B0185FB992790F980917800EA
:100B1000890F80937900806481BD789481B5806469
:100B200081BD40914E012091AA012983209162004C
:100B3000309163003B832A8344FD03C043FDA6C07C
:100B40001DC18091A9018430C9F3E981EF71F0E002
:100B5000EE0FFF1FEE0FFF1FEB53FF4F80809180C2
:100B6000A280B38020918F01309190013D832C832E
:100B700020907500312C59815F70852F90E0209175
:100B80008E0130E002C0359527955A95E2F7217025
:100B9000332761E070E0DB0102C0AA0FBB1F2A957A
:100BA000E2F7BF83AE83E0918300EC8770908C0105
:100BB00020E030E0BC016B597F4F79876887DC010A
:100BC000AD5ABE4FBB87AA87C12CD12C7601C394E6
:100BD00003E010E0D501C401022E04C0B695A7952C
:100BE000979587950A94D2F780FF44C08A819B81AC
:100BF000B101C1D7BC018C819D81A0D7EFE1F0E0AC
:100C0000E21BF30BE81BF90BE132F10514F03C9702
:100C100002C0F7FD3C96872D90E0EE0FFF1FE25ECD
:100C2000FF4F65917491FC01EE0FFF1FDF01AC5780
:100C3000BE4F0E8002C0769567950A94E2F76D93D9
:100C40007C93A885B985BC91BC87E458FE4FAA85E2
:100C5000BB855C915A5F2601370104C0440C551CCA
:100C6000661C771C5A95D2F7518240820196B801D2
:100C700082D7782E2F5F3F4F2032310509F0AACF5F
:100C800070928C01EC85E093830058CF8091A9018C
:100C9000843009F473C0E981EF71F0E0EE0FFF1FBB
:100CA000EB57FF4F20803180E0908F01F090900152
:100CB0000091750010E029812F7030E080918C0147
:100CC0001D821C82B0E24B2E512CA9014D5A5E4F61
:100CD0003A0192E0892E912CA12CB12C23E0C22E56
:100CE000D12CA1010C8002C0569547950A94E2F7D9
:100CF00040FF38C0282F30E08A819B81B8013BD764
:100D0000BC01C7011BD7F2014C815D81E41BF50BCF
:100D1000E81BF90BEE0FFF1FEC5FFF4FA591B4919D
:100D2000A901440F551FFA01EC57FE4F73E0B69529
:100D3000A7957A95E1F7B183A083FA01E458FE4FB5
:100D4000D3018C918A5FB501A40104C0440F551FE3
:100D5000661F771F8A95D2F751834083C901019698
:100D6000B60109D72C813D812F5F3F4F3D832C83F6
:100D70002032310509F0B5CF80938C0189818F5FD6
:100D80008093AA018032B8F08A819B81019690936A
:100D9000630080936200029744F080914B0181FDD3
:100DA00046DB80914B0182FD0CDB1092A301109277
:100DB000A2011092AA0180916200909163000497B1
:100DC0000CF49BC0109263001092620080914C0161
:100DD00086FD7FC080914D0182FF7BC03CD72BE018
:100DE00030E040E050E044D720919101DC01CB019C
:100DF000820F911DA11DB11DFC01ED59FE4F81E037
:100E000090E0A0E0B0E06C017D01008004C0CC0C5B
:100E1000DD1CEE1CFF1C0A94D2F76FE170E080E04D
:100E200090E062D1660F771F660F771FFB01EB53CF
:100E3000FF4F0081118122813381D701C601802BB0
:100E4000912BA22BB32B80839183A283B38360E287
:100E500070E080E090E048D170E0660F771F660F89
:100E6000771FFB01EB53FF4FC080D180E280F380FE
:100E700080E090E097018601082E04C03695279502
:100E8000179507950A94D2F700FF1FC0FB01EB539B
:100E9000FF4F01E010E020E030E0B901A80104C0FC
:100EA000440F551F661F771F8A95D2F7DB01CA01D1
:100EB00080959095A095B0958C219D21AE21BF2164
:100EC00080839183A283B38304C00196803291050D
:100ED00089F6809161008F5F8093610080914E015F
:100EE00083FB222720F991E0922790FB83F98093DE
:100EF0004E0180914B0180FDD0DA809161008330FA
:100F000060F010926100809160008F5F80936000BC
:100F1000853018F00ADB1092600081E090E0909339
:100F2000A3018093A20184E090E09093A0018093BC
:100F30009F012C960FB6F894DEBF0FBECDBFDF9198
:100F4000CF911F910F91FF90EF90DF90CF90BF90C6
:100F5000AF909F908F907F906F905F904F903F9059
:100F60002F9008951F920F920FB60F9211242F9376
:100F70003F934F935F936F937F938F939F93AF9321
:100F8000BF93EF93FF9380914A0185FFACDCFF9103
:100F9000EF91BF91AF919F918F917F916F915F91F1
:100FA0004F913F912F910F900FBE0F901F9018956A
:100FB0001F920F920FB60F921124BF92CF92DF9221
:100FC000EF92FF920F931F932F933F934F935F9353
:100FD0006F937F938F939F93AF93BF93CF93DF9341
:100FE000EF93FF9380914A0186FF46C040916400D1
:100FF0006091A10170E020918300C4E8D1E0E4E7B2
:10100000F1E0ACE7B1E0B12C09911991042E02C0D6
:10101000000F111F0A94E2F780819181080F191FB8
:1010200001931193CD90DC901197C601860F971F05
:10103000EE24E394F12CCD2811F4E12CF12C8E193F
:101040009F098D939D93012F110F110B000F012FFD
:10105000001F110B102F1170B10E022E02C09695B9
:1010600087950A94E2F78027B80E81E0EC37F807FD
:1010700059F680E88B0D8BBD80919F019091A00166
:1010800001969093A00180939F01809180009091A0
:10109000810001969093810080938000FF91EF91F1
:1010A000DF91CF91BF91AF919F918F917F916F9180
:1010B0005F914F913F912F911F910F91FF90EF9072
:1010C000DF90CF90BF900F900FBE0F901F9018959C
:1010D00081E087B987B187B9369A3699FECF84B156
:1010E00025B190E0922B0895CF93DF9300D000D0EC
:1010F000CDB7DEB7611571058105910569F09B01DA
:10110000AC0169833A834B835C83A5D529813A81FD
:101110004B815C81ADD503C060E070E0CB010F90E6
:101120000F900F900F90DF91CF91089563E170E0E1
:1011300080E090E0D9DFDC01CB010196A11DB11D5B
:101140008093940163E170E080E090E0CDDFDC010A
:10115000CB010196A11DB11D809393016AE170E05E
:1011600080E090E0C1DFDC01CB010596A11DB11D3F
:10117000809392010895CF93DF93CDB7DEB72A977E
:101180000FB6F894DEBF0FBECDBF81B781BF8AB561
:1011900082608ABD8AB581608ABD83B7887F83609B
:1011A00083BF789489B7826089BF80B7807F80BF12
:1011B00080B7806880BF8CB580648CBD8FEF8DBD9B
:1011C00080B7876080BF86B18877866886B9379A8E
:1011D00061E084E0F8D761E081E0F5D762E080E08B
:1011E000F2D762E083E0EFD762E082E0ECD780E004
:1011F00092D7892B61F583E08ED7892B41F504E0E6
:10120000F2E0FF2E11E08091A901811134C080E04D
:1012100082D7892B61F080914A018F778064806149
:1012200080934A011093A90110928200ECCF83E0D1
:1012300072D7892B41F380914A0180688F7B80614E
:1012400080934A010093A901F0928200DCCF80E0F4
:1012500062D7892B09F044C484E68093A901809168
:101260004A018068806480934A0111E080E053D78E
:10127000892B09F423C42CDF6C0161E081E073D772
:10128000DED77B01E8EC8E2E912CA12CB12CD7D788
:101290006E197F09683E734048F031E0831A910867
:1012A000A108B10848E1E41A4CEFF40A8114910452
:1012B000A104B10461F70CDFC80ED91E60E081E023
:1012C00052D7B601695F734819F080E090E0C7D447
:1012D00019BE81E080BF80E68CBD80E88BBD8AE0CE
:1012E00083BF83E689BD80E189BF81B78E5F81BFFF
:1012F00080917900806481BD9AD863D816D900E1C5
:1013000010E0C12CD12C7601C39480914A0187FF53
:10131000B6C080914C0184FDB2C020919F013091F4
:10132000A001F901F595E795F595E795F093A301EF
:10133000E093A20180917A0090917B00E817F90771
:101340000CF09DC080914B0186FF99C08091AA014D
:1013500060E470E0681B7109CB01B8010CD4809384
:101360009E014091470150914801DA0102C0B695B3
:10137000A7958A95E2F7A0FF1AC048B3A091820012
:10138000B90185E0759567958A95E1F7CF01D6D3C8
:1013900056E0359527955A95E1F702C095958795C2
:1013A0002A95E2F78A23A0954A23842B88BB809153
:1013B00045019091460100909E0102C09695879547
:1013C0000A94E2F780FF2BC02091A2013091A30183
:1013D00080917A0090917B00959587952817390721
:1013E000F4F4C9018056994748B3E0918200BC01EA
:1013F000A3E075956795AA95E1F7A0D30090A401A5
:1014000002C0359527950A94E2F702C09595879515
:101410002A95E2F78E23E0954E23842B88BB80919A
:10142000A7019091A80100909E0102C09695879512
:101430000A94E2F780FF23C068B370918200809124
:101440009F019091A001AC010090A40102C05595AC
:1014500047950A94E2F7452F550F550B4595292FCF
:10146000332727FD3A95242B352B02C09595879578
:101470002A95E2F7872370956723862B88BB28DEA1
:10148000E0E7F2E0E81BF90BCF01F7FF05C010928F
:10149000A5011092A4010FC08935F2E09F072CF43A
:1014A0009093A5018093A40106C028E532E0309313
:1014B000A5012093A40180914C0183FF09C0809174
:1014C000A4019091A5019093AD018093AC0104C05B
:1014D0001092AD011092AC0186B3282F217031E03B
:1014E000232790914B0120FB93F983FB882780F9F8
:1014F000832780FB94F990934B0180914A0185FFEB
:1015000045C08091A90107D621E0892B09F420E08C
:1015100080914A0120FB81F980934A012223D9F06E
:1015200082FD19C0846080934A018091800090916F
:10153000810096958795A0E0B0E080937C00909321
:101540007D00A0937E00B0937F00109281001092E6
:101550008000C9D91BC080914A0182FF17C0209129
:10156000800030918100A90160E070E080907C00F3
:1015700090907D00A0907E00B0907F00841695062C
:10158000A606B70618F48B7F80934A0180914B0121
:1015900087FB992790F983FF0BC0911112C090919E
:1015A0004D01906190934D01806880934B010FC075
:1015B000992339F08F7780934B0180914D018062A0
:1015C00004C080914D018F7E8F7D80934D0190915D
:1015D0004B0180914C0194FB332730F994FF0BC0F1
:1015E00080FD12C020914D01206420934D01816047
:1015F00080934C010FC080FF07C08E7F80934C0109
:1016000080914D01806804C080914D018F7B8F7760
:1016100080934D0180914C0193FF69C0332309F4FD
:1016200066C082FD3AC0846080934C01809149017C
:101630008F5F8B3018F48093490103C041E04093E1
:10164000490180914D0181FD02C06FD70CC065E05A
:1016500070E080E090E048DDDC01CB010596A11D43
:10166000B11D809383001092AB0180914C011092C8
:10167000A3011092A201857190914D019E7F9093DC
:101680004D0180628F7E80934C0180914E018E7F50
:101690008D7F80934E011092A10148B3E0918200AA
:1016A0002091A2013091A301B9010090A40102C0D0
:1016B000759567950A94E2F7C90140D254E03595D3
:1016C00027955A95E1F702C0959587952A95E2F7F7
:1016D0008E23E0954E23842B88BB8091A2019091AC
:1016E000A30101969093A3018093A20103C08B7F75
:1016F00080934C018091AB01813061F08230B9F46C
:101700008091A4019091A5016AE070E017D28858F9
:10171000934109C08091A4019091A50165E070E01A
:101720000DD25AE085279093A5018093A401809162
:101730004C0183FD04C01092AD011092AC01809168
:101740004A0183FF11C06091AA0170E06F5F7F4F73
:101750006170772781E068278091A90104D5809185
:101760004A01877F80934A0180914901833009F4BF
:1017700048C030F4813009F47CC0823059F0C5CDC6
:10178000883009F46CC08A3009F475C0843009F0DF
:10179000BCCD6FC080914C0185FF15C080914D017B
:1017A000826080934D01E5ECF0E01192119211926C
:1017B000119291E0E534F907C1F780914C01806402
:1017C0008F7D80934C0180914C01826080934C010D
:1017D00020914B0124FF06C01092AB0180688093DA
:1017E0004C0193CD90914D0123FF03C0892F81605F
:1017F00005C08F7780934C01892F8E7F80934D0198
:1018000084CD80914C0185FF1BC090914E01946066
:1018100090934E0190914D01926090934D018260A2
:101820008F7E8F7D80934C0110924801109247016A
:1018300010924601109245011092A8011092A70142
:1018400090914B0180914E0194FF02C0816033C1A1
:1018500093FF02C082602FC18D7F8E7F2CC180914B
:101860004C0185FF06C05BD580914C018F7D809334
:101870004C017DD74ACD80914C0185FF46CD8091AA
:101880004E018B7F80934E0180914B018560826079
:1018900080934B0180914D018860846080934D015D
:1018A00025EC30E03C832B83F901119211921192C7
:1018B000119231E0E534F307C1F795E8892E90E005
:1018C000992EF4011192119240E0E53CF407D1F712
:1018D00068E070E080E090E007DC662E68E070E091
:1018E00080E090E001DC462F2091840030E0809180
:1018F000A60190E065E070E021D1E0E0F0E0442E48
:10190000512C712C8D599E4F5C011C015FEF251AE3
:10191000350AAC014E5F5F4F5A834983AB81BC816E
:101920001D921D921D921C921397CF01840D951D3F
:10193000B30121D1892B69F131964B815C814C5FD8
:101940005F4F5C834B83E032F10541F767E070E065
:1019500080E090E0C9DB1B012C01B2E02B0E311CB2
:10196000411C511C60908400712C8091A60190E074
:1019700065E070E0E3D05C01E22DF0E0FC83EB83F6
:10198000EE0FFF1FFA83E983E0E0F0E0222D30E064
:1019900042C0D1018C91A901480F511DCA01B70164
:1019A000A60104C0440F551F661F771F8A95D2F702
:1019B000D5018C91D901A80FB11DBE83AD83D7018C
:1019C000C6010D8004C0880F991FAA1FBB1F0A946F
:1019D000D2F7482B592B6A2B7B2BA981BA818C918A
:1019E000D901A80FB11DBE83AD83D701C6010D80FB
:1019F00004C0880F991FAA1FBB1F0A94D2F7482B57
:101A0000592B6A2B7B2BAB81BC814D935D936D93DE
:101A10007C93139791CFCF01B901ADD08E0F9F1F4B
:101A20006EEF7FEF8BD08A0D9B1DDC01AD59BE4F51
:101A30008C91A301480F511DCA01B701A60104C032
:101A4000440F551F661F771F8A95D2F7D4018D91D9
:101A50009C911197842B952B8D939C934B815C814A
:101A6000E40FF51F49815A81840E951EE032F1057D
:101A700094F255D480914C01826080934C010DD535
:101A8000D6D49FD468E878E8709348016093470102
:101A900082E292E290934601809345011093A8015F
:101AA0000093A70180914C018F7D80934C01809120
:101AB0004E018860806180934E0127CC83E02BD358
:101AC000892B09F0D3CB1093A90160E081E07BD38F
:101AD00080914A0180628F77806480934A01C6CBEF
:101AE00083E019D3892B09F0C6CB84E68093A90142
:101AF00080914A018068806480934A0114E083E009
:101B00000AD3892B09F0B7CB80E005D3892BB9F72D
:101B10001093A90160E084E056D380914A0180626D
:101B20008F7B806880934A01EACF002480FD060EF7
:101B3000660F11F08695D1F7802D08950024552762
:101B400004C0080E591F880F991F009729F0769539
:101B50006795B8F37105B9F7802D952F0895991BF6
:101B600079E004C0991F961708F0961B881F7A9594
:101B7000C9F78095089597FB072E16F4009406D0B8
:101B800077FD08D00BD007FC05D03EF490958195E9
:101B90009F4F0895709561957F4F0895AA1BBB1BB9
:101BA00051E107C0AA1FBB1FA617B70710F0A61B5D
:101BB000B70B881F991F5A95A9F780959095BC017E
:101BC000CD010895EE0FFF1F0590F491E02D0994CB
:101BD000A0E0B0E0EDEEFDE08AC0EC016881798123
:101BE0008A819B81611571058105910521F464E26B
:101BF00079ED8BE597E02DE133EF41E050E038D00F
:101C000049015A0127EA31E440E050E04DD0690132
:101C10007A01C501B4012CEE34EF4FEF5FEF44D0F1
:101C2000022F132F9A01D701C601800F911FA21F07
:101C3000B31FB7FF03C00197A109B04888839983F8
:101C4000AA83BB83BC01CD019F77CDB7DEB7ECE0A3
:101C50006AC0BEDF08958FE491E0BADF0895609313
:101C60004F01709350018093510190935201089558
:101C7000052E97FB16F400940FD057FD05D068D0C1
:101C800007FC02D046F408C0509540953095219548
:101C90003F4F4F4F5F4F0895909580957095619598
:101CA0007F4F8F4F9F4F089568940013E894A0E0F2
:101CB000B0E0ECE5FEE01DC0EFEFE7F959016A0185
:101CC0005E23550FEE08FE2C87019B01AC019E237D
:101CD000990F660B762FCB015DD0CDB7DEB7EAE06A
:101CE00024C02F923F924F925F926F927F928F9279
:101CF0009F92AF92BF92CF92DF92EF92FF920F939B
:101D00001F93CF93DF93CDB7DEB7CA1BDB0B0FB6A4
:101D1000F894DEBF0FBECDBF09942A883988488861
:101D20005F846E847D848C849B84AA84B984C884F7
:101D3000DF80EE80FD800C811B81AA81B981CE0FEE
:101D4000D11D0FB6F894DEBF0FBECDBFED010895D3
:101D5000A1E21A2EAA1BBB1BFD010DC0AA1FBB1FAF
:101D6000EE1FFF1FA217B307E407F50720F0A21B21
:101D7000B30BE40BF50B661F771F881F991F1A948E
:101D800069F760957095809590959B01AC01BD01B8
:101D9000CF010895DF93CF939F92A0E49A2E002461
:101DA000D001E001F00116950795F794E794D794D8
:101DB000C794B794A79448F41068A20FB31FC41F28
:101DC000D51FE61FF71F081E191E220F331F441FC1
:101DD000551F661F771F881F991F9A9421F79D0131
:101DE000AE01BF01C00111249F90CF91DF910895F2
:041DF000F894FFCF95
:101DF4000101010002060707060707080703070792
:101E040002070707010404040304F40101000000AD
:101E14000A0002060C080000000000080000000090
:101E240000080000000000000000000000000000A6
:101E3400000000000000010000000000000001009C
:101E4400000000000100000000000100000000008C
:101E540001000000000000008000000040000000BD
:101E64002000000010000000080000000400000032
:101E7400020000000100008000000040000000207B
:101E84000000001000000008000000040000000230
:101E9400000000010000800000004000000020005D
:101EA4000000100000000800000004000000020010
:101EB400000001000080000000400000002000003D
:101EC40000100000000800000004000000020000F0
:101ED4000001000000FFFF80800AC44720081801A9
:101EE40000000005050505050505050505050505AD
:101EF4000505050003070A0C0004070B0C00020586
:041F040007092000A9
:0200000002C03C
:00000001FF