:1000000041C065C064C063C062C0C6C060C05FC09C
:100010005EC05DC061C75BC0F8C659C058C0000073
:100020000000380000000000360002020202020256
:10003000010204081020010200000400A902D102FC
:10004000FC0229035A038D03C303FC03380479041B
:10005000BD04060552059505F9055406B4061A07B0
:100060008607F9077208F3087B090B0AA40A460BF6
:10007000F20BA80C680D340E0A0FF00F0000000000
:100080003700D80D11241FBECFE5D2E0DEBFCDBFB3
:1000900021E0A4E5B1E001C01D92A739B207E1F764
:1000A00011E0A0E6B0E0E4ECFEE102C005900D92A4
:1000B000A435B107D9F710E0C2E4D0E003C021971E
:1000C000FE01E8DDC134D107D1F7A1D7F9CE98CF31
:1000D00081E087B987B187B9369A3699FECF84B166
:1000E00025B190E0922B0895CF93DF93282F30E035
:1000F000F901EA5CFF4F8491F901E05DFF4FD49173
:10010000F901E65DFF4FC491CC2389F08111B0D095
:10011000EC2FF0E0EE0FFF1FEC5DFF4FA591B491C7
:10012000EC91ED2381E090E021F480E002C080E0DA
:1001300090E0DF91CF9108951F93CF93DF93282F05
:1001400030E0F901EA5CFF4F8491F901E05DFF4F77
:10015000D491F901E65DFF4FC491CC23C9F0162F6D
:10016000811186D0EC2FF0E0EE0FFF1FE25EFF4F13
:10017000A591B4918FB7111106C0F8949C91ED2F01
:10018000E095E92303C0F894EC91ED2BEC938FBF3D
:10019000DF91CF911F9108951F920F920FB60F928A
:1001A00011242F933F938F939F93AF93BF9380918D
:1001B0006F0190917001A0917101B0917201309125
:1001C0006E0126E0230F2D3730F029E8230F039628
:1001D000A11DB11D03C00296A11DB11D20936E018A
:1001E00080936F0190937001A0937101B09372019D
:1001F00080916A0190916B01A0916C01B0916D01A9
:100200000196A11DB11D80936A0190936B01A0938B
:100210006C01B0936D01BF91AF919F918F913F9110
:100220002F910F900FBE0F901F901895CF93DF93D3
:1002300000D000D0CDB7DEB76115710581059105FD
:1002400069F09B01AC0169833A834B835C836BDD6E
:1002500029813A814B815C8173DD03C060E070E0ED
:10026000CB010F900F900F900F90DF91CF910895D9
:10027000813031F48AB58F778ABD8AB58F7B07C00C
:10028000823039F48AB58F7D8ABD8AB58F7E8ABD6A
:100290000895833039F480B78F7D80BF80B78F7E1B
:1002A00080BF0895843031F48CB58F7D8CBD8CB5C2
:1002B0008F7E8CBD0895CF93DF9390E0FC01E05DCD
:1002C000FF4F2491FC01E65DFF4F8491882361F18B
:1002D00090E0880F991FFC01E458FF4FC591D4911D
:1002E000FC01E25EFF4FA591B491611109C09FB777
:1002F000F8948881209582238883EC912E230BC06B
:10030000623061F49FB7F8943881822F80958323FF
:100310008883EC912E2B2C939FBF06C08FB7F89447
:10032000E8812E2B28838FBFDF91CF910895789499
:1003300021B5206421BD20918F0130E0F901EE0F3D
:10034000FF1FDF01A957BE4F02C0959587956A959B
:10035000E2F78D939C93E158FE4F4F5F5F4F440F40
:10036000440F10824183C901019663E070E06BDCA9
:1003700080938F010895EDE6F0E01192119280E0F4
:10038000ED3AF807D1F708958091350181FF0DC04E
:10039000809196018B3018F085E595E502C089E4DF
:1003A00092E990935D0180935C010895CF92DF9272
:1003B000EF92FF92CF93DF938091350181FF29C0A7
:1003C00010926A0010926900CFE0D0E0C12CD12CCD
:1003D0007601C39466E070E080E090E027DF672B51
:1003E000682B692BA1F42091690030916A00D70134
:1003F000C6010C2E04C0880F991FAA1FBB1F0A94A8
:10040000D2F7822B932B90936A00809369002197F7
:1004100008F7DF91CF91FF90EF90DF90CF90089594
:1004200082DC22E030E040E050E08ADC672B682B81
:10043000692B19F082E292E202C082E994EA909379
:100440006C0080936B00089586E080932E0163E139
:1004500070E080E090E0EADEDC01CB010196A11DB6
:10046000B11D8093960163E170E080E090E0DEDEF4
:10047000DC01CB010196A11DB11D809395016AE1BC
:1004800070E080E090E0D2DEDC01CB010596A11D9A
:10049000B11D8093940147DC25E030E040E050E05E
:1004A0004FDC60932F0162EC71E080E090E0BEDEF3
:1004B000DC01CB01C296A11DB11D90936200809317
:1004C00061006CE070E080E090E0B0DE60932D01B0
:1004D00066E070E080E090E0A9DEDC01CB010496EC
:1004E000A11DB11D880F991FAA1FBB1F90933E012C
:1004F00080933D0164E070E080E090E097DE6093DF
:10050000300163E070E080E090E090DE60935E0197
:1005100066E070E080E090E089DE60933C016EE090
:1005200070E080E090E082DEAB01BC0147505109F1
:10053000610971098091370185FB882780F990E076
:10054000BA0164DB9093930180939201ECDB22E08B
:1005500030E040E050E0F4DB21E0672B682B692BB2
:1005600009F420E08091340120FB82F9809334016A
:10057000DADB23E030E040E050E0E2DB21E0672B13
:10058000682B692B09F020E08091380120FB87F966
:1005900080933801C8DB22E030E040E050E0D0DB5F
:1005A00021E0672B682B692B09F420E08091390149
:1005B00020FB80F9809339018091380184FD03C0CC
:1005C0002FDFF4DEE1DE1092910110929001089588
:1005D0008091360187FF3EC08091370183FD0BC0BB
:1005E000EDEAF0E0119211921192119281E0ED3258
:1005F000F807C1F7C0DE10923201209136012F7B3F
:100600008091380190913701996028602F7D209367
:1006100036012091350128612460209335019F7DAA
:100620009061909337018F7E80648062809338015F
:1006300010926C0010926B0010926A001092690088
:1006400010925D0110925C01EBDE809136018F7794
:1006500080933601809136018860809336018091C5
:10066000350185FF04C08091370184600CC086FF8E
:1006700006C01092320180913701826004C08091DF
:1006800037018B7F8D7F809337010895CF92DF9262
:10069000EF92FF920F931F939C01562FBC01990F6D
:1006A000880B990B409196016B017C015230E1F06F
:1006B0005330B9F1513009F04BC00090950104C09E
:1006C000F594E794D794C7940A94D2F7DC01CB0150
:1006D00004C0B595A795979587954A95D2F78C292B
:1006E000622F8BDA682F4DC00090950104C0F594FD
:1006F000E794D794C7940A94D2F7DC01CB0104C0E5
:10070000B595A795979587954A95D2F78C29622F2D
:1007100074DA982F8091940163E06FDA692F68236F
:1007200030C004C0F594E794D794C7944A95D2F7A3
:100730002C21309195013695DC01CB0104C0B59593
:10074000A795979587953A95D2F7622F682B19C090
:100750000090940104C0F594E794D794C7940A9448
:10076000D2F78B019C0104C0359527951795079505
:100770004A95D2F7A90198012C213D214E215F21F4
:10078000DFDA98B380916000682380958923682B15
:1007900068BB1F910F91FF90EF90DF90CF9008956D
:1007A0002F923F924F925F926F927F928F929F9281
:1007B000AF92BF92CF92DF92EF92FF920F931F936F
:1007C000CF93DF93CDB7DEB729970FB6F894DEBF8E
:1007D0000FBECDBF8091340186FF03C0806280933D
:1007E00034018091360183FFF7C28091370181FF88
:1007F00090C04091560150915701E09165012091C0
:10080000900130919101411504E05007D4F06E2F12
:100810006F7081E090E0A0E0B0E004C0880F991F05
:10082000AA1FBB1F6A95D2F7822B932B909391013D
:100830008093900140585140509357014093560186
:1008400015C04E2F4F7081E090E0A0E0B0E004C0F2
:10085000880F991FAA1FBB1F4A95D2F780959095C4
:1008600082239323909391018093900120913401EE
:100870008091560190915701F0E021FF27C0EE0FC3
:10088000FF1FEE0FFF1FE355FF4F55E0959587952E
:100890005A95E1F741E050E060E070E07A018B01A9
:1008A00004C0EE0CFF1C001F111F8A95D2F7D8015F
:1008B000C7014081518162817381842B952BA62BC6
:1008C000B72B80839183A283B3831EC0EE0FFF1FDB
:1008D000E359FF4F36E0959587953A95E1F741E06A
:1008E00050E060E070E08A019B0104C0000F111F1E
:1008F000221F331F8A95D2F7D901C8012081318187
:10090000822B932B91838083809137018D7F8093FD
:1009100037018091370182FF1BC090913401E09133
:100920006501F0E091FF0BC0EE0FFF1FEE0FFF1F00
:10093000E355FF4F108211821282138209C0EE0F1D
:10094000FF1FE359FF4F118210828B7F8093370185
:100950002091380122FF5EC04091600150916101F9
:100960008091650190E001968F7099274C3211E0DB
:100970005107D4F441E050E060E070E07A018B016F
:1009800004C0EE0CFF1C001F111F8A95D2F7D8017E
:10099000C70140916B0050916C00842B952B909374
:1009A0006C0080936B0036C040395140D4F441E074
:1009B00050E060E070E07A018B0104C0EE0CFF1C97
:1009C000001F111F8A95D2F7D801C70140915C0121
:1009D00050915D01842B952B90935D0180935C0178
:1009E00019C041E050E060E070E07A018B0104C082
:1009F000EE0CFF1C001F111F8A95D2F7D801C7010A
:100A00004091690050916A00842B952B90936A0065
:100A10008093690023FF32C02091650130E02F5F91
:100A20003F4F2F70332781E090E0A0E0B0E004C09A
:100A3000880F991FAA1FBB1F2A95D2F78095909502
:100A400020916B0030916C002823392330936C0087
:100A500020936B002091690030916A00282339238C
:100A600030936A002093690020915C0130915D0110
:100A70008223932390935D0180935C01789480900E
:100A8000380186FAFF24F0F8F98286FC0BC085FC59
:100A900009C0809165018F5F80936501803208F005
:100AA00018C137C180916401843099F35091650178
:100AB000052F10E01F830E83E0909201F0909301C8
:100AC000C0903A01D0903B0100913C0110E0409170
:100AD000370145FB442740F9912C252F2F70809139
:100AE00090019091910102C0959587952A95E2F722
:100AF00081709927A1E0B0E09D0102C0220F331F51
:100B00008A95E2F73B832A8360912E0170E09B0176
:100B10002B5F3F4F809154019091550102C09595F4
:100B200087955A95E2F781709927820F931F2D01BF
:100B300002C0440C551C8A95E2F785FA882480F897
:100B400020918F018091390180FB222420F8312CE3
:100B500033E0230E311C6A5F7F4F3D0102C0660CFB
:100B6000771C6A95E2F7198618868E819F81880F17
:100B7000991F880F991FBC0163557F4F7D836C833C
:100B8000A0E2AA2EB12CEE81FF81EE0FFF1FCF0154
:100B900083599F4F9F838E833981332309F449C042
:100BA000EC81FD8180819181A281B381088404C0A0
:100BB000B695A795979587950A94D2F780FF39C087
:100BC000C601B80140D8BC01C70120D8642F792DD7
:100BD0001DD8BC01A885B9856A1B7B0BCB014F963C
:100BE0008032910514F00C9704C097FF02C0CB012E
:100BF0008B9630E0B50127D8FC01EE0FFF1FE45CB7
:100C0000FF4F65917491C901880F991FFC01E95745
:100C1000FE4F0A8002C0769567950A94E2F77183C9
:100C20006083FC01E158FE4F518240822F5F3F4FAD
:100C30002370882009F442C0EE81FF818081918178
:100C4000088402C0969587950A94E2F780FF36C023
:100C5000C601B801F8D7BC01C701D8D7642F792DD8
:100C6000D5D768857985861B970BBC01615E7F4F60
:100C700077FF02C0645F7F4F30E0CB010397B5017F
:100C8000E2D7FC01EE0FFF1FE45CFF4F659174910A
:100C9000C901880F991FFC01E957FE4F022C02C0C1
:100CA000769567950A94E2F771836083FC01E158B9
:100CB000FE4F718260822F5F3F4F23708885998538
:100CC000019699878887809709F066CF20938F01D6
:100CD000E0CE80913A0190913B01019690933B01C7
:100CE00080933A0180FD0BC01ED822E030E040E046
:100CF00050E026D8613071058105910521F0809181
:100D0000350183FD53DB1092630110926201109252
:100D1000650180913A0190913B0104970CF450C019
:100D200010923B0110923A018091370180FD44C03E
:100D300084FF42C060E270E080E090E077DA70E02B
:100D4000660F771F660F771FFB01E355FF4FC080CB
:100D5000D180E280F38080E090E097018601082E48
:100D600004C036952795179507950A94D2F700FF8A
:100D70001FC0FB01E355FF4F01E010E020E030E031
:100D8000B901A80104C0440F551F661F771F8A953B
:100D9000D2F7DB01CA0180959095A095B0958C2182
:100DA0009D21AE21BF2180839183A283B38304C0A0
:100DB00001968032910589F68091350182FD30DB04
:100DC00081E090E0909363018093620184E090E081
:100DD00090935B0180935A0129960FB6F894DEBF79
:100DE0000FBECDBFDF91CF911F910F91FF90EF907C
:100DF000DF90CF90BF90AF909F908F907F906F903B
:100E00005F904F903F902F9008951F920F920FB6D2
:100E10000F9211242F933F934F935F936F937F9380
:100E20008F939F93AF93BF93EF93FF9380917B0139
:100E300090917C01A0917D01B0917E010296A11D4F
:100E4000B11D2091350127FB332730F9831B910910
:100E5000A109B10980937B0190937C01A0937D014E
:100E6000B0937E013091340137FD25C040913D01A2
:100E700050913E01052E000C660B770B4817590761
:100E80006A077B07C0F410927B0110927C011092DC
:100E90007D0110927E0132FF0DC08091650190E0CE
:100EA00001968170992731E08327922F80FB97F973
:100EB0009093350175DCFF91EF91BF91AF919F91B8
:100EC0008F917F916F915F914F913F912F910F90F3
:100ED0000FBE0F901F9018951F920F920FB60F9292
:100EE00011249F92AF92BF92CF92DF92EF92FF9226
:100EF0000F931F932F933F934F935F936F937F9322
:100F00008F939F93AF93BF93CF93DF93EF93FF9311
:100F10008091350180FF4DC0C0905801D09059019B
:100F20004091310160915F0170E0A0902E0107E8CF
:100F300011E0E3E7F1E0AFE7B1E0912CE80129919E
:100F400039918E012C0D3D1D042E02C0220F331F3E
:100F50000A94E2F780819181280F391F2193319300
:100F6000ED90FC901197C701860F971FC1E0D0E06C
:100F7000EF2811F4C0E0D0E08C1B9D0B8D939D9366
:100F8000232F330F330B220F232F221F330B322F2C
:100F90003170930E0A2C02C0969587950A94E2F759
:100FA0008227980ED1E0EB37FD0741F680E8890DE6
:100FB0008BBD80915A0190915B01019690935B01EA
:100FC00080935A01809167009091680001969093F8
:100FD000680080936700FF91EF91DF91CF91BF91FF
:100FE000AF919F918F917F916F915F914F913F91C1
:100FF0002F911F910F91FF90EF90DF90CF90BF90B6
:10100000AF909F900F900FBE0F901F901895CF93A9
:10101000DF93CDB7DEB728970FB6F894DEBF0FBECB
:10102000CDBF81B781BF8AB582608ABD8AB5816034
:101030008ABD83B7887F836083BF789489B78260D5
:1010400089BF80B7807F80BF80B7806880BF8CB544
:1010500080648CBD8FEF8DBD80B7876080BF86B107
:101060008877866886B9379A61E084E024D961E0A0
:1010700081E021D962E080E01ED962E083E01BD9E3
:1010800062E082E018D980E02FD8892B29F483E030
:101090002BD8892B09F447C580E026D8892B89F401
:1010A000809135018D7F816080933501809134017D
:1010B00080648093340181E0809364011092600029
:1010C0001BC083E011D8892B91F480913501826097
:1010D0008E7F809335018091340180648093340148
:1010E00084E08093640182E08093600005C0809179
:1010F0003701806280933701EBD78C0161E081E09A
:101100001BD8E6D7800F911FBC01695F734819F0A7
:1011100080E090E00CD686E087BD19BE81E080BFFC
:1011200080E68CBD80E88BBD8AE083BF83E689BD05
:1011300080E189BF81B78E5F81BF80E481BD7894F3
:1011400035D922D981D900E010E082E0882E912C97
:10115000A12CB12CC12CD12C7601C394E4D5A501CE
:101160009401EED52091540130915501672B682BE5
:10117000692B69F0D701C601002E04C0880F991FA2
:10118000AA1FBB1F0A94D2F7822B932B0EC0D70144
:10119000C601002E04C0880F991FAA1FBB1F0A9406
:1011A000D2F7809590958223932390935501809355
:1011B00054010F5F1F4F0031110581F612E0812E9F
:1011C000912CA12CB12CC12CD12C7601C3948091EF
:1011D000350181FFB2C06091360166FDAEC020913D
:1011E0005A0130915B01C901959587959595879531
:1011F000909363018093620140916100509162007D
:10120000841795070CF093C060FF91C06091650151
:101210006F7040916B0050916C0002C056954795DD
:101220006A95E2F740FF19C048B3E0916000B90148
:10123000F5E075956795FA95E1F7E8D4A6E0359560
:101240002795AA95E1F702C0959587952A95E2F72B
:101250008E23E0954E23482B48BB209165012F70CB
:101260008091690090916A0002C0969587952A95B1
:10127000E2F780FF2BC020916201309163018091E1
:101280006100909162009595879528173907F4F4CD
:10129000C9018056994748B3E0916000BC0153E012
:1012A000759567955A95E1F7B1D40090600102C039
:1012B000359527950A94E2F702C0959587952A956A
:1012C000E2F78E23E0954E23482B48BB2091650121
:1012D0002F7080915C0190915D0102C09695879579
:1012E0002A95E2F780FF29C068B370916000809171
:1012F0005A0190915B01AC010090600102C05595CC
:1013000047950A94E2F7452F550F550B4595292F20
:10131000332727FD3A95242B352B02C095958795C9
:101320002A95E2F7872370956723862B05C098B32B
:10133000809160008095892388BBCAD6909367010D
:101340008093660120E732E0281B390B309361015E
:10135000209360014091360145FF05C0309359014B
:101360002093580104C010925901109258018138FD
:1013700025E0920714F080E895E097FF02C080E036
:1013800090E0909357018093560126B3322F31702D
:1013900091E039278091350130FB85F923FB222725
:1013A00020F9922790FB86F98093350180913401D2
:1013B00087FF44C08091640197D621E0892B09F40E
:1013C00020E08091340120FB83F9809334012223B3
:1013D000D9F084FD19C08061809334018091670049
:1013E0009091680096958795A0E0B0E080936300A7
:1013F00090936400A0936500B0936600109268001B
:1014000010926700CDD91AC08091340184FF16C0B4
:10141000409167005091680060E070E000916300C7
:101420001091640020916500309166000417150743
:101430002607370718F48F7E809334019091350189
:101440008091360195FF0BC081FD12C020913701BC
:101450002064209337018260809336010FC081FFA2
:1014600007C08D7F8093360180913701806804C06A
:10147000809137018F7B8F77809337018091360180
:1014800096FB112710F996FF0BC082FD12C0209128
:1014900038012160209338018460809336010FC0A9
:1014A00082FF07C08B7F8093360180913801826074
:1014B00004C0809138018E7F8D7F8093380195FB29
:1014C000002700F995FF18C01123B1F08091360173
:1014D00084FD12C045E050E061E070E080ED97E0EF
:1014E00026D780913601877B806180933601809179
:1014F00034018160809334018091360184FF49C0BA
:10150000011147C0111145C08F7E80933601809133
:1015100034018E7F809334018091350180FD0AC0B3
:1015200080913301813021F483E08093330102C044
:1015300010923301809133018F5F2091300130E0B0
:101540002F5F3F4F237033272093300169E06FD323
:10155000909333018091370183FF76D71092320147
:10156000809136011092630110926201877D909103
:1015700037019C7F9B7F9093370180688F7B80939E
:101580003601809138018B7F877F809338011092DC
:101590005F018091340185FF11C06091650170E0A9
:1015A0006F5F7F4F6170772731E06327809164011F
:1015B000C3D5809134018F7D8093340180913401B3
:1015C00080FF08C080913601806488608093360176
:1015D00060E0AEC0909133019430E1F038F4923085
:1015E00079F0933009F0AAC08D7F0BC0973009F4D1
:1015F00069C0983009F4EBCD963009F09FC03BC02C
:10160000826080933401E4D78091380180628093B6
:101610003801DDCD8091360187FF1EC090913801E1
:1016200090619093380190913701986090933701C1
:10163000909135019B7E977F9093350188608F7BD9
:101640008F778093360110926C0010926B0010928D
:101650006A001092690098D6909135018091380106
:1016600096FF02C08460D3CF95FF02C08860CFCFC1
:10167000877F8B7FCCCF8091380180FF0FC0E091B6
:101680006001F0916101EE0FFF1FE45CFF4F41E04C
:1016900050E060E070E08081918149D6809137010F
:1016A00086FF95CDE0916001F0916101EE0FFF1F83
:1016B000E45CFF4F41E050E060E070E080819181A8
:1016C00036D685CD80913601806480933601809135
:1016D000380180FF08C0809168018F5F65E0A7D264
:1016E000909368011EC08091350185FF0BC0ACD678
:1016F00044E050E061E070E0809160019091610110
:1017000016D60FC080915A0190915B01009068013C
:1017100002C0959587950A94E2F7909363018093B0
:1017200062018091360180628093360160913001C0
:101730008091620190916301A9D749CD80913601D2
:1017400087FF73C1109232018F7B88608F778093FF
:10175000360110926C0010926B0010926A00109289
:10176000690010925D0110925C01809138018F7EBA
:1017700080933801909135018091370198619B7F6A
:1017800090933501806280618093370183FD4DC164
:101790004DEA50E05E834D83FA011192119211924D
:1017A000119251E0ED32F507C1F7E5D568E070E040
:1017B00080E090E03BD5B7D2A5019401C1D2672B60
:1017C000682B692B39F068E070E080E090E02ED55E
:1017D000262E01C0212C80912D01E82FF0E0FA8304
:1017E000E98380915E0190E065E070E00FD2209186
:1017F000380127FB222720F930E02901440C551C31
:10180000440C551C5C824B8220E030E0312C15E00A
:101810008C5B9E4F98878F83C901820D931D63E077
:1018200070E011D2892B81F12F5F3F4F4D815E8196
:101830004C5F5F4F5E834D832032310569F79BD546
:1018400064E070E080E090E0F1D4DC01CB0101962F
:10185000A11DB11D282F30E08901000F111F8091BB
:101860005E0190E065E070E0D1D140912D01EDE6A0
:10187000F0E0FC83EB83E0E0F0E08C5B9E4F9A832A
:101880008983612C712C37C0AD81BE8100E0802F2F
:10189000612FCDD14F815885490F511DFA018081AB
:1018A00049815A81480F511DFFE14F2E512C441A96
:1018B000550AA2012601370104C0440C551C661CC0
:1018C000771C4A95D2F7B301A2014D905D906D90BF
:1018D0007C90139744295529662977294D935D9368
:1018E0006D937C9313970F5F6B807C80A60DB71D63
:1018F000033069F699CFCF01B901A5D1CB01B80169
:10190000A2D1880F991F65E070E09DD149805A806F
:10191000480E511CD2018C91840F70E1472E512C3E
:10192000481A5108C2011601270104C0220C331CB9
:10193000441C551C8A95D2F7AB81BC818D919C913A
:1019400011978229932911969C938E93E20FF31F8E
:10195000A00FB11FBC83AB83C3018E0F9F1F809765
:1019600054F2212C312CDFD18101000F111F000F07
:10197000111F03551F4F25E030E040E050E0E0D15B
:101980002B013C0180915E0190E065E070E03ED16A
:10199000092E000CAA0BBB0B840D951DA61DB71DAF
:1019A000FC01EC5BFE4F208180912D0190E0820FC5
:1019B000911DEFE1F0E0E81BF90BB701A60104C0AF
:1019C000440F551F661F771FEA95D2F7F8018081F3
:1019D0009181A281B381842B952BA62BB72B808379
:1019E0009183A283B38365E070E080E090E01ED431
:1019F000DC01CB010196A11DB11D280E391EF0E2BC
:101A00002F1631040CF4AFCF0BD5D0D48CD1A50157
:101A1000940196D1672B682B692B09F0B5D480917E
:101A2000380180648F7D809338018091350185FF76
:101A30001EC08091360180628093360180916001E2
:101A400090916101880F892F881F990B8093310134
:101A5000009162011091630160913001C80116D6B6
:101A60000F5F1F4F1093630100936201B0CB109280
:101A7000320186FF17C020912F0180916001909163
:101A80006101233038F4880F892F881F990B8093C8
:101A900031019DCB26E0959587952A95E1F78093B6
:101AA0002E0195CB809136018F7D80933601109267
:101AB0005F018091370187FF15C082E0809331017B
:101AC0008091380184FD03C0ABD470D45DD4809183
:101AD000360186FB222720F991E0922790FB86F9B8
:101AE000809336012091380121FF71CB80916901EB
:101AF0008F5F8093690163E09AD091110AC02062E0
:101B0000206420933801809136018F7D80933601C7
:101B10005ECB913019F420642F7D02C02F7B2062B0
:101B20002093380154CB60E084E0C5D360E081E0CD
:101B3000C2D3809164018111DFCA81E0D5D2892BA3
:101B400099F0809135018D7F80933501809134012A
:101B500080688093340181E08093640161E084E0D7
:101B6000AAD3109260001BC084E0BED2892BB9F0CA
:101B7000809135018E7F8093350114E010936401CC
:101B800061E081E098D380913401806880933401D2
:101B9000809135018260809335011093330180E09C
:101BA000A3D2892BE1F383E09FD2892BC1F3C1CF6C
:101BB00063E170E080E090E039D3DC01CB01019675
:101BC000A11DB11D8093960163E170E080E090E07B
:101BD0002DD3DC01CB010196A11DB11D8093950190
:101BE0006AE170E080E090E021D3DC01CB01059652
:101BF000A11DB11D809394010895002480FD060E5F
:101C0000660F11F08695D1F7802D08950024552791
:101C100004C0080E591F880F991F009729F0769568
:101C20006795B8F37105B9F7802D952F0895991B25
:101C300079E004C0991F961708F0961B881F7A95C3
:101C4000C9F78095089597FB072E16F4009406D0E7
:101C500077FD08D00BD007FC05D03EF49095819518
:101C60009F4F0895709561957F4F0895AA1BBB1BE8
:101C700051E107C0AA1FBB1FA617B70710F0A61B8C
:101C8000B70B881F991F5A95A9F780959095BC01AD
:101C9000CD010895EE0FFF1F0590F491E02D0994FA
:101CA000A0E0B0E0E5E5FEE08AC0EC016881798162
:101CB0008A819B81611571058105910521F464E29A
:101CC00079ED8BE597E02DE133EF41E050E038D03E
:101CD00049015A0127EA31E440E050E04DD0690162
:101CE0007A01C501B4012CEE34EF4FEF5FEF44D021
:101CF000022F132F9A01D701C601800F911FA21F37
:101D0000B31FB7FF03C00197A109B0488883998327
:101D1000AA83BB83BC01CD019F77CDB7DEB7ECE0D2
:101D20006AC0BEDF08958FE391E0BADF0895609343
:101D30003F017093400180934101909342010895C7
:101D4000052E97FB16F400940FD057FD05D068D0F0
:101D500007FC02D046F408C0509540953095219577
:101D60003F4F4F4F5F4F08959095809570956195C7
:101D70007F4F8F4F9F4F089568940013E894A0E021
:101D8000B0E0E4ECFEE01DC0EFEFE7F959016A01B5
:101D90005E23550FEE08FE2C87019B01AC019E23AC
:101DA000990F660B762FCB015DD0CDB7DEB7EAE099
:101DB00024C02F923F924F925F926F927F928F92A8
:101DC0009F92AF92BF92CF92DF92EF92FF920F93CA
:101DD0001F93CF93DF93CDB7DEB7CA1BDB0B0FB6D4
:101DE000F894DEBF0FBECDBF09942A883988488891
:101DF0005F846E847D848C849B84AA84B984C88427
:101E0000DF80EE80FD800C811B81AA81B981CE0F1D
:101E1000D11D0FB6F894DEBF0FBECDBFED01089502
:101E2000A1E21A2EAA1BBB1BFD010DC0AA1FBB1FDE
:101E3000EE1FFF1FA217B307E407F50720F0A21B50
:101E4000B30BE40BF50B661F771F881F991F1A94BD
:101E500069F760957095809590959B01AC01BD01E7
:101E6000CF010895DF93CF939F92A0E49A2E002490
:101E7000D001E001F00116950795F794E794D79407
:101E8000C794B794A79448F41068A20FB31FC41F57
:101E9000D51FE61FF71F081E191E220F331F441FF0
:101EA000551F661F771F881F991F9A9421F79D0160
:101EB000AE01BF01C00111249F90CF91DF91089521
:041EC000F894FFCFC4
:101EC40002F401010000000A00FFFF808008000006
:101ED40000000008000000000008000000000000EE
:101EE40000000000000000000000000000000000EE
:101EF40000000000000000000000000000000000DE
:101F040000000000000000000000000000000001CC
:101F140000000000000000000000000000000001BC
:101F240000000000000000000000000000000001AC
:101F3400000000000000000000000000000000019C
:101F4400000000000010000000000000000000017C
:101F5400000000000010000000000000000000016C
:101F6400000000000010000000000000000000015C
:101F7400000000000010000000000000000000014C
:101F8400000000000010000000000000000C0A0423
:101F940004020101121F8100E00101000408000194
:101FA400000000200003070A0C0004070B0C0002C9
:041FB4000507090014
:0200000002C03C
:00000001FF